:020000040800F2
:100000000050002019180008B5160008BB1600089B
:10001000C1160008C7160008CD1600080000000031
:10002000000000000000000000000000D3160008DF
:10003000DF16000800000000EB160008F7160008A5
:1000400061180008611800086118000861180008AC
:10005000611800086118000861180008611800089C
:10006000611800086118000861180008611800088C
:10007000611800086118000861180008611800087C
:10008000611800086118000861180008611800086C
:1000900005140008611800086118000861180008BC
:1000A000611800086118000861180008611800084C
:1000B000611800086118000861180008611800083C
:1000C000611800086118000861180008611800082C
:1000D00061180008B51200086118000861180008CE
:1000E000611800086118000861180008000000008D
:1000F0000000000000000000000000000000000000
:0C01000000000000000000005FF808F1A3
:10010C0000F1340191E838009C46A6464CF8045D99
:10011C0090E8FF0FE54600BD90EC210B704700BF47
:10012C0080EC210B704700BF90EC200B704700BF98
:10013C0080EC200B704700BFD0EC200B704700BF49
:10014C00C0EC200B704700BFF0EC0201F0EC021188
:10015C00F0EC0221F0EC0231F0EC0241F0EC025137
:10016C00F0EC0261F0EC0271F0EC0281F0EC029127
:10017C00F0EC02A1F0EC02B1F0EC02C1F0EC02D117
:10018C00F0EC02E1F0EC02F1704700BFE0EC020190
:10019C00E0EC0211E0EC0221E0EC0231E0EC024177
:1001AC00E0EC0251E0EC0261E0EC0271E0EC028167
:1001BC00E0EC0291E0EC02A1E0EC02B1E0EC02C157
:1001CC00E0EC02D1E0EC02E1E0EC02F1704700BFA0
:1001DC00B0FC0181B0FC0191B0FC01A1B0FC01B1FB
:1001EC00704700BFA0FC0181A0FC0191A0FC01A103
:1001FC00A0FC01B1704700BFEC4600B52DE90050E2
:10020C002DE9FF1F4FF000032DE90C0001A901F0AF
:10021C007FFCDDF840E012B0704700BFEC4600B543
:10022C002DE900502DE9FF1F4FF000032DE90C00C4
:10023C0001A901F0ADFCDDF840E012B0704700BF41
:10024C00EC4600B52DE900502DE9FF1F4FF00003DF
:10025C002DE90C0001A901F0BBFCDDF840E012B067
:10026C00704700BFEC4600B52DE900502DE9FF1F8B
:10027C004FF000032DE90C0001AB01F07DFCDDF823
:10028C0040E012B0704700BFEC4600B52DE90050BD
:10029C002DE9FF1F4FF000032DE90C0001AA01F01E
:1002AC00EDFCDDF840E012B0704700BF844641EA37
:1002BC00000313F0030349D1403A23D30B680360C6
:1002CC004B6843608B688360CB68C3600B690361C8
:1002DC004B6943618B698361CB69C3610B6A0362B0
:1002EC004B6A43628B6A8362CB6AC3620B6B036398
:1002FC004B6B43638B6B8363CB6BC363403040317D
:10030C00403ADBD230320BD30B6803604B6843604E
:10031C008B688360CB68C36010301031103AF3D215
:10032C000C3205D351F8043B40F8043B043AF9D2A3
:10033C00043208D0D2071CBF11F8013B00F8013B76
:10034C0001D30B8803806046704700BF082A13D383
:10035C008B07B1D010F00303AED0C3F10403D21A53
:10036C00DB071CBF11F8013B00F8013BA4D331F8AB
:10037C00023B20F8023B9FE7043AD9D3013A11F82B
:10038C00013B00F8013BF9D20B7803704B784370BA
:10039C008B788370604670470348044B834202D0CD
:1003AC00034B03B11847704748050020480500204F
:1003BC00000000000548064B1B1AD90F01EBA301E6
:1003CC00491002D0034B03B1184770474805002071
:1003DC00480500200000000010B5064C237843B9F6
:1003EC00FFF7DAFF044B13B10448AFF3008001238D
:1003FC00237010BD4805002000000000442F0008A9
:10040C0008B5054B1BB105490548AFF30080BDE8A5
:10041C000840FFF7CFBF00BF000000004C050020D4
:10042C00442F000880B485B000AFF8603B1D83E812
:10043C000600094B9B68084A23F4E0639360064B63
:10044C009A68FB791B02044913438B6000BF143775
:10045C00BD4680BC704700BF0010024080B485B020
:10046C0000AFF8603B1D83E8060000BF1437BD46A3
:10047C0080BC704780B485B000AFF8603B1D83E84A
:10048C000600094B5B68084A23F0F0035360064BE7
:10049C005A68BB791B01044913434B6000BF1437E6
:1004AC00BD4680BC704700BF0010024080B586B0CE
:1004BC0000AFF860384680E80E00464B1B68454A92
:1004CC0043F001031360434907F11000FF2302229C
:1004DC0000F034F90346002B14BF01230023DBB2D8
:1004EC00002B07D0F86800F079F807F114031846D0
:1004FC0000F0A6F9FB79002B19D0364B1A68FB7A61
:10050C009B04344913430B60324B1A68FB791B0470
:10051C00304913430B6000BF2E4B1B6803F40033B0
:10052C00002B0CBF01230023DBB2002BF4D17B7A10
:10053C00002B4AD0274B5B68264A23F47013536078
:10054C00244B5A683B799B04224913434B60214B43
:10055C005B68204A23F4803353601E4B5A687B79C6
:10056C001B041C4913434B601A4B1B68194A43F07C
:10057C0080731360184B1B68174A43F00203136017
:10058C0000BF144B1B6803F00073002B0CBF01233E
:10059C000023DBB2002BF4D10E4B5B680D4A23F029
:1005AC00030353600B4B5B68BA791146094A0B4342
:1005BC00536000BF074B5B6803F00803002B0CBFB4
:1005CC0001230023DBB2002BF4D100BF1837BD464A
:1005DC0080BD00BF001002400020024080B584B0F6
:1005EC0000AF7860194B1B68184A43F00103136085
:1005FC00164907F10800FF23022200F09FF803467A
:10060C00002B14BF01230023DBB2002B04D007F115
:10061C000C03184600F014F90C4B1B680B4A23F022
:10062C0080731360094B1B68084A23F001031360A5
:10063C00064B5B68054A23F003035360034B034AE4
:10064C005B68536000BF1037BD4680BD0010024090
:10065C0080B584B000AFF860384680E80E003B46A9
:10066C0093E80600F868FFF705FF3B4693E80600A1
:10067C00F868FFF7D7FE3B4693E80600F868FFF7EB
:10068C00EDFE3B460ECBF868FFF710FF00BF1037AE
:10069C00BD4680BD80B483B000AF78600B46FB7064
:1006AC000F4B1B680E4A23F0010313600D4BDB69E3
:1006BC000C4A43F00403D361FB785A1E084B9A6230
:1006CC00074B40F2E732DA62054B1B68044A43F0F1
:1006DC000103136000BF0C37BD4680BC704700BFE0
:1006EC00000800400010024080B485B000AF786074
:1006FC0039600023FB8114E00F4B1B690E4A23F079
:10070C000103136100BF0C4B1B6903F00103002BA9
:10071C000CBF01230023DBB2002BF4D1FB89013386
:10072C00FB81FB893A689A42E6D800BF00BF1437B8
:10073C00BD4680BC704700BF0008004080B487B045
:10074C0000AFF860B9607A603B6000237B610FE01A
:10075C00BB681A687B681340002B14BF012300236D
:10076C00DBB2002B01D000230CE07B6901337B61F1
:10077C003B687A699A4234BF01230023DBB2002B19
:10078C00E6D1012318461C37BD4680BC70470000DB
:10079C0080B582B000AF78600C4B9B690B4A43F07C
:1007AC00100393610A4B5B68094A43F4401353608E
:1007BC00074B5B68064A23F440035360786800F0EB
:1007CC001BF800BF0837BD4680BD00BF00100240BB
:1007DC000010014080B483B000AF7860054BDB683B
:1007EC00044A23F40053D36000BF0C37BD4680BCD1
:1007FC00704700BF0010014080B483B000AF786038
:10080C00054BDB68044A43F40053D36000BF0C373C
:10081C00BD4680BC704700BF0010014080B483B05F
:10082C0000AF7860054BDB68044A83F40053D36057
:10083C0000BF0C37BD4680BC704700BF00100140A4
:10084C0080B586B000AF78607868FFF7C3FF07F11A
:10085C0008034FF496711846FFF746FF7868FFF7C8
:10086C00CBFF07F10C034FF496711846FFF73CFFD2
:10087C007868FFF7AFFF07F110034FF49671184635
:10088C00FFF732FF7868FFF7B7FF07F114034FF457
:10089C007A711846FFF728FF7868FFF7D1FF00BF81
:1008AC001837BD4680BD000080B483B000AF03464E
:1008BC00FB7197F90730002B0BDBFB7903F01F0260
:1008CC00064997F907305B09012000FA02F241F85A
:1008DC00232000BF0C37BD4680BC704700E100E010
:1008EC0080B483B000AF78600E4B5B680D4A23F484
:1008FC00806353600B4B5B680A4A43F4006353609C
:10090C00084B5B68074A23F440735360054BDB6864
:10091C00044A43F48063D36000BF0C37BD4680BCEF
:10092C00704700BF0008014080B483B000AF78600E
:10093C000E4B5B680D4A23F0300353600B4B5B6826
:10094C000A4A43F030035360084B5B68074A23F0B4
:10095C00C0035360054B5B68044A43F0800353604B
:10096C0000BF0C37BD4680BC704700BF000801407B
:10097C0080B58AB000AFF860B9607A6000237B6202
:10098C0032E01E4907F1140042F210738022FFF787
:10099C00D5FE0346002B14BF01230023DBB2002B32
:1009AC0004D007F118031846FFF74AFFBA687B6AB0
:1009BC0013441A78114B5A60104907F11C0042F28B
:1009CC0010734022FFF7BAFE0346002B14BF01231D
:1009DC000023DBB2002B04D007F120031846FFF7ED
:1009EC002FFF7B6A01337B627A6A7B689A42C8D399
:1009FC0000BF00BF2837BD4680BD00BF0038014096
:100A0C0084B080B582B000AF786007F1140080E844
:100A1C000E002B4BDB682A4A43F40053D360284A60
:100A2C00BB699360264BDB68254A23F48053D36063
:100A3C00234BDA683B7F1B0321491343CB60204BCC
:100A4C00DB681F4A23F48063D3601D4BDB68BA7FDD
:100A5C009202D24311461A4A0B40D360184BDB6802
:100A6C00174A23F00803D360154BDA68FB7FDB00D1
:100A7C0013491343CB60124BDB68114A23F0040378
:100A8C00D3600F4BDA6897F820309B000C49134366
:100A9C00CB600B4BDB680A4A43F02003D360084B56
:100AAC00DB68074A43F01003D3602520FFF7FCFEF8
:100ABC0000BF0837BD46BDE8804004B0704700BF9A
:100ACC000038014084B080B584B002AF786007F183
:100ADC00140080E80E00104B9B690F4A43F008038A
:100AEC0093610D4B9B690C4A43F480439361786886
:100AFC00FFF7F6FE7868FFF717FF3B6A009307F1E4
:100B0C0014030ECB7868FFF77BFF00BF0837BD4698
:100B1C00BDE8804004B070470010024080B483B040
:100B2C0000AF0346FB7197F90730002B0BDBFB7909
:100B3C0003F01F02064997F907305B09012000FA00
:100B4C0002F241F8232000BF0C37BD4680BC704731
:100B5C0000E100E080B483B000AF78600E4B5B68BE
:100B6C000D4A23F4405353600B4B5B680A4A23F441
:100B7C0040435360084B5B68074A43F4004353609F
:100B8C00054BDB68044A43F40063D36000BF0C37A9
:100B9C00BD4680BC704700BF0008014080B483B0E4
:100BAC0000AF78600B4B5B680A4A23F44023536018
:100BBC00084B5B68074A43F400235360054B5B68A2
:100BCC00044A43F44033536000BF0C37BD4680BC2D
:100BDC00704700BF0008014080B582B000AF78605C
:100BEC007868FFF7DBFF7868FFF7B4FF00BF0837C2
:100BFC00BD4680BD84B080B483B000AF786007F18F
:100C0C00140080E80E002B4BDB692A4A23F080434A
:100C1C00D361284BDA69FB699B0726491343CB61E7
:100C2C00244BDB69234A23F00043D361214BDA695F
:100C3C0097F82130DB071F491343CB611D4BDB6950
:100C4C001C4A23F47F7323F00303D361194BDB6934
:100C5C0097F82020013A1146164A0B43D361154BE5
:100C6C00DB69144A23F47023D361124BDB693A7DA0
:100C7C00013A120411460F4A0B43D3610D4BDB6949
:100C8C000C4A23F4E003D3610A4BDB697A7D013A09
:100C9C0012051146074A0B43D361064BDA69BB694F
:100CAC001B0604491343CB6100BF0C37BD4680BC07
:100CBC0004B070470064004080B483B000AF78602B
:100CCC0039601B4BD3F88031194A23F00203C2F868
:100CDC008031174BD3F88031154A23F00403C2F846
:100CEC008031134BD3F88031114AC3F31403C2F88B
:100CFC0080310F4BD3F880213B885B050C491343A3
:100D0C00C1F880310A4BD3F88431094A23F00F0320
:100D1C00C2F88431064BD3F88431BA781146044AB0
:100D2C000B43C2F8843100BF0C37BD4680BC704702
:100D3C000064004080B485B000AFF8603B1D83E8D0
:100D4C000600294BD3F8B031274A23F00403C2F82C
:100D5C00B031254BD3F8B0213B7A9B002249134389
:100D6C00C1F8B031204BD3F8B0311F4A23F0020345
:100D7C00C2F8B0311C4BD3F8B021FB795B001A4997
:100D8C001343C1F8B031184BD3F8B0213B7A9B0018
:100D9C0015491343C1F8B031134BD3F8B431124A8F
:100DAC0023F47F43C2F8B4310F4BD3F8B421BB8882
:100DBC001B020D491343C1F8B4310B4BD3F8B431BA
:100DCC00094A23F00F03C2F8B431074BD3F8B431FE
:100DDC00BA791146044A0B43C2F8B43100BF143738
:100DEC00BD4680BC704700BF0064004080B485B035
:100DFC0000AFF8603B1D83E80600394BD3F8003296
:100E0C00374A43F00103C2F80032354BD3F80432B1
:100E1C00334A23F00103C2F80432314BD3F80432C5
:100E2C00FA791146BA7901FA02F211462C4A0B43AF
:100E3C00C2F804322A4BD3F80C32294A23F00103AE
:100E4C00C2F80C32264BD3F80C323A7A1146BA79E6
:100E5C0001FA02F21146224A0B43C2F80C323979DC
:100E6C001F4ABB79483342F8331079791C4ABB7955
:100E7C004833DB0013445960194BD3F81432BA7958
:100E8C00114601228A40D2431146154A0B40C2F842
:100E9C001432134BD3F814327A7A1146BA7901FA18
:100EAC0002F211460E4A0B43C2F814320C4BD3F823
:100EBC001C32BA7A1146BA7901FA02F21146084A82
:100ECC000B43C2F81C32064BD3F80032044A23F011
:100EDC000103C2F8003200BF1437BD4680BC704716
:100EEC000064004080B582B000AF78600A4B5B694B
:100EFC00094A43F002035361074B5B69064A43F00E
:100F0C00040353611420FFF709FE1320FFF706FEBC
:100F1C0000BF0837BD4680BD0064004084B080B57A
:100F2C0084B002AF786007F1140080E80E00244B07
:100F3C001B68234A43F00103136000BF204B5B681E
:100F4C0003F00103002B0CBF01230023DBB2002BA9
:100F5C00F4D11B4B1B681A4A43F010031360184B57
:100F6C001B68174A43F020031360FB6A009307F1D8
:100F7C0020030ECB7868FFF73DFE79697868FFF7A0
:100F8C009BFE07F1180393E806007868FFF7D2FE82
:100F9C0007F1300393E806007868FFF727FF7868BD
:100FAC00FFF7A0FF064B1B68054A23F001031360F3
:100FBC0000BF0837BD46BDE8804004B0704700BF95
:100FCC000064004080B483B000AF78607B68184642
:100FDC000C37BD4680BC704784B0B0B588B006AF46
:100FEC00786007F11C0080E80E00124BDB69114A97
:100FFC0043F00073D3610F4B9B690E4A43F004031B
:10100C0093617868FFF7E8FD6D4607F128040FCC73
:10101C000FC594E8030085E8030007F11C030ECB11
:10102C007868FFF77BFF00BF0837BD46BDE8B040CE
:10103C0004B070470010024080B487B000AFF86075
:10104C00B9603B601346FB710023FB8200237B7568
:10105C0008E0FB8A0133FB82FB8AB3F5704F01D3A6
:10106C000123A1E0534B9B6803F08063002B0CBF62
:10107C0001230023DBB2002BEBD10023FB824D4B71
:10108C000022C3F888214B4B0022C3F88C216CE062
:10109C00BB781A46FB8A9A4233DC464BD3F8803134
:1010AC00444A43F00103C2F88031FB8ADBB2FA797F
:1010BC00D31AFB717B7D01337B7508E0FB8A01330E
:1010CC00FB82FB8AB3F5704F01D301236CE0394BE3
:1010DC009B6803F08063002B0CBF01230023DBB261
:1010EC00002BEBD1334B9B6803F00203002B002346
:1010FC00FB82304B0022C3F888212E4B0022C3F810
:10110C008C21FB8A032B16D82A4BD3F88821F98A19
:10111C007B7DB87800FB03F30B441946BB680B448A
:10112C001B781946FB8ADB0001FA03F321491343B0
:10113C00C1F8883116E01F4BD3F88C21F98A7B7DDE
:10114C00B87800FB03F30B441946BB680B441B78BF
:10115C001946FB8A043BDB0001FA03F315491343E0
:10116C00C1F88C31FB8A0133FB82FB799BB2FA8A82
:10117C009A428DD30F4BD3F880310E4A43F00103C2
:10118C00C2F880310B4B9B691B09DBB203F00703E0
:10119C003B75084B9B68DBB25B00FB74FB7C002B44
:1011AC0001D0002300E03B7D18461C37BD4680BCB7
:1011BC00704700BF0064004080B48BB000AFF86093
:1011CC00381D80E806003B60364BD3F8BC313B62DF
:1011DC00344BD3F8B831FB61324BDB68FB76002320
:1011EC003B6100237B61002387F827302FE097F8C1
:1011FC002730032B17D897F82730BA7902FB03F363
:10120C00FA6922FA03F3BB7697F82730BA7902FB16
:10121C0003F3FA69DA4097F82730D2B228333B440B
:10122C0003F8182C0EE097F82730BA7902FB03F379
:10123C00203B3A6ADA4097F82730D2B228333B4445
:10124C0003F8182C97F82730013387F82730BB792F
:10125C0097F827209A42CAD3002387F826300EE04D
:10126C0097F8262097F8263028323A4412F8181CA2
:10127C003A68D15497F82630013387F82630BB7979
:10128C0097F826209A42EBD3064BDB68054A43F0CD
:10129C002003D360034BDB68FB7600BF2C37BD46C5
:1012AC0080BC70470064004080B588B000AF4D4BE7
:1012BC001B6803F02003002B14BF01230023DBB2B7
:1012CC00002B53D00423FB74474B1A68474B1B6805
:1012DC009A423CD1454B1B685B00184601F03CF927
:1012EC000346FB600023FB6107E0FA68FB691344CB
:1012FC0000221A70FB690133FB613C4B1B685B00DD
:10130C00FA699A42F1D30023BB610BE0384B1A689F
:10131C00BB691A44F968BB690B4412781A70BB6933
:10132C000133BB61314B1B68BA699A42EED32F4B28
:10133C001B685B002D4A13602D4B1B68184601F08F
:10134C0013F92B4B00221A60294AFB681360254BBA
:10135C005B68FB72264B1A68234B1B681344FA7AA2
:10136C001A70214B1B6801331F4A13601D4B1B68FD
:10137C0003F01003002B14BF01230023DBB2002B5E
:10138C002BD03B1D4FF47A711846FFF7ADF9154B76
:10139C005B68BB7207F108031846FFF713FE144B8A
:1013AC001968144B07F108001B686422FFF744FE10
:1013BC000D4B00221A6000237B6108E00C4B1A686D
:1013CC007B69134400221A707B6901337B61074BE4
:1013DC001B687A699A42F1D300BF00BF2037BD4623
:1013EC0080BD00BF00380140A8050020000000208F
:1013FC00AC0500207405002090B587B000AF002329
:10140C007B600023BB6007F10C031846FFF706FA5C
:10141C0007F110031846FFF7D5FD3B1D194A07F1DC
:10142C001000043206CAFFF7C7FE0023FB751BE051
:10143C00F97D154B1868154B1A68154BA3FB024325
:10144C005B09642404FB03F3D31A034401F118026F
:10145C003A4412F8142C1A700C4B1B6801330B4ACB
:10146C001360FB7D0133FB75FB7D072BE0D9391D28
:10147C0007F1140308221846FFF77AFA00BF1C374D
:10148C00BD4690BD74050020B0050020B4050020B9
:10149C001F85EB51F0B593B006AF0023FB6208E05B
:1014AC00634B1A68FB6A134400221A70FB6A0133FF
:1014BC00FB62FB6A632BF3D907F11C030821184666
:1014CC00FFF7E8F807F120031846FFF761F9594BCD
:1014DC000122DA71574B01221A72564B01225A72B1
:1014EC00544B00229A72534B0022DA72514B022257
:1014FC009A71504B07221A714E4B01225A714D4B67
:10150C000222DA704B4B00221A704A4B00225A709E
:10151C00484B08229A70474B07F118000ECBFFF787
:10152C0097F807F1240324211846FFF7B3F807F1C5
:10153C0028031846FFF760F900F0E4F83E4B1B68EF
:10154C007B613E4B12221A763C4B0D221A733B4B9D
:10155C0002225A73394B01221A61384B01225A610B
:10156C00364B00225A76364B5B781A46334B1A8030
:10157C00324B08229A70314B00229A802F4B082252
:10158C009A712E4B00221A722C4B0022DA712B4BC3
:10159C00002283F82120294B00229A77284B1A78B5
:1015AC00264B1A77264B1A78244B5A77234B00225A
:1015BC0083F82020214B0122DA77204B012283F87B
:1015CC00222007F110031846FFF7FCFC1B4E07F115
:1015DC00100C6D4606F10C040FCC0FC594E80300FB
:1015EC0085E8030096E80E006046FFF7F5FC154B06
:1015FC0040F6A6625A60134B0122DA72114B01229B
:10160C001A73104B00221A720E4B00229A720D4B59
:10161C0007F10C00DA6800920ECBFFF753FA0023A7
:10162C0087F82B302E233B810023FB80FEE700BF85
:10163C00B00500209805002004000020740500204F
:10164C00A40500206405002080B582B000AF78604E
:10165C0039607B68012B14D13B684FF6FF729342C3
:10166C000FD10A4B1B68184600F076FF03461A464A
:10167C00074B1A60642000F06FFF03461A46054BB7
:10168C001A6000BF0837BD4680BD00BF00000020B7
:10169C00AC050020B005002080B500AF4FF6FF71FF
:1016AC000120FFF7D1FF80BD80B400AFFEE780B40E
:1016BC0000AFFEE780B400AFFEE780B400AFFEE7FA
:1016CC0080B400AFFEE780B400AF00BFBD4680BC65
:1016DC00704780B400AF00BFBD4680BC704780B47B
:1016EC0000AF00BFBD4680BC704780B500AF00F0B6
:1016FC007BF800BF80BD80B400AF00BFBD4680BC8E
:10170C007047000080B485B000AF0023FB6000235D
:10171C00BB6000237B602F4B5B6803F00C03FB600A
:10172C00FB68082B11D0FB68082B3AD8FB68002B00
:10173C0003D0FB68042B04D033E0274B274A1A60F4
:10174C0033E0254B254A1A602FE0224B5B6803F4EB
:10175C007013BB601F4B5B6803F480337B60BB680A
:10176C009B0C0233BB607B68002B06D1BB681C4A08
:10177C0002FB03F3184A136017E0164B5B6803F483
:10178C000033002B06D0BB68154A02FB03F3124A48
:10179C0013600AE0BB68114A02FB03F30E4A1360A4
:1017AC0003E00D4B0D4A1A6000BF0A4B5B681B0926
:1017BC0003F00F030B4AD35CFB60074B1A68FB6802
:1017CC0022FA03F3044A136000BF1437BD4680BCF1
:1017DC00704700BF001002400400002000127A0085
:1017EC0000093D005C2F000880B400AF054B1B784E
:1017FC001A46054B1B681344034A136000BFBD46D1
:10180C0080BC704708000020B8050020FFF773FF6C
:10181C000B480C490C4A002302E0D458C450043342
:10182C00C4188C42F9D3094A094C002301E0136017
:10183C000432A242FBD301F05DF9FFF72BFE704797
:10184C000000002048050020B830000848050020A2
:10185C00CC080020FEE7000003685A004CBF43F0A0
:10186C00004323F000431844704700BF2DE9F843B0
:10187C0041B301F1FF380546164647460024E119ED
:10188C0001EBD171491005EBC1094846FFF7E4FFA4
:10189C00884503464FEAC1020ED002F10800B3425C
:1018AC0028440BD8FFF7D8FF0138B04201F10104EE
:1018BC00E5D34846BDE8F883B042FAD98C4201D052
:1018CC004F1EDCE74FF000094846BDE8F88300BF27
:1018DC00012807D0022807D0044B00280CBF18465B
:1018EC00002070470248704702487047A11F00084B
:1018FC00A91F0008B11F000830B5214B044683B066
:10190C008D1E13B3284601A9AFF3008088B301994B
:10191C002A46FFF7ABFF014658B3FFF79DFF4B6814
:10192C00A064012B28D0002B20DB081DFFF794FFAF
:10193C00002323650368E064002B0DDBFFF78CFFAD
:10194C0003460020236103B030BD0E4B0E491846F0
:10195C00C91AC9100191DBE7C3F30360FFF7B8FFA5
:10196C00034630B10020236103B030BD0123081DB4
:10197C00DFE700230920E5E700230520E2E700BFAD
:10198C0000000000C02F0008A8300008036810B544
:10199C00DA07044606D49B0700F1480009D5FEF788
:1019AC00C3FB2368590709D51A070ED5DB0613D5D7
:1019BC0010BDFEF7B1FB23685907F5D404F1D00034
:1019CC00FEF7BAFB23681A07F0D404F5A870FEF7EB
:1019DC00BBFB2368DB06EBD404F5E870BDE81040D4
:1019EC00FEF7F6BB0346006800B11844704700BF11
:1019FC00704700BF70B504460E462046316CFFF7A9
:101A0C007BFF054698B9D6F840C0324621460120E6
:101A1C002369C4F814C098470828EED0072806D1CB
:101A2C002846316CFFF7E4FF301DFEF769FBFFDE43
:101A3C002DE9F0474FF0000AADF5727D0DF10C0E5B
:101A4C0001F1040CC768D0F8188006461446BCE8AF
:101A5C000F00AEE80F00BCE80F00AEE80F00BCE8CA
:101A6C000F00AEE80F009CE80F0002AD8EE80F00EF
:101A7C00C5F800A021E02B6C4FF4F072294673617D
:101A8C007AA8FEF713FC3146504633697AAA984778
:101A9C00889C82466C643346324649460120CDE927
:101AAC000058B847044630BB4FF4F07228467AA968
:101ABC00FEF7FCFBBAF1080F1AD13046296CFFF780
:101ACC001BFF04F109095FFA89FA04460028D2D0F9
:101ADC00A96B3346696432460120CDE900584AF0BF
:101AEC001001B84738B920460DF5727DBDE8F08776
:101AFC00BAF1070F05D0092420460DF5727DBDE81B
:101B0C00F0872046296CFFF773FF03A8FEF7F8FA5D
:101B1C00F0B54FF0FF37CB6BF9B00B6401AC01F1B2
:101B2C00040C0E460546BCE80F000FC4BCE80F00C1
:101B3C000FC4BCE80F000FC49CE80F0084E80F0032
:101B4C00009706E06A4629462B6998470828044600
:101B5C0008D128461099FFF7CFFE0028F2D00920B3
:101B6C0079B0F0BD6846FFF711FF062CF7D131466E
:101B7C002846FFF73FFF00BF10B414468461DC6BAE
:101B8C00C16000221C64194610BCFFF751BF00BF96
:101B9C0070B54369C6680B64AEB90A46036904465E
:101BAC000D46014602209847072805D008280ED17B
:101BBC0029462046FFF71EFF3046296CFFF718FF19
:101BCC00281DFEF79DFA0122FFF732FFFFDEFFDE34
:101BDC00C26832B1D1F83CC00022C1F840C0FFF756
:101BEC0027BFFFF795BF00BF012910D009D883B9D3
:101BFC000F2A0ED800EB820252681846009B1A601E
:101C0C007047033901298CBF022001207047084618
:101C1C0070470220704700BF002300B585B00A460C
:101C2C0003A900911946FFF7DFFF039805B05DF893
:101C3C0004FB00BF012910D009D883B90F2A0ED894
:101C4C00009900EB8202096818465160704703390D
:101C5C0001298CBF022001207047084670470220E2
:101C6C00704700BF002310B584B003AC03920094FE
:101C7C000A461946FFF7DEFF04B010BD70B54FF0F1
:101C8C00FF36D36BADF50E7D13640DF15C0E02F1D6
:101C9C00040C05460C46BCE80F00AEE80F00BCE88F
:101CAC000F00AEE80F00BCE80F00AEE80F009CE898
:101CBC000F008EE80F00169612E00C2116A86A464B
:101CCC00FFF7D0FF214616A8A84778B96946082027
:101CDC00049B16AA98470528064608D0092805D063
:101CEC0068462699FFF708FE0028E6D0092616A8B4
:101CFC00FFF74CFE30460DF50E7D70BD2DE9F04F13
:101D0C009346CA6C0D4652F8041B89B000F0030CC4
:101D1C000692002B79D002240E0C8DF81D6009045C
:101D2C00F6B2059102EB86022F6DBCF1020F08BFD3
:101D3C00AA6B17F001078DF81C400CD0584605A96A
:101D4C0000F0A0FA18B9082009B0BDE8F08F0920FE
:101D5C0009B0BDE8F08F1668002EEFD0B14664468E
:101D6C009A4600F0080101910297BAF1020F48D08F
:101D7C00B2F80090568802F10408AB6C26F0010210
:101D8C000F215846D718FFF747FF874237D829F05D
:101D9C0001023A44824294BF00220122760006F0EE
:101DAC00020309F0010943EA0903012B47D0022B76
:101DBC0031D0002BCBD114B1002A40F0CA8008F1ED
:101DCC000402D2F80090B9F1000FCED1584605A903
:101DDC00029F00F057FA0028B9D1002FB3D00F2181
:101DEC005846FFF719FF0E2102465846FFF73AFFF7
:101DFC000F215846664AFFF735FF0720A8E7002257
:101E0C00CCE7566802F10808B7E7090203240591EC
:101E1C008DF81D3088E7D8F8006026F00043002CC0
:101E2C0044D122B1019A002A5AD0002B58D0002E4E
:101E3C0001DA08F10408013308EB8302C1E7ECB9BD
:101E4C00CAB1D8F80430D8F80020991C4FEAD272E5
:101E5C003FF47DAF05F158010133049100F08C8003
:101E6C0008F10400FFF7BEFD04AB01462846AFF3B2
:101E7C000080002857D108F10802A2E70D2158462E
:101E8C00FFF7CAFE2B6A8342F5D1AB6A9845F2D1B3
:101E9C004046FFF7E1FC0F2102465846FFF7E2FEF1
:101EAC002A4600215846FFF7DDFEA6E70D215846CD
:101EBC000393FFF7B1FE2A6A039B8242B7D1AA6A49
:101ECC009045B4D100270422C5E90B724244AB62A1
:101EDC006A63D8F80020BA4256DB01220292AAE7C4
:101EEC00039400261C4608F1040905F158070DE07F
:101EFC0048460497FFF776FD0022014604AB2846BE
:101F0C00013609F10409AFF30080E8B9A642EFD11C
:101F1C000D215846FFF780FE0346049A0620C5E9BA
:101F2C0009282B6214E704460D215846FFF774FE6E
:101F3C00022CDDF81090286224D12B4643F82C9FFC
:101F4C000620C5E9093803E72346D8F80060039C4E
:101F5C006DE74046FFF780FC08F104020446AA63D3
:101F6C002846AFF3008000283FF4F1AE22460F2143
:101F7C005846FFF777FE40E7894658460D21FFF794
:101F8C004BFE28624B46DBE7581C08EB800080E7D1
:101F9C00000000000023FFF7B1BE00BF0123FFF7D4
:101FAC00ADBE00BF0223FFF7A9BE00BF2DE9F04371
:101FBC00064615461C46C3B0042900F2CD80DFE866
:101FCC0001F0AC51CB2A0300002C40F0C580102A44
:101FDC0000F2C2800368DC0600F1E38020AF3846D3
:101FEC00FEF700F9012438460023B16B04FA03F222
:101FFC002A4203F1010305D00A4652F804CB1146DC
:10200C00C0F800C0042B00F10400EFD13846B163D6
:10201C00FEF7DEF895E0032C40F09E8094B204EBC2
:10202C001243102B4FEA124500F2968003681F07EB
:10203C0000F1BF8020AF3846FEF7A8F8B26B07EB73
:10204C00C50154B10B4601EBC401D01AE4001D5874
:10205C0043F8045B8B42FAD122443846B263FEF754
:10206C0073F86EE0012C4FEA124895B26DD0052C36
:10207C0072D108EB0509B9F1200F6DD8B8F10F0F2B
:10208C006ED8B9F1100F036800F29B80D90708D500
:10209C00304623F0010343F0020340F8483BFEF7BF
:1020AC0047F820AF3846FEF743F8B36B002D00F02D
:1020BC00B5806D006A1E002507EBC801013204399A
:1020CC0003EB820253F8040B934241F8040FF9D14D
:1020DC00002D00F09D804146102938BF10216F461D
:1020EC006B001039013B07EBC1010133043902EBE2
:1020FC00830352F8040B9A4241F8040FF9D1012CD6
:10210C0000F08480B8F10F0FB26302D820A8FEF75C
:10211C000BF83846FEF710F813E0ECB9234601240F
:10212C00816B371D90B204FA03F202421CBF51F8C6
:10213C00042B47F823200133102BF4D1A80400D42E
:10214C00B163002043B0BDE8F08308EB0503102B0E
:10215C0002D8B8F1100F14D1022043B0BDE8F083BF
:10216C00002DEED003685A075CD46F463846FDF755
:10217C00E7FFB26B6B00A8F11001013B07EBC1014B
:10218C00B3E70368DA0759D420AF3846FDF7C8FF28
:10219C00B36B002D8DD104333846B363FDF7BCFF10
:1021AC00CFE723F01003036000F5E870FEF71AF890
:1021BC0014E723F00803036000F5A870FDF7E6FFB1
:1021CC0038E7D90708D523F0010343F0020340F8A0
:1021DC00483BFDF7ADFF3368580706D5304623F072
:1021EC00040340F8D03BFDF7ABFF20AF3846FDF7BA
:1021FC009FFF6846FDF7A4FFC8F110025200B36BB5
:10220C00A9F11005013A07EBC80157E720AFC2E767
:10221C00012CC0D0B8F10F0FB36392D83846FDF73C
:10222C0083FF8EE76F4623F0040340F8D03BFDF7A5
:10223C0087FF3846FDF784FFB26B9BE7304623F0EF
:10224C00030340F8483BFDF76BFF9DE7027A03461A
:10225C007AB9427AA2B14FF0030C4168013A42724A
:10226C0008680A1D5A60020283F808C0000E1A6042
:10227C0070470068013A1A7202021A60000E704729
:10228C00B02070472DE9F0434FF0000806460D468C
:10229C0085B02846FFF7DAFFB028044600F0DC8052
:1022AC00070647D500F0F003802B5FD0B02B74D01D
:1022BC001BD8902B00F09C80A02B12D1C3434FF461
:1022CC007F6203F007031A41010702F47F6201D514
:1022DC0042F48042002330461946FFF767FE00287F
:1022EC00D7D0092005B0BDE8F083C02B6ED1C6282D
:1022FC0000F09480C72800F0B48000F0F803C02BE5
:10230C0000F0C980C82800F0D480C928E9D128463B
:10231C00FFF79CFF0523044601213046220304F0FD
:10232C000F0402F470220C442243FFF73FFE0028F6
:10233C00AFD0D6E78300DBB21F1D00230DF10C09D3
:10234C0019460D223046CDF80090FFF74DFC039B4B
:10235C0060064CBFDF1BFF1800230D2230461946C8
:10236C00CDF800900397FFF765FC92E72846FFF73E
:10237C006DFF24022043B0F5004FB2D000230401BE
:10238C0019463046A2B2FFF711FE0028A9D114F469
:10239C00004F18BF4FF001087BE7B12852D0B2288C
:1023AC0000F0AC80B3286ED000F0FC03B42B98D0B6
:1023BC00012300F007021A443046194642F4002269
:1023CC00FFF7F4FD00283FF464AF8AE700F0F80350
:1023DC00D02B86D100F007020132052301213046B3
:1023EC0042F40022FFF7E2FD00283FF452AF78E7F9
:1023FC0000F00D030D2B3FF474AF002303AF19460F
:10240C0000F00F0200973046FFF7EEFB00230D2281
:10241C00304619460097FFF70DFC3AE72846FFF7C0
:10242C0015FF04460323220304F00F0402F4702268
:10243C000134304619462243FFF7B8FD00283FF41B
:10244C0028AF4EE72846FFF701FF431EDBB20E2BE9
:10245C0002467FF63FAF44E7B8F1000F3ED00020B4
:10246C0040E72846FFF7F2FE431EDBB20E2B024676
:10247C003FF637AF002304213046FFF797FD0028C5
:10248C003FF407AF2DE72846FFF7E0FE0123044693
:10249C001946304642E7032300F00F020132304662
:1024AC00194642F42022FFF781FD00283FF4F1AEDB
:1024BC0017E72846FFF7CAFE0246012102F0F00496
:1024CC0002F00F0210340A440523304642EA04326B
:1024DC00FFF76CFD00283FF4DCAE02E703AC43468B
:1024EC0041460E2230460094FFF77EFB43460F22F6
:1024FC00414630460094FFF79DFBB0E700230DF1F9
:10250C000C090D2219463046CDF80090FFF76CFBF4
:10251C002846FFF79BFE02064FF00207039C0BD5E3
:10252C0000F07F00B840044428460394FFF78EFE69
:10253C00030607F10707F3D4002300FA07F204F5AA
:10254C0001742244039230460D221946CDF80090B6
:10255C00FFF770FB9DE600BF024B0146186800F0C8
:10256C000BB800BF24040020024B0146186800F091
:10257C007DBB00BF240400202DE9F04F01F10B05B9
:10258C00162D064683B024D8102900F2BA8000F02C
:10259C00FFFA102518230220B84F3B445C68A3F1C6
:1025AC000802944200F028816368E26823F0030378
:1025BC002344A1683046CA6091605A6804F108054A
:1025CC0042F001025A6000F0E9FA284603B0BDE877
:1025DC00F08F35F0070500F19480A94200F291804C
:1025EC0000F0D6FAB5F5FC7FC0F071816B0A00F0F3
:1025FC008C80042B00F22C81AB0903F1390003F120
:10260C00380CC1009D4F39444C680839A14206D1A1
:10261C000CE0002A80F2ED80E468A14206D06368E9
:10262C0023F003035A1B0F2AF3DD6046DFF850C278
:10263C003C69644500F0C980626822F00302531BB8
:10264C000F2B00F34881002BC7E904CC80F23481B6
:10265C00B2F5007F80F0D6804FF0010ED3085209FE
:10266C0073440EFA02FE7A6857F833104EEA020EE3
:10267C0007EBC302083AC7F804E0A160E26047F830
:10268C003340CC60012283109A40724543D812EA41
:10269C000E0F07D120F00300520012EA0E0F00F1CA
:1026AC000400F9D007EBC00949468046CC68A1422A
:1026BC0007D1D9E0002B80F2EF80E468A14200F052
:1026CC00D380636823F0030EAEEB05030F2BF1DD13
:1026DC00621945F0010565603046D4E90261F1608C
:1026EC008E6043F00101C7E90422C2F808C0C2F8A9
:1026FC000CC0516044F80E3000F050FA04F108059B
:10270C0063E70C23336000255FE74FF40071402032
:10271C004FF03F0C76E7BC68636823F00309A945CA
:10272C0003D3A9EB05030F2B52DC564B08201B6877
:10273C0003F1100800F01EFA534A04EB090300934E
:10274C00136883460133A84405D008F1FF38804450
:10275C00434203EA08084146304600F083FBB0F1DF
:10276C00FF3F8246484A00F0D28004EB09038342C3
:10277C0000F2CB80454B0BF1FF3118684044844686
:10278C00186040F0F0801AEA010F40F0EC80D7F8A6
:10279C0008A0C84448F00102CAF8042054463C4B37
:1027AC001968814238BF18603A4B1968814238BFAA
:1027BC00186022F00308A845A8EB050301D30F2BE2
:1027CC0006DC304600F0EAF99DE7D7F804E059E75B
:1027DC00621943F0010345F0010565603046BA60AB
:1027EC0004F10805536000F0D9F9284603B0BDE8A0
:1027FC00F08FE2682344DCE6DC68A3427FF4D4AEBD
:10280C00023013E7B2F5206F4FEA522377D3142B23
:10281C0000F20D8103F15C01C9005B3307EB010889
:10282C007958A8F10808884503D1E4E089688845FF
:10283C0004D04B6823F003039342F7D8D1F80C80F3
:10284C00D7F804E0C4E90218C8F80840CC6019E7CE
:10285C00142B5FD9542B00F2F2802B0B03F16F0079
:10286C0003F16E0CC100CDE608F1010818F0030F5E
:10287C0001F108017FF41AAF57E000BF18000020E7
:10288C0020000020EC0500200C000020BC050020DE
:10289C00E8050020E4050020254604EB0E035A68E9
:1028AC00E16842F001025A6055F8083F3046D960A1
:1028BC008B6000F073F988E622445368304643F08D
:1028CC000103536000F06AF904F108057DE6E8089D
:1028DC0005F1080360E6611945F00105656043F0F8
:1028EC000105C7E9041130464D60C1F808C0C1F8B4
:1028FC000CC0A35000F052F904F1080565E69309E9
:10290C0003F13901C900383388E7BC4223D0BC68D5
:10291C0062684EE703F15C0003F15B0CC10071E6E9
:10292C0059F808394B4540F0D68010F0030F00F1F0
:10293C00FF30F5D17B6823EA02037B6052009A4298
:10294C003FF6E9AE1AB9E6E6520008F104081A425D
:10295C00FAD04046A6E6614B0BF1FF31186808EB44
:10296C00000CC3F800C01068013072D004EB0902EF
:10297C00AAEB020262441A601AF00702CDE90023A6
:10298C0044D0C2F108029244D04408EA01005A44EF
:10299C00121A02EA010B5946304600F063FA421C47
:1029AC00019B71D0A0EB0A0000EB0B08186848F0F3
:1029BC0001025844BC42C7F808A01860CAF80420A9
:1029CC003FF4ECAEB9F10F0F46D94FF0050C61682E
:1029DC00A9F10C0222F0070201F001011143616020
:1029EC000F2A04EB0201C1F804C0C1F808C053D887
:1029FC00DAF80420D2E64FF0010E9B100EFA03FE1B
:102A0C007B684EEA030EC7F804E01BE70AEB0802EA
:102A1C000A40ABEB020202EA010B5946304600F0C9
:102A2C0021FA431C019BBDD1DDF800B0BEE7542B4D
:102A3C0016D8130B03F16F01C9006E33EEE6B3F534
:102A4C00AA7F16D8EB0B03F1780003F1770CC100C9
:102A5C00D8E5C2F800A08FE70123CAF80430B0E62D
:102A6C00B3F5AA7F23D8D30B03F17801C9007733D0
:102A7C00D4E640F25452934223D8AB0C03F17D00C0
:102A8C0003F17C0CC100BDE5009A4FF0000B083A35
:102A9C009044A8EB0A0889E7304604F1080100933A
:102AAC0000F0E4F8009BD7F808A01868A0E740F203
:102ABC0054518B420BD8930C03F17D01C9007C332C
:102ACC00ACE64FF47E717F204FF07E0C9AE54FF40C
:102ADC007E717E23A2E67B6830E700BFBC05002038
:102AEC00024B13B1024800F05FB8704700000000C1
:102AFC00512B000870B50F4B0F4DAB42A3EB0506E5
:102B0C0007D00024B61055F8043B01349847A64270
:102B1C00F9D800F011FA094D094B5E1BAB424FEA94
:102B2C00A60606D0002455F8043B01349847A6426B
:102B3C00F9D870BDA8300008A8300008A8300008EB
:102B4C00B430000838B5074D074C2C1BA41005D029
:102B5C00013C55F8043D9847002CF9D1BDE83840AC
:102B6C0000F0F0B9B8300008B4300008704700BF6E
:102B7C00704700BF082802D14FF48050704708B549
:102B8C0000F082F9162203464FF0FF301A6008BDA0
:102B9C000148FFF7EBBF00BFF40500200148FFF729
:102BAC00E7BF00BFF4050020002301461A46184673
:102BBC0000F070B92DE9F843064608208946FFF766
:102BCC00D9FF0546DFF898803046FFF7E1FFD8F8CB
:102BDC0008305F6827F00307A7F11104A4EB090480
:102BEC002C44B4FBF5F4013C05FB04F4A54208DCD1
:102BFC000021304600F036F9D8F808303B449842B2
:102C0C0005D03046FFF7CAFF0020BDE8F8833046F8
:102C1C00614200F027F901300FD0124AD8F8083081
:102C2C003F1B47F001075F60136830461B1B1360A6
:102C3C00FFF7B4FF0120BDE8F8830021304600F017
:102C4C0011F9D8F80820831A0F2BDADD43F00103B1
:102C5C005360054B03491B68C01A0860D1E700BFDD
:102C6C0018000020BC0500200C00002000297BD09F
:102C7C00F8B50C460646FFF78BFF54F8042C764F3C
:102C8C00A4F1080522F001016818D7F808C04368C0
:102C9C00844523F0030300F08480D207436034D4CE
:102CAC0054F8082C07F10804AD1A1144AA68A24282
:102CBC0069D000EB030CDCF804E0D5F80CC01EF076
:102CCC00010FC2F80CC0CCF8082000F0838041F052
:102CDC0001036B600160B1F5007F22D20122CB08A9
:102CEC0049098A40796801330A437A6057F83310EE
:102CFC0007EBC302083AC5E9021247F83350CD601E
:102D0C003046BDE8F840FFF749BFC2185268D207F9
:102D1C002BD541F00103B1F5007F44F8043C016070
:102D2C00DCD3B1F5206F4FEA512355D28B0903F157
:102D3C00390003F13802C300F818FB5808389842E0
:102D4C0003D163E09B68984204D05A6822F00302D6
:102D5C008A42F7D8D868C5E9023085603046DD6014
:102D6C00BDE8F840FFF71ABF7047194407F1080493
:102D7C008368A34241D0C268DA60936041F00103DA
:102D8C006B606950A7E7C2185268D4075FD40B4434
:102D9C00D0E90212CA60916043F001026A60EB5004
:102DAC00AEE70B44D10707D454F8082CAD1A1344E2
:102DBC00D5E90212CA60916043F001026A60274AA9
:102DCC00BD6012689A429BD8254B30461968FFF7B4
:102DDC00F1FE95E71944CBE7142B08D9542B1DD8D9
:102DEC000B0B03F16F0003F16E02C300A4E703F1B8
:102DFC005C0003F15B02C3009EE741F001033D61FF
:102E0C007D61AC60EC606B60695079E701219210D8
:102E1C0001FA02F279680A437A609CE7B3F5AA7F5B
:102E2C0006D8CB0B03F1780003F17702C30083E7DC
:102E3C0040F25452934206D88B0C03F17D0003F1FF
:102E4C007C02C30078E74FF47E737E2274E741F076
:102E5C0001036B60016053E7180000201000002094
:102E6C00EC050020002238B5064D044608462A60C1
:102E7C0000F054F8431C00D038BD2B68002BFBD05D
:102E8C00236038BDC4080020014B1868704700BF90
:102E9C00240400202DE9F047DFF874A00646DAF888
:102EAC00000098460F469146FFF760FE194B1C68D0
:102EBC0024B365681F2D24DC5EB96B1C0235DAF86F
:102ECC000000636044F82570FFF752FE0020BDE857
:102EDC00F087012304EB8501C1F88890D4F8882190
:102EEC00AB401A43022EC4F88821C1F80881E4D102
:102EFC00D4F88C211A43C4F88C21DEE7064C1C60F4
:102F0C00D7E7DAF80000FFF733FE4FF0FF30DEE7CB
:102F1C0020040020F005002034070020044A054955
:102F2C001368002B08BF0B461844106018467047F6
:102F3C00C8080020D0080020F8B500BFF8BC08BCB9
:102F4C009E467047F8B500BFF8BC08BC9E4670475B
:102F5C00000000000000000001020304060708093D
:102F6C0005970181B0B0088400000000039701812F
:102F7C00B0B008840000000003970181B0B0088451
:102F8C000000000005970181B0B00884000000002B
:102F9C0009970181B0B008840000000007970181F7
:102FAC00B0B008840000000006970181B0B009841D
:042FBC000000000011
:102FC00070D4FF7F01000000F0D4FF7FA0FFFF7FDF
:102FD00018D6FF7FA4FFFF7F84D6FF7FA8FFFF7F67
:102FE000C0D6FF7F0100000064D8FF7FA4FFFF7FF1
:102FF000C4D8FF7F0100000084D9FF7FA0FFFF7FBE
:103000000CDAFF7F01000000ACE2FF7F9CFFFF7F36
:10301000F4E3FF7FA0FFFF7F88E4FF7FAB0C978086
:1030200034E6FF7F01000000DCE8FF7FB0A90280EA
:1030300068E9FF7FB0B0A880B8E9FF7F0100000019
:10304000C0E9FF7FB0B0AA80F4E9FF7FAE71B28023
:10305000CCEAFF7FAB3F38802CEBFF7F0100000004
:103060003CEBFF7FB0B0AA8074EBFF7F0100000053
:1030700018ECFF7FAA0DB28090ECFF7FB0AF088004
:1030800020EFFF7F0100000030EFFF7FAD3F0280A7
:10309000C8F1FF7F01000000F8F1FF7FB0AD0480B0
:0830A000C4F4FF7F01000000F1
:0C30A800ED2A00080D040008A516000821
:0430B400E503000828
:1030B800640000000024F40001000000FFFFFFFF8F
:1030C80000000200000000000000000000000000F6
:1030D80018000020180000202000002020000020F8
:1030E80028000020280000203000002030000020A8
:1030F8003800002038000020400000204000002058
:103108004800002048000020500000205000002007
:1031180058000020580000206000002060000020B7
:103128006800002068000020700000207000002067
:103138007800002078000020800000208000002017
:1031480088000020880000209000002090000020C7
:103158009800002098000020A0000020A000002077
:10316800A8000020A8000020B0000020B000002027
:10317800B8000020B8000020C0000020C0000020D7
:10318800C8000020C8000020D0000020D000002087
:10319800D8000020D8000020E0000020E000002037
:1031A800E8000020E8000020F0000020F0000020E7
:1031B800F8000020F8000020000100200001002095
:1031C8000801002008010020100100201001002043
:1031D80018010020180100202001002020010020F3
:1031E80028010020280100203001002030010020A3
:1031F8003801002038010020400100204001002053
:103208004801002048010020500100205001002002
:1032180058010020580100206001002060010020B2
:103228006801002068010020700100207001002062
:103238007801002078010020800100208001002012
:1032480088010020880100209001002090010020C2
:103258009801002098010020A0010020A001002072
:10326800A8010020A8010020B0010020B001002022
:10327800B8010020B8010020C0010020C0010020D2
:10328800C8010020C8010020D0010020D001002082
:10329800D8010020D8010020E0010020E001002032
:1032A800E8010020E8010020F0010020F0010020E2
:1032B800F8010020F8010020000200200002002090
:1032C800080200200802002010020020100200203E
:1032D80018020020180200202002002020020020EE
:1032E800280200202802002030020020300200209E
:1032F800380200203802002040020020400200204E
:1033080048020020480200205002002050020020FD
:1033180058020020580200206002002060020020AD
:10332800680200206802002070020020700200205D
:10333800780200207802002080020020800200200D
:1033480088020020880200209002002090020020BD
:103358009802002098020020A0020020A00200206D
:10336800A8020020A8020020B0020020B00200201D
:10337800B8020020B8020020C0020020C0020020CD
:10338800C8020020C8020020D0020020D00200207D
:10339800D8020020D8020020E0020020E00200202D
:1033A800E8020020E8020020F0020020F0020020DD
:1033B800F8020020F802002000030020000300208B
:1033C8000803002008030020100300201003002039
:1033D80018030020180300202003002020030020E9
:1033E8002803002028030020300300203003002099
:1033F8003803002038030020400300204003002049
:1034080048030020480300205003002050030020F8
:1034180058030020580300206003002060030020A8
:103428006803002068030020700300207003002058
:103438007803002078030020800300208003002008
:1034480088030020880300209003002090030020B8
:103458009803002098030020A0030020A003002068
:10346800A8030020A8030020B0030020B003002018
:10347800B8030020B8030020C0030020C0030020C8
:10348800C8030020C8030020D0030020D003002078
:10349800D8030020D8030020E0030020E003002028
:1034A800E8030020E8030020F0030020F0030020D8
:1034B800F8030020F8030020000400200004002086
:1034C8000804002008040020100400201004002034
:1034D800F80500202804002000000000FC0500205A
:1034E80064060020CC060020000000000000000058
:1034F80000000000000000000000000000000000C4
:1035080000000000000000000000000000000000B3
:1035180000000000000000000000000000000000A3
:103528000000000000000000000000000000000093
:103538000000000000000000000000000000000083
:103548000000000000000000000000000000000073
:103558000000000000000000000000000000000063
:103568000000000000000000000000000000000053
:1035780001000000000000000E33CDAB34126DE6F0
:10358800ECDE05000B000000000000000000000059
:103598000000000000000000000000000000000023
:1035A8000000000000000000000000000000000013
:1035B8000000000000000000000000000000000003
:1035C80000000000000000000000000000000000F3
:1035D80000000000000000000000000000000000E3
:1035E80000000000000000000000000000000000D3
:0835F8000000000000000000CB
:0400000508001819BE
:00000001FF
