:020000040800F2
:100000000050002079110008151000081B1000088E
:1000100021100008271000082D1000080000000023
:100020000000000000000000000000003310000885
:100030003F100008000000004B1000085710000897
:10004000C1110008C1110008C1110008C111000848
:10005000C1110008C1110008C1110008C111000838
:10006000C1110008C1110008C1110008C111000828
:10007000C1110008C1110008C1110008C111000818
:10008000C1110008C1110008C1110008C111000808
:10009000A10E0008C1110008C1110008C11100081B
:1000A000C1110008C1110008C1110008C1110008E8
:1000B000C1110008C1110008C1110008C1110008D8
:1000C000C1110008C1110008C1110008C1110008C8
:1000D000C1110008C1110008C1110008C1110008B8
:1000E000C1110008C1110008C11100080000000082
:1000F0000000000000000000000000000000000000
:0C01000000000000000000005FF808F1A3
:10010C0000F1340191E838009C46A6464CF8045D99
:10011C0090E8FF0FE54600BD90EC210B704700BF47
:10012C0080EC210B704700BF90EC200B704700BF98
:10013C0080EC200B704700BFD0EC200B704700BF49
:10014C00C0EC200B704700BFF0EC0201F0EC021188
:10015C00F0EC0221F0EC0231F0EC0241F0EC025137
:10016C00F0EC0261F0EC0271F0EC0281F0EC029127
:10017C00F0EC02A1F0EC02B1F0EC02C1F0EC02D117
:10018C00F0EC02E1F0EC02F1704700BFE0EC020190
:10019C00E0EC0211E0EC0221E0EC0231E0EC024177
:1001AC00E0EC0251E0EC0261E0EC0271E0EC028167
:1001BC00E0EC0291E0EC02A1E0EC02B1E0EC02C157
:1001CC00E0EC02D1E0EC02E1E0EC02F1704700BFA0
:1001DC00B0FC0181B0FC0191B0FC01A1B0FC01B1FB
:1001EC00704700BFA0FC0181A0FC0191A0FC01A103
:1001FC00A0FC01B1704700BFEC4600B52DE90050E2
:10020C002DE9FF1F4FF000032DE90C0001A901F0AF
:10021C002FF9DDF840E012B0704700BFEC4600B596
:10022C002DE900502DE9FF1F4FF000032DE90C00C4
:10023C0001A901F05DF9DDF840E012B0704700BF94
:10024C00EC4600B52DE900502DE9FF1F4FF00003DF
:10025C002DE90C0001A901F06BF9DDF840E012B0BA
:10026C00704700BFEC4600B52DE900502DE9FF1F8B
:10027C004FF000032DE90C0001AB01F02DF9DDF876
:10028C0040E012B0704700BFEC4600B52DE90050BD
:10029C002DE9FF1F4FF000032DE90C0001AA01F01E
:1002AC009DF9DDF840E012B0704700BF844641EA8A
:1002BC00000313F0030349D1403A23D30B680360C6
:1002CC004B6843608B688360CB68C3600B690361C8
:1002DC004B6943618B698361CB69C3610B6A0362B0
:1002EC004B6A43628B6A8362CB6AC3620B6B036398
:1002FC004B6B43638B6B8363CB6BC363403040317D
:10030C00403ADBD230320BD30B6803604B6843604E
:10031C008B688360CB68C36010301031103AF3D215
:10032C000C3205D351F8043B40F8043B043AF9D2A3
:10033C00043208D0D2071CBF11F8013B00F8013B76
:10034C0001D30B8803806046704700BF082A13D383
:10035C008B07B1D010F00303AED0C3F10403D21A53
:10036C00DB071CBF11F8013B00F8013BA4D331F8AB
:10037C00023B20F8023B9FE7043AD9D3013A11F82B
:10038C00013B00F8013BF9D20B7803704B784370BA
:10039C008B788370604670470348044B834202D0CD
:1003AC00034B03B1184770470C0000200C000020D1
:1003BC00000000000548064B1B1AD90F01EBA301E6
:1003CC00491002D0034B03B1184770470C000020B2
:1003DC000C0000200000000010B5064C237843B937
:1003EC00FFF7DAFF044B13B10448AFF3008001238D
:1003FC00237010BD0C00002000000000EC1F000852
:10040C0008B5054B1BB105490548AFF30080BDE8A5
:10041C000840FFF7CFBF00BF000000001000002015
:10042C00EC1F000880B485B000AFF8603B1D83E87A
:10043C000600094B9B68084A23F4E0639360064B63
:10044C009A68BB791B02044913438B6000BF1437B5
:10045C00BD4680BC704700BF0010024080B485B020
:10046C0000AFF8603B1D83E8060000BF1437BD46A3
:10047C0080BC704780B586B000AFF860384680E825
:10048C000E002C4B1B682B4A43F00103136000BF7A
:10049C00284B1B6803F00203002B0CBF0123002325
:1004AC00DBB2002BF4D13B7A002B3ED0214B5B68A6
:1004BC00204A23F4701353601E4B5A68FB789B043C
:1004CC001C4913434B601B4B5B681A4A23F0030314
:1004DC005360184B5B687A791146164A0B4353608C
:1004EC00144B5B68134A23F480335360114B5A68E6
:1004FC003B791B040F4913434B600E4B1B680D4A91
:10050C0043F0807313600B4907F11000FF234FF089
:10051C00007200F077F80346FB75FB7D012B04D1CC
:10052C0007F11403184600F0EFF800BF1837BD466A
:10053C0080BD00BF0010024080B584B000AFF860F1
:10054C00384680E80E003B4693E80600F868FFF753
:10055C0069FF3B4693E80600F868FFF77FFF3B46D0
:10056C000ECBF868FFF786FF00BF1037BD4680BD85
:10057C0080B483B000AF78600B4BDB690A4A43F060
:10058C000403D361094B23229A62084B40F2E732F1
:10059C00DA62064B1B68054A43F00103136000BF87
:1005AC000C37BD4680BC704700100240000800406C
:1005BC0080B485B000AF786039600023FB8114E013
:1005CC000F4B1B690E4A23F00103136100BF0C4B48
:1005DC001B6903F00103002B0CBF01230023DBB2CA
:1005EC00002BF4D1FB890133FB81FB893A689A42D9
:1005FC00E6D800BF00BF1437BD4680BC704700BFB3
:10060C000008004080B487B000AFF860B9607A6031
:10061C003B6000237B610FE0BB681A687B6813406A
:10062C00002B14BF01230023DBB2002B01D00023CD
:10063C000CE07B6901337B613B687A699A4234BF79
:10064C0001230023DBB2002BE6D1012318461C3713
:10065C00BD4680BC7047000080B582B000AF7860AA
:10066C000C4B9B690B4A43F0100393610A4B5B687C
:10067C00094A43F440135360074B5B68064A23F462
:10068C0040035360786800F01BF800BF0837BD4684
:10069C0080BD00BF001002400010014080B483B048
:1006AC0000AF7860054BDB68044A23F40053D36039
:1006BC0000BF0C37BD4680BC704700BF0010014026
:1006CC0080B483B000AF7860054BDB68044A43F418
:1006DC000053D36000BF0C37BD4680BC704700BFD1
:1006EC000010014080B483B000AF7860054BDB682C
:1006FC00044A83F40053D36000BF0C37BD4680BC62
:10070C00704700BF0010014080B586B000AF786024
:10071C007868FFF7C3FF07F108034FF4967118468A
:10072C00FFF746FF7868FFF7CBFF07F10C034FF498
:10073C0096711846FFF73CFF7868FFF7AFFF07F19B
:10074C0010034FF496711846FFF732FF7868FFF7E5
:10075C00B7FF07F114034FF47A711846FFF728FF1F
:10076C00D6E7000080B483B000AF0346FB7197F965
:10077C000730002B0BDBFB7903F01F02064997F9BE
:10078C0007305B09012000FA02F241F8232000BF78
:10079C000C37BD4680BC704700E100E080B483B0EC
:1007AC0000AF78600B4B5B680A4A23F440435360FC
:1007BC00084B5B68074A43F400435360054B5B6886
:1007CC00044A43F44053536000BF0C37BD4680BC11
:1007DC00704700BF0008014080B483B000AF786060
:1007EC000B4B5B680A4A23F440235360084B5B684D
:1007FC00074A43F400235360054B5B68044A43F4F7
:10080C004033536000BF0C37BD4680BC704700BFFF
:10081C000008014080B582B000AF78607868FFF7BF
:10082C00DBFF7868FFF7BAFF00BF0837BD4680BD15
:10083C0084B080B483B000AF786007F1140080E816
:10084C000E002B4BDB692A4A23F08043D361284BE3
:10085C00DA69FB699B0726491343CB61244BDB699F
:10086C00234A23F00043D361214BDA6997F82130F6
:10087C00DB071F491343CB611D4BDB691C4A23F477
:10088C007F7323F00303D361194BDB6997F82020A6
:10089C00013A1146164A0B43D361154BDB69144AD6
:1008AC0023F47023D361124BDB693A7D013A1204B5
:1008BC0011460F4A0B43D3610D4BDB690C4A23F4F1
:1008CC00E003D3610A4BDB697A7D013A12051146CC
:1008DC00074A0B43D361064BDA69BB691B06044913
:1008EC001343CB6100BF0C37BD4680BC04B07047CE
:1008FC000064004080B483B000AF786039601B4B5B
:10090C00D3F88031194A23F00203C2F88031174B17
:10091C00D3F88031154A23F00403C2F88031134B0D
:10092C00D3F88031114AC3F31403C2F880310F4B52
:10093C00D3F880213B885B050C491343C1F8803107
:10094C000A4BD3F88431094A23F00F03C2F88431DF
:10095C00064BD3F88431BA781146044A0B43C2F8DB
:10096C00843100BF0C37BD4680BC7047006400402A
:10097C0080B485B000AFF8603B1D83E80600244BC3
:10098C00D3F8B031224A23F00403C2F8B031204B23
:10099C00D3F8B0217B7A9B001D491343C1F8B031C9
:1009AC001B4BD3F8B0311A4A23F00203C2F8B03112
:1009BC00174BD3F8B0213B7A5B0015491343C1F8B0
:1009CC00B031134BD3F8B431114A23F47F43C2F83E
:1009DC00B4310F4BD3F8B421BB881B020C49134321
:1009EC00C1F8B4310A4BD3F8B431094A23F00F03E0
:1009FC00C2F8B431064BD3F8B431FA791146044A33
:100A0C000B43C2F8B43100BF1437BD4680BC7047ED
:100A1C000064004080B485B000AFF8603B1D83E8F3
:100A2C000600364BD3F80032344A43F00103C2F8C7
:100A3C000032324BD3F80432304A23F00103C2F8AF
:100A4C0004322E4BD3F80432FA791146BA7901FAF2
:100A5C0002F21146294A0B43C2F80432274BD3F851
:100A6C000C32264A23F00103C2F80C32234BD3F884
:100A7C000C323A7A1146BA7901FA02F211461F4A3F
:100A8C000B43C2F80C323A791C4BC3F840227A79EA
:100A9C001A4BC3F84422194BD3F81432BA791146C5
:100AAC0001228A40D2431146144A0B40C2F8143238
:100ABC00124BD3F814327A7A1146BA7901FA02F24F
:100ACC0011460E4A0B43C2F814320C4BD3F80032C9
:100ADC000A4A23F00103C2F80032084BD3F81C3247
:100AEC00BA79114601228A401146044A0B43C2F8D6
:100AFC001C3200BF1437BD4680BC704700640040F8
:100B0C0080B582B000AF78600A4B5B69094A43F04C
:100B1C0002035361074B5B69064A43F004035361BC
:100B2C001420FFF71FFE1320FFF71CFE00BF083731
:100B3C00BD4680BD0064004084B080B584B002AF77
:100B4C00786007F1140080E80E00244B1B68234AE0
:100B5C0043F00103136000BF204B5B6803F00103FB
:100B6C00002B0CBF01230023DBB2002BF4D11B4B59
:100B7C001B681A4A43F010031360184B1B68174A82
:100B8C0043F020031360FB6A009307F120030ECBA4
:100B9C007868FFF74DFE79697868FFF7ABFE07F1CF
:100BAC00180393E806007868FFF7E2FE07F13003BC
:100BBC0093E806007868FFF72DFF7868FFF7A0FF31
:100BCC00064B1B68054A23F00103136000BF08376E
:100BDC00BD46BDE8804004B0704700BF00640040D3
:100BEC0080B483B000AF78607B6818460C37BD4684
:100BFC0080BC704784B0B0B588B006AF786007F1A0
:100C0C001C0080E80E00124BDB69114A43F00073A4
:100C1C00D3610F4B9B690E4A43F0040393617868D0
:100C2C00FFF7F8FD6D4607F128040FCC0FC594E8CB
:100C3C00030085E8030007F11C030ECB7868FFF76F
:100C4C007BFF00BF0837BD46BDE8B04004B070471D
:100C5C000010024080B487B000AFF860B9603B6010
:100C6C001346FB710023FB8200237B7508E0FB8A93
:100C7C000133FB82FB8AB3F5704F01D30123A1E052
:100C8C00534B9B6803F08063002B0CBF01230023A4
:100C9C00DBB2002BEBD10023FB824D4B0022C3F8BF
:100CAC0088214B4B0022C3F88C216CE0BB781A4690
:100CBC00FB8A9A4233DC464BD3F88031444A43F0EA
:100CCC000103C2F88031FB8ADBB2FA79D31AFB71CB
:100CDC007B7D01337B7508E0FB8A0133FB82FB8A49
:100CEC00B3F5704F01D301236CE0394B9B6803F0D3
:100CFC008063002B0CBF01230023DBB2002BEBD154
:100D0C00334B9B6803F00203002B0023FB82304B18
:100D1C000022C3F888212E4B0022C3F88C21FB8AB9
:100D2C00032B16D82A4BD3F88821F98A7B7DB87807
:100D3C0000FB03F30B441946BB680B441B781946A4
:100D4C00FB8ADB0001FA03F321491343C1F8883114
:100D5C0016E01F4BD3F88C21F98A7B7DB87800FB09
:100D6C0003F30B441946BB680B441B781946FB8AEA
:100D7C00043BDB0001FA03F315491343C1F88C3132
:100D8C00FB8A0133FB82FB799BB2FA8A9A428DD3A0
:100D9C000F4BD3F880310E4A43F00103C2F8803177
:100DAC000B4B9B691B09DBB203F007033B75084B2C
:100DBC009B68DBB25B00FB74FB7C002B01D0002337
:100DCC0000E03B7D18461C37BD4680BC704700BF19
:100DDC000064004080B48BB000AFF8603B1D83E82A
:100DEC0006002B4BD3F8BC313B62294BD3F8B831FE
:100DFC00FB61274BDB68FB7600233B6100237B61A7
:100E0C00002387F827302FE097F82730032B17D8CB
:100E1C0097F82730FA7902FB03F3FA6922FA03F305
:100E2C00BB7697F82730FA7902FB03F3FA69DA40BC
:100E3C0097F82730D2B228333B4403F8182C0EE035
:100E4C0097F82730FA7902FB03F3203B3A6ADA4031
:100E5C0097F82730D2B228333B4403F8182C97F874
:100E6C002730013387F82730FB7997F827209A42EF
:100E7C00CAD3074BDB68064A43F02003D360044B0C
:100E8C00DB68FB7600BF2C37BD4680BC704700BFCB
:100E9C000064004080B582B000AF3B461846FFF7B7
:100EAC009FFE074B3846043393E80600FFF792FF8A
:100EBC003B1D1846FFF716FC00BF0837BD4680BD2A
:100ECC0028000020F0B593B006AF0023BB770123B8
:100EDC00FB77012387F82030002387F8213000238B
:100EEC0087F8223002237B770723FB7600233B779E
:100EFC000023BB7600233B7600237B7607F114009E
:100F0C0007F118030ECBFFF717FB07F12403184664
:100F1C00FFF72EFB07F110031846FFF79DFB07F1B7
:100F2C0010031846FFF7BAFB00F09CF8334B1B6814
:100F3C00FB60334B12221A76314B0D221A73304B55
:100F4C0002225A732E4B01221A612D4B01225A6137
:100F5C002B4B00225A762A4B00221A80284B08224F
:100F6C009A70274B00229A80254B0822DA71244B69
:100F7C0000221A77224B00225A77214B012283F848
:100F8C0020201F4B0122DA771D4B00229A7707F1A4
:100F9C0008031846FFF724FE194E07F1080C6D469E
:100FAC0006F10C040FCC0FC594E8030085E8030090
:100FBC0096E80E006046FFF71DFE002387F82F30E1
:100FCC00104A3B1D1268114619800233120C1A701C
:100FDC0000237B800A4B391D07F108001B68032294
:100FEC00FFF738FE07F12803C8211846FFF7E0FA8F
:100FFC0007F12C031846FFF775FBEBE70000002008
:10100C00280000200420000880B400AFFEE780B464
:10101C0000AFFEE780B400AFFEE780B400AFFEE7A0
:10102C0080B400AFFEE780B400AF00BFBD4680BC0B
:10103C00704780B400AF00BFBD4680BC704780B421
:10104C0000AF00BFBD4680BC704780B500AF00F05C
:10105C007BF800BF80BD80B400AF00BFBD4680BC34
:10106C007047000080B485B000AF0023FB60002304
:10107C00BB6000237B602F4B5B6803F00C03FB60B1
:10108C00FB68082B11D0FB68082B3AD8FB68002BA7
:10109C0003D0FB68042B04D033E0274B274A1A609B
:1010AC0033E0254B254A1A602FE0224B5B6803F492
:1010BC007013BB601F4B5B6803F480337B60BB68B1
:1010CC009B0C0233BB607B68002B06D1BB681C4AAF
:1010DC0002FB03F3184A136017E0164B5B6803F42A
:1010EC000033002B06D0BB68154A02FB03F3124AEF
:1010FC0013600AE0BB68114A02FB03F30E4A13604B
:10110C0003E00D4B0D4A1A6000BF0A4B5B681B09CC
:10111C0003F00F030B4AD35CFB60074B1A68FB68A8
:10112C0022FA03F3044A136000BF1437BD4680BC97
:10113C00704700BF001002400000002000127A002F
:10114C0000093D000820000880B400AF054B1B7857
:10115C001A46054B1B681344034A136000BFBD4677
:10116C0080BC7047040000204C000020FFF773FF88
:10117C000B480C490C4A002302E0D458C4500433E9
:10118C00C4188C42F9D3094A094C002301E01360BE
:10119C000432A242FBD300F099FEFFF793FE704796
:1011AC00000000200C0000201C2100080C00002076
:1011BC00E8010020FEE7000003685A004CBF43F032
:1011CC00004323F000431844704700BF2DE9F84357
:1011DC0041B301F1FF380546164647460024E11994
:1011EC0001EBD171491005EBC1094846FFF7E4FF4B
:1011FC00884503464FEAC1020ED002F10800B34203
:10120C0028440BD8FFF7D8FF0138B04201F1010494
:10121C00E5D34846BDE8F883B042FAD98C4201D0F8
:10122C004F1EDCE74FF000094846BDE8F88300BFCD
:10123C00012807D0022807D0044B00280CBF184601
:10124C000020704702487047024870470119000897
:10125C00091900081119000830B5214B044683B058
:10126C008D1E13B3284601A9AFF3008088B30199F2
:10127C002A46FFF7ABFF014658B3FFF79DFF4B68BB
:10128C00A064012B28D0002B20DB081DFFF794FF56
:10129C00002323650368E064002B0DDBFFF78CFF54
:1012AC0003460020236103B030BD0E4B0E49184697
:1012BC00C91AC9100191DBE7C3F30360FFF7B8FF4C
:1012CC00034630B10020236103B030BD0123081D5B
:1012DC00DFE700230920E5E700230520E2E700BF54
:1012EC00000000004820000810210008036810B519
:1012FC00DA07044606D49B0700F1480009D5FEF72F
:10130C0013FF2368590709D51A070ED5DB0613D529
:10131C0010BDFEF701FF23685907F5D404F1D00086
:10132C00FEF70AFF23681A07F0D404F5A870FEF73D
:10133C000BFF2368DB06EBD404F5E870BDE8104026
:10134C00FEF746BF0346006800B11844704700BF63
:10135C00704700BF70B504460E462046316CFFF74F
:10136C007BFF054698B9D6F840C03246214601208D
:10137C002369C4F814C098470828EED0072806D172
:10138C002846316CFFF7E4FF301DFEF7B9FEFFDE97
:10139C002DE9F0474FF0000AADF5727D0DF10C0E02
:1013AC0001F1040CC768D0F8188006461446BCE856
:1013BC000F00AEE80F00BCE80F00AEE80F00BCE871
:1013CC000F00AEE80F009CE80F0002AD8EE80F0096
:1013DC00C5F800A021E02B6C4FF4F0722946736124
:1013EC007AA8FEF763FF3146504633697AAA9847CC
:1013FC00889C82466C643346324649460120CDE9CE
:10140C000058B847044630BB4FF4F07228467AA90E
:10141C00FEF74CFFBAF1080F1AD13046296CFFF7D2
:10142C001BFF04F109095FFA89FA04460028D2D09F
:10143C00A96B3346696432460120CDE900584AF065
:10144C001001B84738B920460DF5727DBDE8F0871C
:10145C00BAF1070F05D0092420460DF5727DBDE8C1
:10146C00F0872046296CFFF773FF03A8FEF748FEB0
:10147C00F0B54FF0FF37CB6BF9B00B6401AC01F159
:10148C00040C0E460546BCE80F000FC4BCE80F0068
:10149C000FC4BCE80F000FC49CE80F0084E80F00D9
:1014AC00009706E06A4629462B69984708280446A7
:1014BC0008D128461099FFF7CFFE0028F2D009205A
:1014CC0079B0F0BD6846FFF711FF062CF7D1314615
:1014DC002846FFF73FFF00BF10B414468461DC6B55
:1014EC00C16000221C64194610BCFFF751BF00BF3D
:1014FC0070B54369C6680B64AEB90A460369044605
:10150C000D46014602209847072805D008280ED121
:10151C0029462046FFF71EFF3046296CFFF718FFBF
:10152C00281DFEF7EDFD0122FFF732FFFFDEFFDE87
:10153C00C26832B1D1F83CC00022C1F840C0FFF7FC
:10154C0027BFFFF795BF00BF012910D009D883B979
:10155C000F2A0ED800EB820252681846009B1A60C4
:10156C007047033901298CBF0220012070470846BF
:10157C0070470220704700BF002300B585B00A46B3
:10158C0003A900911946FFF7DFFF039805B05DF83A
:10159C0004FB00BF012910D009D883B90F2A0ED83B
:1015AC00009900EB820209681846516070470339B4
:1015BC0001298CBF02200120704708467047022089
:1015CC00704700BF002310B584B003AC03920094A5
:1015DC000A461946FFF7DEFF04B010BD70B54FF098
:1015EC00FF36D36BADF50E7D13640DF15C0E02F17D
:1015FC00040C05460C46BCE80F00AEE80F00BCE836
:10160C000F00AEE80F00BCE80F00AEE80F009CE83E
:10161C000F008EE80F00169612E00C2116A86A46F1
:10162C00FFF7D0FF214616A8A84778B969460820CD
:10163C00049B16AA98470528064608D0092805D009
:10164C0068462699FFF708FE0028E6D0092616A85A
:10165C00FFF74CFE30460DF50E7D70BD2DE9F04FB9
:10166C009346CA6C0D4652F8041B89B000F0030C6B
:10167C000692002B79D002240E0C8DF81D60090403
:10168C00F6B2059102EB86022F6DBCF1020F08BF7A
:10169C00AA6B17F001078DF81C400CD0584605A911
:1016AC0000F0A0FA18B9082009B0BDE8F08F0920A5
:1016BC0009B0BDE8F08F1668002EEFD0B146644635
:1016CC009A4600F0080101910297BAF1020F48D036
:1016DC00B2F80090568802F10408AB6C26F00102B7
:1016EC000F215846D718FFF747FF874237D829F004
:1016FC0001023A44824294BF00220122760006F095
:10170C00020309F0010943EA0903012B47D0022B1C
:10171C0031D0002BCBD114B1002A40F0CA8008F193
:10172C000402D2F80090B9F1000FCED1584605A9A9
:10173C00029F00F057FA0028B9D1002FB3D00F2127
:10174C005846FFF719FF0E2102465846FFF73AFF9D
:10175C000F215846664AFFF735FF0720A8E70022FD
:10176C00CCE7566802F10808B7E709020324059193
:10177C008DF81D3088E7D8F8006026F00043002C67
:10178C0044D122B1019A002A5AD0002B58D0002EF5
:10179C0001DA08F10408013308EB8302C1E7ECB964
:1017AC00CAB1D8F80430D8F80020991C4FEAD2728C
:1017BC003FF47DAF05F158010133049100F08C80AA
:1017CC0008F10400FFF7BEFD04AB01462846AFF359
:1017DC000080002857D108F10802A2E70D215846D5
:1017EC00FFF7CAFE2B6A8342F5D1AB6A9845F2D15A
:1017FC004046FFF7E1FC0F2102465846FFF7E2FE98
:10180C002A4600215846FFF7DDFEA6E70D21584673
:10181C000393FFF7B1FE2A6A039B8242B7D1AA6AEF
:10182C009045B4D100270422C5E90B724244AB6247
:10183C006A63D8F80020BA4256DB01220292AAE76A
:10184C00039400261C4608F1040905F158070DE025
:10185C0048460497FFF776FD0022014604AB284664
:10186C00013609F10409AFF30080E8B9A642EFD1C3
:10187C000D215846FFF780FE0346049A0620C5E961
:10188C0009282B6214E704460D215846FFF774FE15
:10189C00022CDDF81090286224D12B4643F82C9FA3
:1018AC000620C5E9093803E72346D8F80060039CF5
:1018BC006DE74046FFF780FC08F104020446AA637A
:1018CC002846AFF3008000283FF4F1AE22460F21EA
:1018DC005846FFF777FE40E7894658460D21FFF73B
:1018EC004BFE28624B46DBE7581C08EB800080E778
:1018FC00000000000023FFF7B1BE00BF0123FFF77B
:10190C00ADBE00BF0223FFF7A9BE00BF2DE9F04317
:10191C00064615461C46C3B0042900F2CD80DFE80C
:10192C0001F0AC51CB2A0300002C40F0C580102AEA
:10193C0000F2C2800368DC0600F1E38020AF384679
:10194C00FEF750FC012438460023B16B04FA03F275
:10195C002A4203F1010305D00A4652F804CB114682
:10196C00C0F800C0042B00F10400EFD13846B1637D
:10197C00FEF72EFC95E0032C40F09E8094B204EB15
:10198C001243102B4FEA124500F2968003681F0792
:10199C0000F1BF8020AF3846FEF7F8FBB26B07EBC7
:1019AC00C50154B10B4601EBC401D01AE4001D581B
:1019BC0043F8045B8B42FAD122443846B263FEF7FB
:1019CC00C3FB6EE0012C4FEA124895B26DD0052C8A
:1019DC0072D108EB0509B9F1200F6DD8B8F10F0FD2
:1019EC006ED8B9F1100F036800F29B80D90708D5A7
:1019FC00304623F0010343F0020340F8483BFEF766
:101A0C0097FB20AF3846FEF793FBB36B002D00F02D
:101A1C00B5806D006A1E002507EBC8010132043940
:101A2C0003EB820253F8040B934241F8040FF9D1F3
:101A3C00002D00F09D804146102938BF10216F46C3
:101A4C006B001039013B07EBC1010133043902EB88
:101A5C00830352F8040B9A4241F8040FF9D1012C7C
:101A6C0000F08480B8F10F0FB26302D820A8FEF703
:101A7C005BFB3846FEF760FB13E0ECB92346012410
:101A8C00816B371D90B204FA03F202421CBF51F86D
:101A9C00042B47F823200133102BF4D1A80400D4D5
:101AAC00B163002043B0BDE8F08308EB0503102BB5
:101ABC0002D8B8F1100F14D1022043B0BDE8F08366
:101ACC00002DEED003685A075CD46F463846FEF7FB
:101ADC0037FBB26B6B00A8F11001013B07EBC101A6
:101AEC00B3E70368DA0759D420AF3846FEF718FB82
:101AFC00B36B002D8DD104333846B363FEF70CFB6A
:101B0C00CFE723F01003036000F5E870FEF76AFBE3
:101B1C0014E723F00803036000F5A870FEF736FB0A
:101B2C0038E7D90708D523F0010343F0020340F846
:101B3C00483BFEF7FDFA3368580706D5304623F0CC
:101B4C00040340F8D03BFEF7FBFA20AF3846FEF713
:101B5C00EFFA6846FEF7F4FAC8F110025200B36BC4
:101B6C00A9F11005013A07EBC80157E720AFC2E70E
:101B7C00012CC0D0B8F10F0FB36392D83846FEF7E2
:101B8C00D3FA8EE76F4623F0040340F8D03BFEF700
:101B9C00D7FA3846FEF7D4FAB26B9BE7304623F0FF
:101BAC00030340F8483BFEF7BBFA9DE7027A034675
:101BBC007AB9427AA2B14FF0030C4168013A4272F1
:101BCC0008680A1D5A60020283F808C0000E1A60E9
:101BDC0070470068013A1A7202021A60000E7047D0
:101BEC00B02070472DE9F0434FF0000806460D4633
:101BFC0085B02846FFF7DAFFB028044600F0DC80F9
:101C0C00070647D500F0F003802B5FD0B02B74D0C3
:101C1C001BD8902B00F09C80A02B12D1C3434FF407
:101C2C007F6203F007031A41010702F47F6201D5BA
:101C3C0042F48042002330461946FFF767FE002825
:101C4C00D7D0092005B0BDE8F083C02B6ED1C628D3
:101C5C0000F09480C72800F0B48000F0F803C02B8B
:101C6C0000F0C980C82800F0D480C928E9D12846E2
:101C7C00FFF79CFF0523044601213046220304F0A4
:101C8C000F0402F470220C442243FFF73FFE00289D
:101C9C00AFD0D6E78300DBB21F1D00230DF10C097A
:101CAC0019460D223046CDF80090FFF74DFC039BF2
:101CBC0060064CBFDF1BFF1800230D22304619466F
:101CCC00CDF800900397FFF765FC92E72846FFF7E5
:101CDC006DFF24022043B0F5004FB2D00023040165
:101CEC0019463046A2B2FFF711FE0028A9D114F410
:101CFC00004F18BF4FF001087BE7B12852D0B22833
:101D0C0000F0AC80B3286ED000F0FC03B42B98D05C
:101D1C00012300F007021A443046194642F400220F
:101D2C00FFF7F4FD00283FF464AF8AE700F0F803F6
:101D3C00D02B86D100F00702013205230121304659
:101D4C0042F40022FFF7E2FD00283FF452AF78E79F
:101D5C0000F00D030D2B3FF474AF002303AF1946B5
:101D6C0000F00F0200973046FFF7EEFB00230D2228
:101D7C00304619460097FFF70DFC3AE72846FFF767
:101D8C0015FF04460323220304F00F0402F470220F
:101D9C000134304619462243FFF7B8FD00283FF4C2
:101DAC0028AF4EE72846FFF701FF431EDBB20E2B90
:101DBC0002467FF63FAF44E7B8F1000F3ED000205B
:101DCC0040E72846FFF7F2FE431EDBB20E2B02461D
:101DDC003FF637AF002304213046FFF797FD00286C
:101DEC003FF407AF2DE72846FFF7E0FE012304463A
:101DFC001946304642E7032300F00F020132304609
:101E0C00194642F42022FFF781FD00283FF4F1AE81
:101E1C0017E72846FFF7CAFE0246012102F0F0043C
:101E2C0002F00F0210340A440523304642EA043211
:101E3C00FFF76CFD00283FF4DCAE02E703AC434631
:101E4C0041460E2230460094FFF77EFB43460F229C
:101E5C00414630460094FFF79DFBB0E700230DF19F
:101E6C000C090D2219463046CDF80090FFF76CFB9B
:101E7C002846FFF79BFE02064FF00207039C0BD58A
:101E8C0000F07F00B840044428460394FFF78EFE10
:101E9C00030607F10707F3D4002300FA07F204F551
:101EAC0001742244039230460D221946CDF800905D
:101EBC00FFF770FB9DE600BF024B13B1024800F028
:101ECC0045B8704700000000291F000870B50F4B83
:101EDC000F4DAB42A3EB050607D00024B61055F806
:101EEC00043B01349847A642F9D800F079F8094D23
:101EFC00094B5E1BAB424FEAA60606D0002455F8F0
:101F0C00043B01349847A642F9D870BD1021000853
:101F1C0010210008102100081821000838B5074DC1
:101F2C00074C2C1BA41005D0013C55F8043D9847D8
:101F3C00002CF9D1BDE8384000F058B81C2100083D
:101F4C0018210008704700BF704700BF00230146EE
:101F5C001A46184600F000B82DE9F047DFF874A0D7
:101F6C000646DAF8000098460F469146FFF7EAFF5E
:101F7C00194B1C6824B365681F2D24DC5EB96B1CDF
:101F8C000235DAF80000636044F82570FFF7DCFFD7
:101F9C000020BDE8F087012304EB8501C1F888908F
:101FAC00D4F88821AB401A43022EC4F88821C1F81A
:101FBC000881E4D1D4F88C211A43C4F88C21DEE7D3
:101FCC00064C1C60D7E7DAF80000FFF7BDFF4FF0B6
:101FDC00FF30DEE7080000205000002058000020F1
:101FEC00F8B500BFF8BC08BC9E467047F8B500BFFA
:081FFC00F8BC08BC9E467047CA
:1020040068690000000000000000000001020304F1
:0420140006070809AA
:1020180005970181B0B00884000000000397018192
:10202800B0B008840000000005970181B0B00884B2
:102038000000000001970181B0B008840000000092
:10204800E8E3FF7F0100000030E4FF7FC4FFFF7F6B
:10205800ECE4FF7FC8FFFF7F1CE5FF7F0100000065
:10206800ACE6FF7FC4FFFF7F00E7FF7F01000000B1
:1020780028EEFF7FC0FFFF7F50EEFF7FAB0C9780FD
:102088008CEFFF7F01000000D4F1FF7FB0A9028030
:1020980060F2FF7FB0B0A880B0F2FF7F01000000BF
:1020A800B8F2FF7FB0B0AA80ECF2FF7FAE71B280C9
:1020B800C4F3FF7FAB3F388024F4FF7F01000000AA
:1020C80034F4FF7FB0B0AA806CF4FF7F01000000F9
:1020D80010F5FF7FAA0DB28088F5FF7FB0AF0880AA
:1020E80018F8FF7F0100000028F8FF7FAD3F02804D
:1020F800C0FAFF7F01000000F0FAFF7FB0AD048056
:08210800BCFDFF7F0100000097
:08211000C51E00080D040008C3
:04211800E5030008D3
:0C211C000024F40001000000540000202A
:040000050800117965
:00000001FF
