:020000040800F2
:100000000050002065040008310400083304000893
:100010003504000837040008390400080000000017
:100020000000000000000000000000003B04000889
:100030003D040008000000003F04000841040008DF
:10004000AD040008AD040008AD040008AD040008CC
:10005000AD040008AD040008AD040008AD040008BC
:10006000AD040008AD040008AD040008AD040008AC
:10007000AD040008AD040008AD040008AD0400089C
:10008000AD040008AD040008AD040008AD0400088C
:10009000AD040008AD040008AD040008AD0400087C
:1000A000AD040008AD040008AD040008AD0400086C
:1000B000AD040008AD040008AD040008AD0400085C
:1000C000AD040008AD040008AD040008AD0400084C
:1000D000AD040008AD040008AD040008AD0400083C
:1000E000AD040008AD040008AD04000800000000E5
:1000F0000000000000000000000000000000000000
:0C01000000000000000000005FF808F1A3
:10010C000348044B834202D0034B03B1184770479A
:10011C000800002008000020000000000548064BE5
:10012C001B1AD90F01EBA301491002D0034B03B1E9
:10013C00184770470800002008000020000000004D
:10014C0010B5064C237843B9FFF7DAFF044B13B113
:10015C000448AFF300800123237010BD0800002079
:10016C0000000000D805000808B5054B1BB1054977
:10017C000548AFF30080BDE80840FFF7CFBF00BFD4
:10018C00000000000C000020D80500080023144AD1
:10019C00126812F0020F04D1FF2B20D00133DBB216
:1001AC00F5E70F4B5A6842F4E0125A605A6842F075
:1001BC0002025A601A6842F080721A60002301E051
:1001CC000133DBB2064A126812F0007F07D1FF2B15
:1001DC00F6D103490A6822F080720A60F0E7704792
:1001EC0000100240094A936943F010039361084BD5
:1001FC005A6842F440125A605A6822F440025A601B
:10020C00DA6842F40052DA60704700BF0010024016
:10021C0000100140374BDA6942F00072DA619A69DA
:10022C0042F004029A61A3F584335A6822F44042E6
:10023C005A605A6842F400425A605A6842F440527A
:10024C005A605A6822F440225A605A6842F40022DA
:10025C005A605A6842F440325A60A3F524431A6833
:10026C0042F001021A601A6842F010021A601A6811
:10027C0042F020021A60DA6922F47F7222F0030243
:10028C00DA61DA6942F00802DA61DA6922F4702282
:10029C00DA61DA6942F44022DA61DA6922F4E002C6
:1002AC00DA61DA6942F48012DA61D3F8802122F043
:1002BC000202C3F88021D3F8802122F00402C3F893
:1002CC008021D3F8802142F02A4242F44002C3F844
:1002DC008021D3F8842122F00F02C3F88421D3F8B3
:1002EC00842142F00802C3F884211A6822F001022A
:1002FC001A6070470010024000233648806810F0E6
:10030C00806F06D101339BB2B3F5704FF5D301204A
:10031C00704730B52F4C0020C4F88801C4F88C010C
:10032C00844631E02B4CD4F8800140F00100C4F835
:10033C008001D21AD2B20CF1010C5FFA8CFC254868
:10034C00806810F0806F06D101339BB2B3F5704F0B
:10035C00F5D3012030BD1F4883680023C0F88831D5
:10036C00C0F88C3114E01B4DD5F88C0103EBCC0498
:10037C0011F804E01C1FE4000EFA04FE40EA0E0023
:10038C00C5F88C0101339BB29A4211D9072BC9D8FD
:10039C00032BE8D80F4DD5F8880103EBCC040C5D8A
:1003AC004FEAC30E04FA0EF42043C5F88801E9E7BE
:1003BC00084BD3F8802142F00102C3F880219B68DE
:1003CC0013F0020F04D1034B9869C0F30210C1E77C
:1003DC000020BFE70064004000B585B003A8FFF71C
:1003EC00D5FE02A8FFF7FEFE0C4AD36823F4005397
:1003FC00D36001A8FFF70EFF042209490DEB0200A0
:10040C00FFF77AFF002300E001334FF6FE729342B0
:10041C00FAD9002005B05DF804FB00BF00100140C4
:10042C00F0050008FEE7FEE7FEE7FEE7FEE7704793
:10043C007047704708B500F003F808BD704700001E
:10044C00034A1168034B1B780B441360704700BFC1
:10045C002400002000000020FFF7F0FF0B480C499F
:10046C000C4A002302E0D458C4500433C4188C4204
:10047C00F9D3094A094C002301E013600432A2426B
:10048C00FBD300F019F8FFF7A7FF7047000000201E
:10049C00080000200806000808000020C001002009
:1004AC00FEE70000024B13B1024800F045B870475C
:1004BC00000000001505000870B50F4B0F4DAB4246
:1004CC00A3EB050607D00024B61055F8043B013405
:1004DC009847A642F9D800F079F8094D094B5E1BF4
:1004EC00AB424FEAA60606D0002455F8043B013473
:1004FC009847A642F9D870BDFC050008FC05000819
:10050C00FC0500080406000838B5074D074C2C1BE9
:10051C00A41005D0013C55F8043D9847002CF9D1A6
:10052C00BDE8384000F058B808060008040600087A
:10053C00704700BF704700BF002301461A4618469B
:10054C0000F000B82DE9F047DFF874A00646DAF8A1
:10055C00000098460F469146FFF7EAFF194B1C68BE
:10056C0024B365681F2D24DC5EB96B1C0235DAF8E8
:10057C000000636044F82570FFF7DCFF0020BDE845
:10058C00F087012304EB8501C1F88890D4F8882109
:10059C00AB401A43022EC4F88821C1F80881E4D17B
:1005AC00D4F88C211A43C4F88C21DEE7064C1C606D
:1005BC00D7E7DAF80000FFF7BDFF4FF0FF30DEE7BA
:1005CC00040000202800002030000020F8B500BFF7
:1005DC00F8BC08BC9E467047F8B500BFF8BC08BC18
:0405EC009E46704770
:0405F0003131300075
:0805F400A4FBFF7F01000000E1
:0805FC00B104000875010008BC
:040604004D0100089C
:08060800010000002C0000209D
:040000050800046586
:00000001FF
