:020000040800F2
:1000000000500020D516000871150008771500086B
:100010007D15000883150008891500080000000000
:100020000000000000000000000000008F15000824
:100030009B15000800000000A7150008B315000874
:100040001D1700081D1700081D1700081D170008C0
:100050001D1700081D1700081D1700081D170008B0
:100060001D1700081D1700081D1700081D170008A0
:100070001D1700081D1700081D1700081D17000890
:100080001D1700081D1700081D1700081D17000880
:10009000991300081D1700081D1700081D170008F8
:1000A0001D1700081D1700081D1700081D17000860
:1000B0001D1700081D1700081D1700081D17000850
:1000C0001D1700081D1700081D1700081D17000840
:1000D0001D170008B51200081D1700081D1700089D
:1000E0001D1700081D1700081D170008000000005C
:1000F0000000000000000000000000000000000000
:0C01000000000000000000005FF808F1A3
:10010C0000F1340191E838009C46A6464CF8045D99
:10011C0090E8FF0FE54600BD90EC210B704700BF47
:10012C0080EC210B704700BF90EC200B704700BF98
:10013C0080EC200B704700BFD0EC200B704700BF49
:10014C00C0EC200B704700BFF0EC0201F0EC021188
:10015C00F0EC0221F0EC0231F0EC0241F0EC025137
:10016C00F0EC0261F0EC0271F0EC0281F0EC029127
:10017C00F0EC02A1F0EC02B1F0EC02C1F0EC02D117
:10018C00F0EC02E1F0EC02F1704700BFE0EC020190
:10019C00E0EC0211E0EC0221E0EC0231E0EC024177
:1001AC00E0EC0251E0EC0261E0EC0271E0EC028167
:1001BC00E0EC0291E0EC02A1E0EC02B1E0EC02C157
:1001CC00E0EC02D1E0EC02E1E0EC02F1704700BFA0
:1001DC00B0FC0181B0FC0191B0FC01A1B0FC01B1FB
:1001EC00704700BFA0FC0181A0FC0191A0FC01A103
:1001FC00A0FC01B1704700BFEC4600B52DE90050E2
:10020C002DE9FF1F4FF000032DE90C0001A901F0AF
:10021C00DDFBDDF840E012B0704700BFEC4600B5E6
:10022C002DE900502DE9FF1F4FF000032DE90C00C4
:10023C0001A901F00BFCDDF840E012B0704700BFE3
:10024C00EC4600B52DE900502DE9FF1F4FF00003DF
:10025C002DE90C0001A901F019FCDDF840E012B009
:10026C00704700BFEC4600B52DE900502DE9FF1F8B
:10027C004FF000032DE90C0001AB01F0DBFBDDF8C6
:10028C0040E012B0704700BFEC4600B52DE90050BD
:10029C002DE9FF1F4FF000032DE90C0001AA01F01E
:1002AC004BFCDDF840E012B0704700BF844641EAD9
:1002BC00000313F0030349D1403A23D30B680360C6
:1002CC004B6843608B688360CB68C3600B690361C8
:1002DC004B6943618B698361CB69C3610B6A0362B0
:1002EC004B6A43628B6A8362CB6AC3620B6B036398
:1002FC004B6B43638B6B8363CB6BC363403040317D
:10030C00403ADBD230320BD30B6803604B6843604E
:10031C008B688360CB68C36010301031103AF3D215
:10032C000C3205D351F8043B40F8043B043AF9D2A3
:10033C00043208D0D2071CBF11F8013B00F8013B76
:10034C0001D30B8803806046704700BF082A13D383
:10035C008B07B1D010F00303AED0C3F10403D21A53
:10036C00DB071CBF11F8013B00F8013BA4D331F8AB
:10037C00023B20F8023B9FE7043AD9D3013A11F82B
:10038C00013B00F8013BF9D20B7803704B784370BA
:10039C008B788370604670470348044B834202D0CD
:1003AC00034B03B1184770471000002010000020C9
:1003BC00000000000548064B1B1AD90F01EBA301E6
:1003CC00491002D0034B03B11847704710000020AE
:1003DC00100000200000000010B5064C237843B933
:1003EC00FFF7DAFF044B13B10448AFF3008001238D
:1003FC00237010BD1000002000000000D02B00085E
:10040C0008B5054B1BB105490548AFF30080BDE8A5
:10041C000840FFF7CFBF00BF000000001400002011
:10042C00D02B000880B485B000AFF8603B1D83E88A
:10043C000600094B9B68084A23F4E0639360064B63
:10044C009A68BB791B02044913438B6000BF1437B5
:10045C00BD4680BC704700BF0010024080B485B020
:10046C0000AFF8603B1D83E8060000BF1437BD46A3
:10047C0080BC704780B588B000AFF860384680E823
:10048C000E00354B1B68344A43F0010313603249AC
:10049C0007F11000FF23022200F00AF90346002B9B
:1004AC0014BF01230023DBB2002B07D0F86800F047
:1004BC0055F807F11403184600F07CF93B7A002B31
:1004CC0045D0254B5B68244A23F470135360224BB0
:1004DC005A68FB789B04204913434B601E4B5B68A6
:1004EC001D4A23F0030353601B4B5B687A7911465A
:1004FC00194A0B435360184B5B68174A23F480333B
:10050C005360154B5A683B791B04134913434B60DA
:10051C00114B1B68104A43F0807313600E4907F1AE
:10052C00180040F21F434FF0007200F0C1F8034670
:10053C00002B14BF01230023DBB2002B07D0F8687B
:10054C0000F00CF807F11C03184600F033F900BF5B
:10055C002037BD4680BD00BF0010024080B584B07E
:10056C0000AF7860194B1B68184A43F00103136005
:10057C00164907F10800FF23022200F099F8034600
:10058C00002B14BF01230023DBB2002B04D007F196
:10059C000C03184600F00EF90C4B1B680B4A23F0A9
:1005AC0080731360094B1B68084A23F00103136026
:1005BC00064B5B68054A23F003035360034B034A65
:1005CC005B68536000BF1037BD4680BD0010024011
:1005DC0080B584B000AFF860384680E80E003B462A
:1005EC0093E80600F868FFF71DFF3B4693E806000A
:1005FC00F868FFF733FF3B460ECBF868FFF73AFF7E
:10060C0000BF1037BD4680BD80B483B000AF7860AA
:10061C000B46FB700F4B1B680E4A23F00103136053
:10062C000D4BDB690C4A43F00403D361FB785A1E73
:10063C00084B9A62074B40F2E732DA62054B1B68B3
:10064C00044A43F00103136000BF0C37BD4680BC65
:10065C00704700BF000800400010024080B485B015
:10066C0000AF786039600023FB8114E00F4B1B69ED
:10067C000E4A23F00103136100BF0C4B1B6903F0FE
:10068C000103002B0CBF01230023DBB2002BF4D1A0
:10069C00FB890133FB81FB893A689A42E6D800BF9B
:1006AC0000BF1437BD4680BC704700BF0008004037
:1006BC0080B487B000AFF860B9607A603B6000230B
:1006CC007B610FE0BB681A687B681340002B14BF7A
:1006DC0001230023DBB2002B01D000230CE07B694B
:1006EC0001337B613B687A699A4234BF0123002352
:1006FC00DBB2002BE6D1012318461C37BD4680BC6B
:10070C007047000080B582B000AF78600C4B9B69DD
:10071C000B4A43F0100393610A4B5B68094A43F49C
:10072C0040135360074B5B68064A23F44003536045
:10073C00786800F01BF800BF0837BD4680BD00BFCD
:10074C00001002400010014080B483B000AF78600C
:10075C00054BDB68044A23F40053D36000BF0C370D
:10076C00BD4680BC704700BF0010014080B483B010
:10077C0000AF7860054BDB68044A43F40053D36048
:10078C0000BF0C37BD4680BC704700BF0010014055
:10079C0080B483B000AF7860054BDB68044A83F407
:1007AC000053D36000BF0C37BD4680BC704700BF00
:1007BC000010014080B586B000AF78607868FFF714
:1007CC00C3FF07F108034FF496711846FFF746FF75
:1007DC007868FFF7CBFF07F10C034FF496711846BE
:1007EC00FFF73CFF7868FFF7AFFF07F110034FF4FA
:1007FC0096711846FFF732FF7868FFF7B7FF07F1DD
:10080C0014034FF47A711846FFF728FF7868FFF746
:10081C00D1FF00BF1837BD4680BD000080B483B047
:10082C0000AF0346FB7197F90730002B0BDBFB790C
:10083C0003F01F02064997F907305B09012000FA03
:10084C0002F241F8232000BF0C37BD4680BC704734
:10085C0000E100E080B483B000AF78600E4B5B68C1
:10086C000D4A23F4806353600B4B5B680A4A43F4D4
:10087C0000635360084B5B68074A23F44073536072
:10088C00054BDB68044A43F48063D36000BF0C372C
:10089C00BD4680BC704700BF0008014080B483B0E7
:1008AC0000AF78600E4B5B680D4A23F03003536049
:1008BC000B4B5B680A4A43F030035360084B5B6890
:1008CC00074A23F0C0035360054B5B68044A43F0AE
:1008DC008003536000BF0C37BD4680BC704700BF1F
:1008EC000008014080B58AB000AFF860B9607A604A
:1008FC0000237B6232E01E4907F1140042F21073B0
:10090C008022FFF7D5FE0346002B14BF01230023E2
:10091C00DBB2002B04D007F118031846FFF74AFF8F
:10092C00BA687B6A13441A78114B5A60104907F164
:10093C001C0042F210734022FFF7BAFE0346002B54
:10094C0014BF01230023DBB2002B04D007F12003DA
:10095C001846FFF72FFF7B6A01337B627A6A7B684C
:10096C009A42C8D300BF00BF2837BD4680BD00BF28
:10097C000038014084B080B582B000AF786007F1D8
:10098C00140080E80E00284BDB68274A43F4005320
:10099C00D360254ABB699360234BDB68224A23F45E
:1009AC008053D360204BDA683B7F1B031E491343F3
:1009BC00CB601D4BDB681C4A23F48063D3601A4B5D
:1009CC00DB68BA7F9202D2431146174A0B40D360C0
:1009DC00154BDB68144A23F00803D360124BDA681A
:1009EC00FB7FDB0010491343CB600F4BDB680E4AD7
:1009FC0023F00403D3600C4BDA6897F820309B008B
:100A0C0009491343CB60084BDB68074A43F02003CA
:100A1C00D3602520FFF702FF00BF0837BD46BDE8B5
:100A2C00804004B0704700BF0038014084B080B5EE
:100A3C0084B002AF786007F1140080E80E00104B10
:100A4C009B690F4A43F0080393610D4B9B690C4A59
:100A5C0043F4804393617868FFF7FCFE7868FFF7F6
:100A6C001DFF3B6A009307F114030ECB7868FFF768
:100A7C0081FF00BF0837BD46BDE8804004B0704719
:100A8C000010024080B483B000AF0346FB7197F9AD
:100A9C000730002B0BDBFB7903F01F02064997F99B
:100AAC0007305B09012000FA02F241F8232000BF55
:100ABC000C37BD4680BC704700E100E080B487B0C5
:100ACC0000AF78607B68002B22D000237B6107236A
:100ADC003B6118E07A687B6913441B78FB737A6876
:100AEC003B69134419787A687B6913440A461A7077
:100AFC007A683B691344FA7B1A707B6901337B611A
:100B0C003B69013B3B617A693B699A42E2D300E065
:100B1C0000BF1C37BD4680BC7047000080B483B05A
:100B2C0000AF78600E4B5B680D4A23F44053536062
:100B3C000B4B5B680A4A23F440435360084B5B68D9
:100B4C00074A43F400435360054BDB68044A43F403
:100B5C000063D36000BF0C37BD4680BC704700BF3C
:100B6C000008014080B483B000AF78600B4B5B6829
:100B7C000A4A23F440235360084B5B68074A43F44A
:100B8C0000235360054B5B68044A43F440335360C5
:100B9C0000BF0C37BD4680BC704700BF0008014049
:100BAC0080B582B000AF78607868FFF7DBFF7868BB
:100BBC00FFF7B4FF00BF0837BD4680BD84B080B4DA
:100BCC0083B000AF786007F1140080E80E002B4B67
:100BDC00DB692A4A23F08043D361284BDA69FB692D
:100BEC009B0726491343CB61244BDB69234A23F033
:100BFC000043D361214BDA6997F82130DB071F4999
:100C0C001343CB611D4BDB691C4A23F47F7323F028
:100C1C000303D361194BDB6997F82020013A114685
:100C2C00164A0B43D361154BDB69144A23F470232A
:100C3C00D361124BDB693A7D013A120411460F4A1B
:100C4C000B43D3610D4BDB690C4A23F4E003D361F6
:100C5C000A4BDB697A7D013A12051146074A0B43B0
:100C6C00D361064BDA69BB691B0604491343CB619C
:100C7C0000BF0C37BD4680BC04B070470064004018
:100C8C0080B483B000AF786039601B4BD3F88031EF
:100C9C00194A23F00203C2F88031174BD3F8803184
:100CAC00154A23F00403C2F88031134BD3F880317A
:100CBC00114AC3F31403C2F880310F4BD3F88021CF
:100CCC003B885B050C491343C1F880310A4BD3F8C0
:100CDC008431094A23F00F03C2F88431064BD3F850
:100CEC008431BA781146044A0B43C2F8843100BFF0
:100CFC000C37BD4680BC70470064004080B485B0A2
:100D0C0000AFF8603B1D83E80600244BD3F8B031EC
:100D1C00224A23F00403C2F8B031204BD3F8B0219F
:100D2C007B7A9B001D491343C1F8B0311B4BD3F8A0
:100D3C00B0311A4A23F00203C2F8B031174BD3F882
:100D4C00B0213B7A5B0015491343C1F8B031134B0A
:100D5C00D3F8B431114A23F47F43C2F8B4310F4BAA
:100D6C00D3F8B421BB881B020C491343C1F8B4312E
:100D7C000A4BD3F8B431094A23F00F03C2F8B4314B
:100D8C00064BD3F8B431FA791146044A0B43C2F836
:100D9C00B43100BF1437BD4680BC704700640040BE
:100DAC0080B485B000AFF8603B1D83E80600364B7D
:100DBC00D3F80032344A43F00103C2F80032324B0C
:100DCC00D3F80432304A23F00103C2F804322E4B1C
:100DDC00D3F80432FA791146BA7901FA02F21146C3
:100DEC00294A0B43C2F80432274BD3F80C32264A5B
:100DFC0023F00103C2F80C32234BD3F80C323A7AAD
:100E0C001146BA7901FA02F211461F4A0B43C2F895
:100E1C000C323A791C4BC3F840227A791A4BC3F83E
:100E2C004422194BD3F81432BA79114601228A4064
:100E3C00D2431146144A0B40C2F81432124BD3F869
:100E4C0014327A7A1146BA7901FA02F211460E4A34
:100E5C000B43C2F814320C4BD3F800320A4A23F07D
:100E6C000103C2F80032084BD3F81C32BA79114690
:100E7C0001228A401146044A0B43C2F81C3200BFBF
:100E8C001437BD4680BC70470064004080B582B00A
:100E9C0000AF78600A4B5B69094A43F00203536167
:100EAC00074B5B69064A43F0040353611420FFF7B8
:100EBC00E9FD1320FFF7E6FD00BF0837BD4680BDF6
:100ECC000064004084B080B584B002AF786007F154
:100EDC00140080E80E00244B1B68234A43F00103E6
:100EEC00136000BF204B5B6803F00103002B0CBFA9
:100EFC0001230023DBB2002BF4D11B4B1B681A4AD5
:100F0C0043F010031360184B1B68174A43F020037F
:100F1C001360FB6A009307F120030ECB7868FFF790
:100F2C004DFE79697868FFF7ABFE07F1180393E87B
:100F3C0006007868FFF7E2FE07F1300393E806003D
:100F4C007868FFF72DFF7868FFF7A0FF064B1B684A
:100F5C00054A23F00103136000BF0837BD46BDE806
:100F6C00804004B0704700BF0064004080B483B080
:100F7C0000AF78607B6818460C37BD4680BC704764
:100F8C0084B0B0B588B006AF786007F11C0080E87B
:100F9C000E00124BDB69114A43F00073D3610F4B07
:100FAC009B690E4A43F0040393617868FFF7F8FDE0
:100FBC006D4607F128040FCC0FC594E8030085E8B3
:100FCC00030007F11C030ECB7868FFF77BFF00BF13
:100FDC000837BD46BDE8B04004B070470010024071
:100FEC0080B487B000AFF860B9603B601346FB710A
:100FFC000023FB8200237B7508E0FB8A0133FB8214
:10100C00FB8AB3F5704F01D30123A1E0534B9B68CE
:10101C0003F08063002B0CBF01230023DBB2002BF9
:10102C00EBD10023FB824D4B0022C3F888214B4BA4
:10103C000022C3F88C216CE0BB781A46FB8A9A42DA
:10104C0033DC464BD3F88031444A43F00103C2F8F9
:10105C008031FB8ADBB2FA79D31AFB717B7D0133C9
:10106C007B7508E0FB8A0133FB82FB8AB3F5704F7A
:10107C0001D301236CE0394B9B6803F08063002B98
:10108C000CBF01230023DBB2002BEBD1334B9B684D
:10109C0003F00203002B0023FB82304B0022C3F829
:1010AC0088212E4B0022C3F88C21FB8A032B16D8E7
:1010BC002A4BD3F88821F98A7B7DB87800FB03F39F
:1010CC000B441946BB680B441B781946FB8ADB00A2
:1010DC0001FA03F321491343C1F8883116E01F4B81
:1010EC00D3F88C21F98A7B7DB87800FB03F30B4491
:1010FC001946BB680B441B781946FB8A043BDB0082
:10110C0001FA03F315491343C1F88C31FB8A0133FF
:10111C00FB82FB799BB2FA8A9A428DD30F4BD3F8A0
:10112C0080310E4A43F00103C2F880310B4B9B69AE
:10113C001B09DBB203F007033B75084B9B68DBB262
:10114C005B00FB74FB7C002B01D0002300E03B7D9B
:10115C0018461C37BD4680BC704700BF0064004079
:10116C0080B485B000AFF8600B467A60FB72114A10
:10117C00FB7A18331B0113441A680E49FB7AC2F32D
:10118C00140218331B010B441A600A4AFB7A1833F9
:10119C001B01134419687B685A050648FB7A0A43FD
:1011AC0018331B0103441A6000BF1437BD4680BCC2
:1011BC00704700BF0064004080B48BB000AFF86093
:1011CC00381D80E806003B60364BD3F8BC313B62DF
:1011DC00344BD3F8B831FB61324BDB68FB76002320
:1011EC003B6100237B61002387F827302FE097F8C1
:1011FC002730032B17D897F82730FA7902FB03F323
:10120C00FA6922FA03F3BB7697F82730FA7902FBD6
:10121C0003F3FA69DA4097F82730D2B228333B440B
:10122C0003F8182C0EE097F82730FA7902FB03F339
:10123C00203B3A6ADA4097F82730D2B228333B4445
:10124C0003F8182C97F82730013387F82730FB79EF
:10125C0097F827209A42CAD3002387F826300EE04D
:10126C0097F8262097F8263028323A4412F8181CA2
:10127C003A68D15497F82630013387F82630FB7939
:10128C0097F826209A42EBD3064BDB68054A43F0CD
:10129C002003D360034BDB68FB7600BF2C37BD46C5
:1012AC0080BC70470064004080B588B000AF314B03
:1012BC005B68BB77BB7F3B7300237B600023BB6009
:1012CC002D4B1B7803F007032C49BA7FCA542A4BC9
:1012DC001B780133DAB2284B1A7007F10C0107F1B5
:1012EC00100301221846FFF7FDFA2549234801F0A7
:1012FC00F7F90346002B38D00023FB770EE0FA7F7A
:10130C00FB7F1E498A5C20333B4403F81C2CFB7F7B
:10131C001A4A0021D154FB7F0133FB77FB7F072B4B
:10132C00EDD907F114031846FFF720FE154B5B7837
:10133C001A4607F1140300211846FFF711FF3B1D55
:10134C001846FFF7BBFB07F118031846FFF70EFE14
:10135C000D4B391D07F118001B680822FFF740FEE2
:10136C0007F11C031846FFF713FA00BF2037BD46E0
:10137C0080BD00BF00380140340000202C0000204C
:10138C00E82B0008000000204800002080B584B045
:10139C0000AF00233B6000237B6007F10803184675
:1013AC00FFF7F6F907F10C031846FFF7DFFD3B4694
:1013BC00054A07F10C00043206CAFFF7FDFE00BF18
:1013CC001037BD4680BD00BF48000020F0B595B079
:1013DC0006AF07F1240308211846FFF715F907F1AA
:1013EC0028031846FFF78EF9584B00229A71574B79
:1013FC000122DA71554B01221A72544B00225A7297
:10140C00524B00229A72514B02225A714F4B0722B7
:10141C00DA704E4B00221A714C4B00229A704B4BD7
:10142C0000221A70494B00225A70484B07F12000D9
:10143C000ECBFFF7CDF807F12C0324211846FFF74C
:10144C00E3F807F130031846FFF790F900F0B8F80D
:10145C003F4B1B68FB613F4B12221A763D4B0D2212
:10146C001A733C4B02225A733A4B01221A61394BC4
:10147C0000225A61374B00225A76374B5B781A465A
:10148C00344B1A80334B08229A70324B00229A80CC
:10149C00304B0822DA71304B1A782E4B1A772D4BC1
:1014AC0000225A772B4B012283F82020294B012252
:1014BC00DA77284B00229A7707F118031846FFF7C2
:1014CC0055FD244E07F1180C6D4606F10C040FCC9B
:1014DC000FC594E8030085E8030096E80E0060460B
:1014EC00FFF74EFD1D4B40F6A6625A601B4B0122C6
:1014FC00DA721A4B01221A73184B00221A72174B0C
:10150C0000229A72154B07F11400DA6800920ECB88
:10151C00FFF78CFA002387F83730114A07F10803DC
:10152C0007CA03C31A702E23BB8000237B80391D8E
:10153C0007F1140302221846FFF7D4F907F134031C
:10154C004FF4FA711846FFF789F8F0E76C000020A9
:10155C00040000204800002000000020380000207B
:10156C00EC2B000880B400AFFEE780B400AFFEE7C0
:10157C0080B400AFFEE780B400AFFEE780B400AFEC
:10158C00FEE780B400AF00BFBD4680BC704780B49E
:10159C0000AF00BFBD4680BC704780B400AF00BF39
:1015AC00BD4680BC704780B500AF00F07BF800BF33
:1015BC0080BD80B400AF00BFBD4680BC704700004A
:1015CC0080B485B000AF0023FB600023BB60002318
:1015DC007B602F4B5B6803F00C03FB60FB68082BF4
:1015EC0011D0FB68082B3AD8FB68002B03D0FB68A2
:1015FC00042B04D033E0274B274A1A6033E0254BE9
:10160C00254A1A602FE0224B5B6803F47013BB6011
:10161C001F4B5B6803F480337B60BB689B0C02330D
:10162C00BB607B68002B06D1BB681C4A02FB03F332
:10163C00184A136017E0164B5B6803F40033002B59
:10164C0006D0BB68154A02FB03F3124A13600AE08A
:10165C00BB68114A02FB03F30E4A136003E00D4B07
:10166C000D4A1A6000BF0A4B5B681B0903F00F039D
:10167C000B4AD35CFB60074B1A68FB6822FA03F336
:10168C00044A136000BF1437BD4680BC704700BFCE
:10169C00001002400400002000127A0000093D00F6
:1016AC00F82B000880B400AF054B1B781A46054B8D
:1016BC001B681344034A136000BFBD4680BC7047CF
:1016CC000800002078000020FFF773FF0B480C493E
:1016DC000C4A002302E0D458C4500433C4188C4282
:1016EC00F9D3094A094C002301E013600432A242E9
:1016FC00FBD301F035F9FFF769FE704700000020BD
:10170C0010000020502D00081000002014020020B2
:10171C00FEE7000003685A004CBF43F0004323F07F
:10172C0000431844704700BF2DE9F84341B301F161
:10173C00FF380546164647460024E11901EBD171E6
:10174C00491005EBC1094846FFF7E4FF88450346FD
:10175C004FEAC1020ED002F10800B34228440BD864
:10176C00FFF7D8FF0138B04201F10104E5D3484638
:10177C00BDE8F883B042FAD98C4201D04F1EDCE7A9
:10178C004FF000094846BDE8F88300BF012807D098
:10179C00022807D0044B00280CBF184600207047C5
:1017AC0002487047024870475D1E0008651E00081D
:1017BC006D1E000830B5214B044683B08D1E13B34B
:1017CC00284601A9AFF3008088B301992A46FFF798
:1017DC00ABFF014658B3FFF79DFF4B68A064012B8C
:1017EC0028D0002B20DB081DFFF794FF0023236576
:1017FC000368E064002B0DDBFFF78CFF0346002031
:10180C00236103B030BD0E4B0E491846C91AC910DE
:10181C000191DBE7C3F30360FFF7B8FF034630B178
:10182C000020236103B030BD0123081DDFE7002336
:10183C000920E5E700230520E2E700BF00000000D7
:10184C005C2C0008442D0008036810B5DA07044628
:10185C0006D49B0700F1480009D5FEF765FC236808
:10186C00590709D51A070ED5DB0613D510BDFEF79F
:10187C0053FC23685907F5D404F1D000FEF75CFC47
:10188C0023681A07F0D404F5A870FEF75DFC2368F2
:10189C00DB06EBD404F5E870BDE81040FEF798BC0D
:1018AC000346006800B11844704700BF704700BF82
:1018BC0070B504460E462046316CFFF77BFF05469B
:1018CC0098B9D6F840C03246214601202369C4F8A5
:1018DC0014C098470828EED0072806D12846316C4A
:1018EC00FFF7E4FF301DFEF70BFCFFDE2DE9F047A0
:1018FC004FF0000AADF5727D0DF10C0E01F1040CE8
:10190C00C768D0F8188006461446BCE80F00AEE84D
:10191C000F00BCE80F00AEE80F00BCE80F00AEE80B
:10192C000F009CE80F0002AD8EE80F00C5F800A078
:10193C0021E02B6C4FF4F072294673617AA8FEF704
:10194C00B5FC3146504633697AAA9847889C824642
:10195C006C643346324649460120CDE90058B847FD
:10196C00044630BB4FF4F07228467AA9FEF79EFC71
:10197C00BAF1080F1AD13046296CFFF71BFF04F19E
:10198C0009095FFA89FA04460028D2D0A96B3346BC
:10199C00696432460120CDE900584AF01001B8477D
:1019AC0038B920460DF5727DBDE8F087BAF1070F06
:1019BC0005D0092420460DF5727DBDE8F087204640
:1019CC00296CFFF773FF03A8FEF79AFBF0B54FF0F5
:1019DC00FF37CB6BF9B00B6401AC01F1040C0E4674
:1019EC000546BCE80F000FC4BCE80F000FC4BCE8F0
:1019FC000F000FC49CE80F0084E80F00009706E06E
:101A0C006A4629462B6998470828044608D1284677
:101A1C001099FFF7CFFE0028F2D0092079B0F0BD65
:101A2C006846FFF711FF062CF7D131462846FFF721
:101A3C003FFF00BF10B414468461DC6BC160002210
:101A4C001C64194610BCFFF751BF00BF70B5436949
:101A5C00C6680B64AEB90A46036904460D460146D6
:101A6C0002209847072805D008280ED12946204681
:101A7C00FFF71EFF3046296CFFF718FF281DFEF7F5
:101A8C003FFB0122FFF732FFFFDEFFDEC26832B1FF
:101A9C00D1F83CC00022C1F840C0FFF727BFFFF7C8
:101AAC0095BF00BF012910D009D883B90F2A0ED8D1
:101ABC0000EB820252681846009B1A60704703398B
:101ACC0001298CBF02200120704708467047022074
:101ADC00704700BF002300B585B00A4603A90091EA
:101AEC001946FFF7DFFF039805B05DF804FB00BF54
:101AFC00012910D009D883B90F2A0ED8009900EB10
:101B0C0082020968184651607047033901298CBF5D
:101B1C00022001207047084670470220704700BF22
:101B2C00002310B584B003AC039200940A46194606
:101B3C00FFF7DEFF04B010BD70B54FF0FF36D36B6E
:101B4C00ADF50E7D13640DF15C0E02F1040C05462F
:101B5C000C46BCE80F00AEE80F00BCE80F00AEE886
:101B6C000F00BCE80F00AEE80F009CE80F008EE8F9
:101B7C000F00169612E00C2116A86A46FFF7D0FF4C
:101B8C00214616A8A84778B969460820049B16AACE
:101B9C0098470528064608D0092805D06846269996
:101BAC00FFF708FE0028E6D0092616A8FFF74CFE22
:101BBC0030460DF50E7D70BD2DE9F04F9346CA6C85
:101BCC000D4652F8041B89B000F0030C0692002B52
:101BDC0079D002240E0C8DF81D600904F6B2059123
:101BEC0002EB86022F6DBCF1020F08BFAA6B17F037
:101BFC0001078DF81C400CD0584605A900F0A0FA3E
:101C0C0018B9082009B0BDE8F08F092009B0BDE86B
:101C1C00F08F1668002EEFD0B14664469A4600F05D
:101C2C00080101910297BAF1020F48D0B2F8009066
:101C3C00568802F10408AB6C26F001020F215846BD
:101C4C00D718FFF747FF874237D829F001023A44EB
:101C5C00824294BF00220122760006F0020309F0B2
:101C6C00010943EA0903012B47D0022B31D0002B89
:101C7C00CBD114B1002A40F0CA8008F10402D2F88A
:101C8C000090B9F1000FCED1584605A9029F00F083
:101C9C0057FA0028B9D1002FB3D00F215846FFF7BF
:101CAC0019FF0E2102465846FFF73AFF0F215846FE
:101CBC00664AFFF735FF0720A8E70022CCE75668F5
:101CCC0002F10808B7E70902032405918DF81D30CD
:101CDC0088E7D8F8006026F00043002C44D122B1EC
:101CEC00019A002A5AD0002B58D0002E01DA08F1A4
:101CFC000408013308EB8302C1E7ECB9CAB1D8F888
:101D0C000430D8F80020991C4FEAD2723FF47DAF12
:101D1C0005F158010133049100F08C8008F10400A6
:101D2C00FFF7BEFD04AB01462846AFF30080002848
:101D3C0057D108F10802A2E70D215846FFF7CAFE59
:101D4C002B6A8342F5D1AB6A9845F2D14046FFF736
:101D5C00E1FC0F2102465846FFF7E2FE2A4600211D
:101D6C005846FFF7DDFEA6E70D2158460393FFF713
:101D7C00B1FE2A6A039B8242B7D1AA6A9045B4D1BC
:101D8C0000270422C5E90B724244AB626A63D8F89F
:101D9C000020BA4256DB01220292AAE703940026E5
:101DAC001C4608F1040905F158070DE04846049754
:101DBC00FFF776FD0022014604AB2846013609F1F7
:101DCC000409AFF30080E8B9A642EFD10D215846C3
:101DDC00FFF780FE0346049A0620C5E909282B620A
:101DEC0014E704460D215846FFF774FE022CDDF86B
:101DFC001090286224D12B4643F82C9F0620C5E96D
:101E0C00093803E72346D8F80060039C6DE7404689
:101E1C00FFF780FC08F104020446AA632846AFF3DE
:101E2C00008000283FF4F1AE22460F215846FFF700
:101E3C0077FE40E7894658460D21FFF74BFE286296
:101E4C004B46DBE7581C08EB800080E700000000E5
:101E5C000023FFF7B1BE00BF0123FFF7ADBE00BFEB
:101E6C000223FFF7A9BE00BF2DE9F0430646154635
:101E7C001C46C3B0042900F2CD80DFE801F0AC5160
:101E8C00CB2A0300002C40F0C580102A00F2C2803F
:101E9C000368DC0600F1E38020AF3846FEF7A2F9B8
:101EAC00012438460023B16B04FA03F22A4203F1F1
:101EBC00010305D00A4652F804CB1146C0F800C005
:101ECC00042B00F10400EFD13846B163FEF780F922
:101EDC0095E0032C40F09E8094B204EB1243102B3F
:101EEC004FEA124500F2968003681F0700F1BF808D
:101EFC0020AF3846FEF74AF9B26B07EBC50154B177
:101F0C000B4601EBC401D01AE4001D5843F8045BE6
:101F1C008B42FAD122443846B263FEF715F96EE0D3
:101F2C00012C4FEA124895B26DD0052C72D108EBFA
:101F3C000509B9F1200F6DD8B8F10F0F6ED8B9F1B2
:101F4C00100F036800F29B80D90708D5304623F0A8
:101F5C00010343F0020340F8483BFEF7E9F820AFD9
:101F6C003846FEF7E5F8B36B002D00F0B5806D0038
:101F7C006A1E002507EBC8010132043903EB82020B
:101F8C0053F8040B934241F8040FF9D1002D00F0E3
:101F9C009D804146102938BF10216F466B001039C7
:101FAC00013B07EBC1010133043902EB830352F807
:101FBC00040B9A4241F8040FF9D1012C00F08480F3
:101FCC00B8F10F0FB26302D820A8FEF7ADF838466F
:101FDC00FEF7B2F813E0ECB923460124816B371DF0
:101FEC0090B204FA03F202421CBF51F8042B47F8DA
:101FFC0023200133102BF4D1A80400D4B1630020AA
:10200C0043B0BDE8F08308EB0503102B02D8B8F100
:10201C00100F14D1022043B0BDE8F083002DEED098
:10202C0003685A075CD46F463846FEF789F8B26BE2
:10203C006B00A8F11001013B07EBC101B3E703688A
:10204C00DA0759D420AF3846FEF76AF8B36B002D87
:10205C008DD104333846B363FEF75EF8CFE723F037
:10206C001003036000F5E870FEF7BCF814E723F0EA
:10207C000803036000F5A870FEF788F838E7D90765
:10208C0008D523F0010343F0020340F8483BFEF768
:10209C004FF83368580706D5304623F0040340F850
:1020AC00D03BFEF74DF820AF3846FEF741F86846B6
:1020BC00FEF746F8C8F110025200B36BA9F11005F7
:1020CC00013A07EBC80157E720AFC2E7012CC0D09B
:1020DC00B8F10F0FB36392D83846FEF725F88EE7A8
:1020EC006F4623F0040340F8D03BFEF729F838463E
:1020FC00FEF726F8B26B9BE7304623F0030340F85B
:10210C00483BFEF70DF89DE7027A03467AB9427A0E
:10211C00A2B14FF0030C4168013A427208680A1DE3
:10212C005A60020283F808C0000E1A6070470068FB
:10213C00013A1A7202021A60000E7047B020704702
:10214C002DE9F0434FF0000806460D4685B02846B1
:10215C00FFF7DAFFB028044600F0DC80070647D50D
:10216C0000F0F003802B5FD0B02B74D01BD8902BD9
:10217C0000F09C80A02B12D1C3434FF47F6203F07C
:10218C0007031A41010702F47F6201D542F4804231
:10219C00002330461946FFF767FE0028D7D00920E8
:1021AC0005B0BDE8F083C02B6ED1C62800F094803A
:1021BC00C72800F0B48000F0F803C02B00F0C980F1
:1021CC00C82800F0D480C928E9D12846FFF79CFF25
:1021DC000523044601213046220304F00F0402F4C7
:1021EC0070220C442243FFF73FFE0028AFD0D6E705
:1021FC008300DBB21F1D00230DF10C0919460D22C3
:10220C003046CDF80090FFF74DFC039B60064CBFA9
:10221C00DF1BFF1800230D2230461946CDF8009025
:10222C000397FFF765FC92E72846FFF76DFF240242
:10223C002043B0F5004FB2D00023040119463046BC
:10224C00A2B2FFF711FE0028A9D114F4004F18BF59
:10225C004FF001087BE7B12852D0B22800F0AC80D7
:10226C00B3286ED000F0FC03B42B98D0012300F0FF
:10227C0007021A443046194642F40022FFF7F4FDD7
:10228C0000283FF464AF8AE700F0F803D02B86D126
:10229C0000F00702013205230121304642F40022EE
:1022AC00FFF7E2FD00283FF452AF78E700F00D0392
:1022BC000D2B3FF474AF002303AF194600F00F024F
:1022CC0000973046FFF7EEFB00230D2230461946EF
:1022DC000097FFF70DFC3AE72846FFF715FF044679
:1022EC000323220304F00F0402F47022013430465D
:1022FC0019462243FFF7B8FD00283FF428AF4EE7FC
:10230C002846FFF701FF431EDBB20E2B02467FF679
:10231C003FAF44E7B8F1000F3ED0002040E728461D
:10232C00FFF7F2FE431EDBB20E2B02463FF637AF31
:10233C00002304213046FFF797FD00283FF407AF38
:10234C002DE72846FFF7E0FE0123044619463046E8
:10235C0042E7032300F00F0201323046194642F4E3
:10236C002022FFF781FD00283FF4F1AE17E7284645
:10237C00FFF7CAFE0246012102F0F00402F00F0240
:10238C0010340A440523304642EA0432FFF76CFD50
:10239C0000283FF4DCAE02E703AC434641460E2274
:1023AC0030460094FFF77EFB43460F2241463046F1
:1023BC000094FFF79DFBB0E700230DF10C090D22F3
:1023CC0019463046CDF80090FFF76CFB2846FFF716
:1023DC009BFE02064FF00207039C0BD500F07F001A
:1023EC00B840044428460394FFF78EFE030607F119
:1023FC000707F3D4002300FA07F204F50174224412
:10240C00039230460D221946CDF80090FFF770FB71
:10241C009DE600BF01292DE9F0415AD901274FF063
:10242C00000E4FF0FF34BC463B4607E09E464FF093
:10243C00010C1F1B0EEB0C0399420ED9051915F854
:10244C000C50C65CAE42F1D333D00127BC46744667
:10245C00BE440EEB0C039942F0D84FF001084FF03C
:10246C00000E4FF0FF35C4464346176008E09E4609
:10247C004FF0010CA3EB05080EEB0C0399420FD99E
:10248C00461916F80C60C75CB742F0D819D04FF05B
:10249C000108C4467546C6440EEB0C039942EFD8AE
:1024AC000135601C854202D32846C2F80080BDE885
:1024BC00F081BC450ABFE6440CF1010C4FF0010C55
:1024CC00B8E7C4450ABFE6440CF1010C4FF0010C0F
:1024DC00D2E74FF001080025E6E700BF2DE9F04FE9
:1024EC009346ADF21C4D05AA80468A4658461946BD
:1024FC001C46FFF78FFF814613460DF2144243F83A
:10250C00044F9342FBD16CB1601E58440BF1FF3267
:10251C0006AD12F8011FA31A013B5B44824245F839
:10252C002130F6D1059B4A4658460BEB030101932B
:10253C0000F096F9002879D10746054644F400636B
:10254C00AAEB040E0293661EAE4512D308EB050CE3
:10255C001CF8063006AA52F82330CBB127B1019AE9
:10256C009A4284BF1346E31A1D44AE454FF0000750
:10257C00ECD208EB0A00029900F0CEFA8244AAEBE6
:10258C00040EAE45E2D200200DF21C4DBDE8F08FDA
:10259C004F453B4638BF4B469E4218D9591EEA1848
:1025AC0059444244009502E001339E420ED912F880
:1025BC00010B11F8015F8542F6D09E42009D06D9B1
:1025CC00C9F101022A4400279D18BDE7009D4F4523
:1025DC0009F1FF3380F0828005EB090242440BEBDA
:1025EC0009010095CDF80C9002E09F4213D04B46A8
:1025FC0011F8015D12F8010D03F1FF398542F4D099
:10260C00009DDDF80C90013301379F4209D8019BE6
:10261C001D44E71A98E701379F42009DDDF80C90A6
:10262C00F5D960460DF21C4DBDE8F08FA4EB090303
:10263C004B4538BF4B460025013344F40062AAEBEE
:10264C00040E0092661E01930593AE4509D308EB68
:10265C000500835D06AA52F823306BB11D44AE45CC
:10266C00F5D208EB0A00009900F056FA8244AAEB66
:10267C00040EAE45EBD286E7B14517D209F1FF3116
:10268C0005EB09024B465944424402E00133B34284
:10269C000CD212F8017B11F801CFBC45F6D09E424A
:1026AC0004D9C9F101022A44D518CEE7B9F1000FBB
:1026BC003FF46AAF05EB090141440BEB090203E05F
:1026CC00013B5B453FF460AF134611F8017D12F8F6
:1026DC0001CDBC45F4D0019B1D44C0E74B4693E7AC
:1026EC002DE9F0410D460978044690B0002954D0EC
:1026FC006A78002A00F08280AB78002B51D0E87801
:10270C002E68002800F081802B79002B56D02846AB
:10271C0000F0D4F90646204646F4007100F0FCF9AE
:10272C0086425AD8FE2E00F28880801B2718402241
:10273C006846711C00F0C4F87EB16A1E5FFA86FC14
:10274C00901912F8013F03F03F034033A91A6B4470
:10275C006144904203F8401CF3D1013CA35D03F0AB
:10276C003F0340336B4413F8403C1C44A74203D254
:10277C0038E04444A74235D314F806C020460CF088
:10278C003F0C0CF140030DEB030C324629461CF8B0
:10279C00408C00F065F80028EBD1204610B0BDE865
:1027AC00F081007842EA0142B8B140EA03439A4210
:1027BC00214614F8010FF7D14C1EEEE7227862B1D6
:1027CC0031BA01E099421ED0204642EA032314F8A4
:1027DC00012F002AF6D1994215D00024204610B0C2
:1027EC00BDE8F081BB5DB819002BF6D04FF4006149
:1027FC0000F092F90744A742AFD2EEE710B0BDE863
:10280C00F04100F0F3B8C41EC7E7120442EA0162BB
:10281C00217842EA03230029DFD0024601E0002997
:10282C00DBD041EA0200B3EB002F25464FEA002231
:10283C0014F8011FF3D1AC1EAFE7014633462A460C
:10284C00204610B0BDE8F041FFF748BE024B13B173
:10285C00024800F0C5B8704700000000BD29000810
:10286C00032A70B511D940EA01039B071ED1044617
:10287C000B4602E0043A032A1CD91946204653F8A9
:10288C00045B54F8046BAE42F4D0541EAAB1421E41
:10289C00013901E0C3180BD012F801EF11F801CF88
:1028AC00A31AE645F6D0AEEB0C0070BD541EEEE755
:1028BC00184670BD20461946E7E7104670BD00BFAC
:1028CC0070B5860747D0541E002A3ED00346CAB2C4
:1028DC0001E0013C39D303F8012B9D07F9D1032CFE
:1028EC002CD9CDB205EB05250F2C1A4605EB054569
:1028FC0034D9A4F1100C2CF00F0603F1100EB644D1
:10290C004FEA1C1C156055609560D56010327245FD
:10291C00F8D10CF1010214F00C0F03EB021204F0CD
:10292C000F0C13D0ACF1040323F003030433134452
:10293C0042F8045B9A42FBD10CF003042CB1C9B2EF
:10294C001C4403F8011B9C42FBD170BD644613462A
:10295C00002CF4D1F9E703461446C0E7A446E1E79E
:10296C0070B50F4B0F4DAB42A3EB050607D00024FF
:10297C00B61055F8043B01349847A642F9D800F03C
:10298C0021F9094D094B5E1BAB424FEAA60606D056
:10299C00002455F8043B01349847A642F9D870BD81
:1029AC00442D0008442D0008442D00084C2D00082F
:1029BC0038B5074D074C2C1BA41005D0013C55F81D
:1029CC00043D9847002CF9D1BDE8384000F000B91F
:1029DC00502D00084C2D0008704700BF704700BFF9
:1029EC00002301461A46184600F0A8B811F0FF0162
:1029FC0003463AD0820731D1026810B501EB012EA3
:102A0C004EEA0E4E8EEA0204A2F1013323EA0203CF
:102A1C00A4F1013222EA0402134313F0803F0FD1D8
:102A2C0050F8044F84EA0E0CA4F10133ACF10132DE
:102A3C0023EA040322EA0C02134313F0803FEFD085
:102A4C00037823B937E010F8013F002B33D09942BB
:102A5C00F9D110BD8A4229D09A072AD01A78184683
:102A6C000133002AF6D110467047820719D102684B
:102A7C00A2F1013323EA020313F0803F08D150F88E
:102A8C00042FA2F1013323EA020313F0803FF6D0A6
:102A9C0003785BB110F8013F002BFBD1704799070D
:102AAC0005D0184613F8012B002AF8D170471846A8
:102ABC00DDE71846A0E7184610BD00BF20F0030163
:102ACC0010F00300C0F1000051F8043B00F1040CBD
:102ADC004FEACC0C6FF000021CBF22FA0CF213432D
:102AEC004FF0010C4CEA0C2C4CEA0C4CA3EB0C02F6
:102AFC0022EA030212EACC1204BF51F8043B043060
:102B0C00F4D0C2F1000102EA0102B2FA82F2C2F17F
:102B1C001F0200EBD200704771B1034600EB010CB1
:102B2C0001E0634506D01A46117801330029F8D12B
:102B3C00101A7047181A7047084670472DE9F0476D
:102B4C00DFF874A00646DAF8000098460F46914666
:102B5C00FFF742FF194B1C6824B365681F2D24DC5A
:102B6C005EB96B1C0235DAF80000636044F825701E
:102B7C00FFF734FF0020BDE8F087012304EB85014B
:102B8C00C1F88890D4F88821AB401A43022EC4F8BF
:102B9C008821C1F80881E4D1D4F88C211A43C4F8F7
:102BAC008C21DEE7064C1C60D7E7DAF80000FFF753
:102BBC0015FF4FF0FF30DEE70C0000207C000020FA
:102BCC0084000020F8B500BFF8BC08BC9E467047D6
:0C2BDC00F8B500BFF8BC08BC9E4670476E
:102BE8005C300000736F6D65207374720000000024
:102BF80000000000000000000102030406070809A5
:102C080007970181B0B00884000000000397018194
:102C1800B0B008840000000003970181B0B00884B8
:102C28000000000005970181B0B008840000000092
:102C380009970181B0B0088400000000079701815E
:102C4800B0B008840000000003970181B0B0088488
:042C58000000000078
:102C5C00D4D7FF7F010000001CD8FF7FA0FFFF7FAF
:102C6C00FCD8FF7FA4FFFF7F68D9FF7FA8FFFF7F01
:102C7C0098D9FF7F010000003CDBFF7FA4FFFF7FA2
:102C8C009CDBFF7F010000005CDCFF7FA0FFFF7F6F
:102C9C00E4DCFF7F0100000010E6FF7F9CFFFF7F5C
:102CAC00ECE6FF7FA0FFFF7F24E7FF7FAB0E978052
:102CBC00B4E8FF7F01000000FCEAFF7FB0A90280AE
:102CCC0088EBFF7FB0B0A880D8EBFF7F010000003D
:102CDC00E0EBFF7FB0B0AA8014ECFF7FAE71B28046
:102CEC00ECECFF7FAB3F38804CEDFF7F0100000028
:102CFC005CEDFF7FB0B0AA8094EDFF7F0100000077
:102D0C0038EEFF7FAA0DB280B0EEFF7FB0AF088027
:102D1C0040F1FF7F0100000050F1FF7FAD3F0280CA
:102D2C00E8F3FF7F0100000018F4FF7FB0AD0480D2
:082D3C00E4F6FF7F0100000036
:082D4400592800080D040008E5
:042D4C00E503000893
:102D5000010200000024F4000100000080000020B7
:04000005080016D504
:00000001FF
