:020000040800F2
:1000000000500020590A0008F5080008FB08000805
:1000100001090008070900080D0900080000000098
:1000200000000000000000000000000013090008AC
:100030001F090008000000002B090008370900080C
:10004000A10A0008A10A0008A10A0008A10A0008E4
:10005000A10A0008A10A0008A10A0008A10A0008D4
:10006000A10A0008A10A0008A10A0008A10A0008C4
:10007000A10A0008A10A0008A10A0008A10A0008B4
:10008000A10A0008A10A0008A10A0008A10A0008A4
:10009000A10A0008A10A0008A10A0008A10A000894
:1000A000A10A0008A10A0008A10A0008A10A000884
:1000B000A10A0008A10A0008A10A0008A10A000874
:1000C000A10A0008A10A0008A10A0008A10A000864
:1000D000A10A0008A10A0008A10A0008A10A000854
:1000E000A10A0008A10A0008A10A000800000000F7
:1000F0000000000000000000000000000000000000
:0C01000000000000000000005FF808F1A3
:10010C0000F1340191E838009C46A6464CF8045D99
:10011C0090E8FF0FE54600BD90EC210B704700BF47
:10012C0080EC210B704700BF90EC200B704700BF98
:10013C0080EC200B704700BFD0EC200B704700BF49
:10014C00C0EC200B704700BFF0EC0201F0EC021188
:10015C00F0EC0221F0EC0231F0EC0241F0EC025137
:10016C00F0EC0261F0EC0271F0EC0281F0EC029127
:10017C00F0EC02A1F0EC02B1F0EC02C1F0EC02D117
:10018C00F0EC02E1F0EC02F1704700BFE0EC020190
:10019C00E0EC0211E0EC0221E0EC0231E0EC024177
:1001AC00E0EC0251E0EC0261E0EC0271E0EC028167
:1001BC00E0EC0291E0EC02A1E0EC02B1E0EC02C157
:1001CC00E0EC02D1E0EC02E1E0EC02F1704700BFA0
:1001DC00B0FC0181B0FC0191B0FC01A1B0FC01B1FB
:1001EC00704700BFA0FC0181A0FC0191A0FC01A103
:1001FC00A0FC01B1704700BFEC4600B52DE90050E2
:10020C002DE9FF1F4FF000032DE90C0001A900F0B0
:10021C009FFDDDF840E012B0704700BFEC4600B522
:10022C002DE900502DE9FF1F4FF000032DE90C00C4
:10023C0001A900F0CDFDDDF840E012B0704700BF21
:10024C00EC4600B52DE900502DE9FF1F4FF00003DF
:10025C002DE90C0001A900F0DBFDDDF840E012B047
:10026C00704700BFEC4600B52DE900502DE9FF1F8B
:10027C004FF000032DE90C0001AB00F09DFDDDF803
:10028C0040E012B0704700BFEC4600B52DE90050BD
:10029C002DE9FF1F4FF000032DE90C0001AA00F01F
:1002AC000DFEDDF840E012B0704700BF844641EA15
:1002BC00000313F0030349D1403A23D30B680360C6
:1002CC004B6843608B688360CB68C3600B690361C8
:1002DC004B6943618B698361CB69C3610B6A0362B0
:1002EC004B6A43628B6A8362CB6AC3620B6B036398
:1002FC004B6B43638B6B8363CB6BC363403040317D
:10030C00403ADBD230320BD30B6803604B6843604E
:10031C008B688360CB68C36010301031103AF3D215
:10032C000C3205D351F8043B40F8043B043AF9D2A3
:10033C00043208D0D2071CBF11F8013B00F8013B76
:10034C0001D30B8803806046704700BF082A13D383
:10035C008B07B1D010F00303AED0C3F10403D21A53
:10036C00DB071CBF11F8013B00F8013BA4D331F8AB
:10037C00023B20F8023B9FE7043AD9D3013A11F82B
:10038C00013B00F8013BF9D20B7803704B784370BA
:10039C008B788370604670470348044B834202D0CD
:1003AC00034B03B1184770470C0000200C000020D1
:1003BC00000000000548064B1B1AD90F01EBA301E6
:1003CC00491002D0034B03B1184770470C000020B2
:1003DC000C0000200000000010B5064C237843B937
:1003EC00FFF7DAFF044B13B10448AFF3008001238D
:1003FC00237010BD0C00002000000000CC18000879
:10040C0008B5054B1BB105490548AFF30080BDE8A5
:10041C000840FFF7CFBF00BF000000001000002015
:10042C00CC18000880B485B000AF78600023FB7353
:10043C00264B1B6803F00203002B14BF012300237F
:10044C00DBB2002B06D1FB7BFF2B36D0FB7B0133C1
:10045C00FB73EDE700BF1D4B5B681C4A43F4E013D4
:10046C0053601A4B5B68194A43F002035360174BF5
:10047C005B68164A23F480335360144B1B68134A91
:10048C0043F0807313600023BB73104B1B6803F0A5
:10049C000073002B14BF01230023DBB2002B0ED101
:1004AC00BB7BFF2B05D1094B1B68084A23F08073DB
:1004BC001360BB7B0133BB73E7E700BF00E000BFF9
:1004CC007B6818461437BD4680BC7047001002404C
:1004DC0080B582B000AF78600C4B9B690B4A43F03F
:1004EC00100393610A4B5B68094A43F44013536051
:1004FC00074B5B68064A23F440035360786800F0AE
:10050C001BF87B6818460837BD4680BD00100240BA
:10051C000010014080B483B000AF7860054BDB68FD
:10052C00044A23F40053D36000BF0C37BD4680BC93
:10053C00704700BF0010014080B483B000AF7860FA
:10054C00054BDB68044A43F40053D36000BF0C37FF
:10055C00BD4680BC704700BF0010014080B485B020
:10056C0000AF78600B46FB700023FB8100237B738C
:10057C0008E0FB890133FB81FB89B3F5704F01D394
:10058C0001239DE0514B9B6803F08063002B0CBF53
:10059C0001230023DBB2002BEBD10023FB814B4B5F
:1005AC000022C3F88821494B0022C3F88C2166E055
:1005BC00FB89072B33D9454BD3F88031434A43F0A1
:1005CC000103C2F88031FB89DBB2FA78D31AFB70D5
:1005DC007B7B01337B7308E0FB890133FB81FB8957
:1005EC00B3F5704F01D301236AE0384B9B6803F0DD
:1005FC008063002B0CBF01230023DBB2002BEBD15B
:10060C00324B9B6803F00203002B0023FB812F4B22
:10061C000022C3F888212D4B0022C3F88C21FB89C2
:10062C00032B14D8294BD3F88821F9897B7BDB0069
:10063C000B4419467B680B441B781946FB89DB007D
:10064C0001FA03F321491343C1F8883114E01F4B1D
:10065C00D3F88C21F9897B7BDB000B4419467B6832
:10066C000B441B781946FB89043BDB0001FA03F3AE
:10067C0016491343C1F88C31FB890133FB81FB789C
:10068C009BB2FA899A4293D3104BD3F880310F4A1C
:10069C0043F00103C2F880310C4B9B6803F002035A
:1006AC00002B14BF01230023DBB2002B01D000234D
:1006BC0006E0064B9B691B09DBB203F00703DBB2B8
:1006CC0018461437BD4680BC704700BF006400401C
:1006DC0080B489B000AF7860664B00229A61654B9C
:1006EC000022DA61634BDB69624A43F00073D36129
:1006FC00604B9B695F4A43F00403936100233B61A9
:10070C0040F24643BB6000237B610223BB615A4B22
:10071C005B68594A23F440535360574B5B68564A05
:10072C0023F440435360544B5B68534A43F40043F7
:10073C005360514B5B68504A23F4402353604E4B3B
:10074C005B684D4A43F4002353604B4B5B684A4A49
:10075C0043F440335360494B1B68484A43F0010350
:10076C00136000BF454B5B6803F00103002B0CBF0B
:10077C0001230023DBB2002BF4D1404B1B683F4A12
:10078C0043F0100313603D4B1B683C4A43F02003BD
:10079C0013603A4BDB69394A23F00043D361374B82
:1007AC00DB69364A23F08043D361344BDB69334A2F
:1007BC0023F47F7323F00303D361304BDB692F4A9F
:1007CC0043F02703D3612D4BDB692C4A23F47023B0
:1007DC00D3612A4BDB69294A43F43023D361274B7D
:1007EC00DB69264A23F4E003D361244BDB69234AFB
:1007FC0043F48013D361214BD3F880311F4A23F08B
:10080C000203C2F880311D4BD3F880311B4A23F010
:10081C000403C2F88031194BD3F88031174AC3F363
:10082C001403C2F88031154BD3F88031134A43F0CE
:10083C00C24343F40013C2F88031104BD3F8843117
:10084C000E4A23F00F03C2F884310C4BD3F88431D9
:10085C000A4A43F00803C2F88431084B1B68074A64
:10086C0023F0010313607B6818462437BD4680BC17
:10087C00704700BF001002400008014000640040B7
:10088C0080B588B000AF07F11C031846FFF7CAFD0E
:10089C0007F118031846FFF71BFE07F1180318465B
:1008AC00FFF738FE00F04EF80D4B1B687B6107F12B
:1008BC0010031846FFF70CFF0023FB77094A07F1DA
:1008CC00080392E803001860043319700023FB80BE
:1008DC0007F1080305211846FFF740FEFEE700BFAD
:1008EC0000000020E418000880B400AFFEE780B4DC
:1008FC0000AFFEE780B400AFFEE780B400AFFEE7C8
:10090C0080B400AFFEE780B400AF00BFBD4680BC32
:10091C00704780B400AF00BFBD4680BC704780B448
:10092C0000AF00BFBD4680BC704780B500AF00F083
:10093C007BF800BF80BD80B400AF00BFBD4680BC5B
:10094C007047000080B485B000AF0023FB6000232B
:10095C00BB6000237B602F4B5B6803F00C03FB60D8
:10096C00FB68082B11D0FB68082B3AD8FB68002BCE
:10097C0003D0FB68042B04D033E0274B274A1A60C2
:10098C0033E0254B254A1A602FE0224B5B6803F4B9
:10099C007013BB601F4B5B6803F480337B60BB68D8
:1009AC009B0C0233BB607B68002B06D1BB681C4AD6
:1009BC0002FB03F3184A136017E0164B5B6803F451
:1009CC000033002B06D0BB68154A02FB03F3124A16
:1009DC0013600AE0BB68114A02FB03F30E4A136072
:1009EC0003E00D4B0D4A1A6000BF0A4B5B681B09F4
:1009FC0003F00F030B4AD35CFB60074B1A68FB68D0
:100A0C0022FA03F3044A136000BF1437BD4680BCBE
:100A1C00704700BF001002400000002000127A0056
:100A2C0000093D00EC18000880B400AF054B1B78A2
:100A3C001A46054B1B681344034A136000BFBD469E
:100A4C0080BC70470400002028000020FFF773FFD3
:100A5C000B480C490C4A002302E0D458C450043310
:100A6C00C4188C42F9D3094A094C002301E01360E5
:100A7C000432A242FBD300F099FEFFF701FF70474E
:100A8C00000000200C000020AC1900080C00002015
:100A9C00C4010020FEE7000003685A004CBF43F07D
:100AAC00004323F000431844704700BF2DE9F8437E
:100ABC0041B301F1FF380546164647460024E119BB
:100ACC0001EBD171491005EBC1094846FFF7E4FF72
:100ADC00884503464FEAC1020ED002F10800B3422A
:100AEC0028440BD8FFF7D8FF0138B04201F10104BC
:100AFC00E5D34846BDE8F883B042FAD98C4201D020
:100B0C004F1EDCE74FF000094846BDE8F88300BFF4
:100B1C00012807D0022807D0044B00280CBF184628
:100B2C00002070470248704702487047E1110008E6
:100B3C00E9110008F111000830B5214B044683B0CF
:100B4C008D1E13B3284601A9AFF3008088B3019919
:100B5C002A46FFF7ABFF014658B3FFF79DFF4B68E2
:100B6C00A064012B28D0002B20DB081DFFF794FF7D
:100B7C00002323650368E064002B0DDBFFF78CFF7B
:100B8C0003460020236103B030BD0E4B0E491846BE
:100B9C00C91AC9100191DBE7C3F30360FFF7B8FF73
:100BAC00034630B10020236103B030BD0123081D82
:100BBC00DFE700230920E5E700230520E2E700BF7B
:100BCC000000000008190008A0190008036810B5FF
:100BDC00DA07044606D49B0700F1480009D5FFF755
:100BEC00A3FA2368590709D51A070ED5DB0613D5C6
:100BFC0010BDFFF791FA23685907F5D404F1D00022
:100C0C00FFF79AFA23681A07F0D404F5A870FFF7D7
:100C1C009BFA2368DB06EBD404F5E870BDE81040C2
:100C2C00FFF7D6BA0346006800B11844704700BFFE
:100C3C00704700BF70B504460E462046316CFFF776
:100C4C007BFF054698B9D6F840C0324621460120B4
:100C5C002369C4F814C098470828EED0072806D199
:100C6C002846316CFFF7E4FF301DFFF749FAFFDE31
:100C7C002DE9F0474FF0000AADF5727D0DF10C0E29
:100C8C0001F1040CC768D0F8188006461446BCE87D
:100C9C000F00AEE80F00BCE80F00AEE80F00BCE898
:100CAC000F00AEE80F009CE80F0002AD8EE80F00BD
:100CBC00C5F800A021E02B6C4FF4F072294673614B
:100CCC007AA8FFF7F3FA3146504633697AAA984767
:100CDC00889C82466C643346324649460120CDE9F5
:100CEC000058B847044630BB4FF4F07228467AA936
:100CFC00FFF7DCFABAF1080F1AD13046296CFFF76E
:100D0C001BFF04F109095FFA89FA04460028D2D0C6
:100D1C00A96B3346696432460120CDE900584AF08C
:100D2C001001B84738B920460DF5727DBDE8F08743
:100D3C00BAF1070F05D0092420460DF5727DBDE8E8
:100D4C00F0872046296CFFF773FF03A8FFF7D8F94B
:100D5C00F0B54FF0FF37CB6BF9B00B6401AC01F180
:100D6C00040C0E460546BCE80F000FC4BCE80F008F
:100D7C000FC4BCE80F000FC49CE80F0084E80F0000
:100D8C00009706E06A4629462B69984708280446CE
:100D9C0008D128461099FFF7CFFE0028F2D0092081
:100DAC0079B0F0BD6846FFF711FF062CF7D131463C
:100DBC002846FFF73FFF00BF10B414468461DC6B7C
:100DCC00C16000221C64194610BCFFF751BF00BF64
:100DDC0070B54369C6680B64AEB90A46036904462C
:100DEC000D46014602209847072805D008280ED149
:100DFC0029462046FFF71EFF3046296CFFF718FFE7
:100E0C00281DFFF77DF90122FFF732FFFFDEFFDE21
:100E1C00C26832B1D1F83CC00022C1F840C0FFF723
:100E2C0027BFFFF795BF00BF012910D009D883B9A0
:100E3C000F2A0ED800EB820252681846009B1A60EB
:100E4C007047033901298CBF0220012070470846E6
:100E5C0070470220704700BF002300B585B00A46DA
:100E6C0003A900911946FFF7DFFF039805B05DF861
:100E7C0004FB00BF012910D009D883B90F2A0ED862
:100E8C00009900EB820209681846516070470339DB
:100E9C0001298CBF022001207047084670470220B0
:100EAC00704700BF002310B584B003AC03920094CC
:100EBC000A461946FFF7DEFF04B010BD70B54FF0BF
:100ECC00FF36D36BADF50E7D13640DF15C0E02F1A4
:100EDC00040C05460C46BCE80F00AEE80F00BCE85D
:100EEC000F00AEE80F00BCE80F00AEE80F009CE866
:100EFC000F008EE80F00169612E00C2116A86A4619
:100F0C00FFF7D0FF214616A8A84778B969460820F4
:100F1C00049B16AA98470528064608D0092805D030
:100F2C0068462699FFF708FE0028E6D0092616A881
:100F3C00FFF74CFE30460DF50E7D70BD2DE9F04FE0
:100F4C009346CA6C0D4652F8041B89B000F0030C92
:100F5C000692002B79D002240E0C8DF81D6009042A
:100F6C00F6B2059102EB86022F6DBCF1020F08BFA1
:100F7C00AA6B17F001078DF81C400CD0584605A938
:100F8C0000F0A0FA18B9082009B0BDE8F08F0920CC
:100F9C0009B0BDE8F08F1668002EEFD0B14664465C
:100FAC009A4600F0080101910297BAF1020F48D05D
:100FBC00B2F80090568802F10408AB6C26F00102DE
:100FCC000F215846D718FFF747FF874237D829F02B
:100FDC0001023A44824294BF00220122760006F0BC
:100FEC00020309F0010943EA0903012B47D0022B44
:100FFC0031D0002BCBD114B1002A40F0CA8008F1BB
:10100C000402D2F80090B9F1000FCED1584605A9D0
:10101C00029F00F057FA0028B9D1002FB3D00F214E
:10102C005846FFF719FF0E2102465846FFF73AFFC4
:10103C000F215846664AFFF735FF0720A8E7002224
:10104C00CCE7566802F10808B7E7090203240591BA
:10105C008DF81D3088E7D8F8006026F00043002C8E
:10106C0044D122B1019A002A5AD0002B58D0002E1C
:10107C0001DA08F10408013308EB8302C1E7ECB98B
:10108C00CAB1D8F80430D8F80020991C4FEAD272B3
:10109C003FF47DAF05F158010133049100F08C80D1
:1010AC0008F10400FFF7BEFD04AB01462846AFF380
:1010BC000080002857D108F10802A2E70D215846FC
:1010CC00FFF7CAFE2B6A8342F5D1AB6A9845F2D181
:1010DC004046FFF7E1FC0F2102465846FFF7E2FEBF
:1010EC002A4600215846FFF7DDFEA6E70D2158469B
:1010FC000393FFF7B1FE2A6A039B8242B7D1AA6A17
:10110C009045B4D100270422C5E90B724244AB626E
:10111C006A63D8F80020BA4256DB01220292AAE791
:10112C00039400261C4608F1040905F158070DE04C
:10113C0048460497FFF776FD0022014604AB28468B
:10114C00013609F10409AFF30080E8B9A642EFD1EA
:10115C000D215846FFF780FE0346049A0620C5E988
:10116C0009282B6214E704460D215846FFF774FE3C
:10117C00022CDDF81090286224D12B4643F82C9FCA
:10118C000620C5E9093803E72346D8F80060039C1C
:10119C006DE74046FFF780FC08F104020446AA63A1
:1011AC002846AFF3008000283FF4F1AE22460F2111
:1011BC005846FFF777FE40E7894658460D21FFF762
:1011CC004BFE28624B46DBE7581C08EB800080E79F
:1011DC00000000000023FFF7B1BE00BF0123FFF7A2
:1011EC00ADBE00BF0223FFF7A9BE00BF2DE9F0433F
:1011FC00064615461C46C3B0042900F2CD80DFE834
:10120C0001F0AC51CB2A0300002C40F0C580102A11
:10121C0000F2C2800368DC0600F1E38020AF3846A0
:10122C00FEF7E0FF012438460023B16B04FA03F209
:10123C002A4203F1010305D00A4652F804CB1146A9
:10124C00C0F800C0042B00F10400EFD13846B163A4
:10125C00FEF7BEFF95E0032C40F09E8094B204EBA9
:10126C001243102B4FEA124500F2968003681F07B9
:10127C0000F1BF8020AF3846FEF788FFB26B07EB5A
:10128C00C50154B10B4601EBC401D01AE4001D5842
:10129C0043F8045B8B42FAD122443846B263FEF722
:1012AC0053FF6EE0012C4FEA124895B26DD0052C1D
:1012BC0072D108EB0509B9F1200F6DD8B8F10F0FF9
:1012CC006ED8B9F1100F036800F29B80D90708D5CE
:1012DC00304623F0010343F0020340F8483BFEF78D
:1012EC0027FF20AF3846FEF723FFB36B002D00F02D
:1012FC00B5806D006A1E002507EBC8010132043968
:10130C0003EB820253F8040B934241F8040FF9D11A
:10131C00002D00F09D804146102938BF10216F46EA
:10132C006B001039013B07EBC1010133043902EBAF
:10133C00830352F8040B9A4241F8040FF9D1012CA3
:10134C0000F08480B8F10F0FB26302D820A8FEF72A
:10135C00EBFE3846FEF7F0FE13E0ECB92346012411
:10136C00816B371D90B204FA03F202421CBF51F894
:10137C00042B47F823200133102BF4D1A80400D4FC
:10138C00B163002043B0BDE8F08308EB0503102BDC
:10139C0002D8B8F1100F14D1022043B0BDE8F0838D
:1013AC00002DEED003685A075CD46F463846FEF722
:1013BC00C7FEB26B6B00A8F11001013B07EBC1013A
:1013CC00B3E70368DA0759D420AF3846FEF7A8FE16
:1013DC00B36B002D8DD104333846B363FEF79CFEFE
:1013EC00CFE723F01003036000F5E870FEF7FAFE78
:1013FC0014E723F00803036000F5A870FEF7C6FE9F
:10140C0038E7D90708D523F0010343F0020340F86D
:10141C00483BFEF78DFE3368580706D5304623F05F
:10142C00040340F8D03BFEF78BFE20AF3846FEF7A6
:10143C007FFE6846FEF784FEC8F110025200B36BC3
:10144C00A9F11005013A07EBC80157E720AFC2E735
:10145C00012CC0D0B8F10F0FB36392D83846FEF709
:10146C0063FE8EE76F4623F0040340F8D03BFEF793
:10147C0067FE3846FEF764FEB26B9BE7304623F0FE
:10148C00030340F8483BFEF74BFE9DE7027A034608
:10149C007AB9427AA2B14FF0030C4168013A427218
:1014AC0008680A1D5A60020283F808C0000E1A6010
:1014BC0070470068013A1A7202021A60000E7047F7
:1014CC00B02070472DE9F0434FF0000806460D465A
:1014DC0085B02846FFF7DAFFB028044600F0DC8020
:1014EC00070647D500F0F003802B5FD0B02B74D0EB
:1014FC001BD8902B00F09C80A02B12D1C3434FF42F
:10150C007F6203F007031A41010702F47F6201D5E1
:10151C0042F48042002330461946FFF767FE00284C
:10152C00D7D0092005B0BDE8F083C02B6ED1C628FA
:10153C0000F09480C72800F0B48000F0F803C02BB2
:10154C0000F0C980C82800F0D480C928E9D1284609
:10155C00FFF79CFF0523044601213046220304F0CB
:10156C000F0402F470220C442243FFF73FFE0028C4
:10157C00AFD0D6E78300DBB21F1D00230DF10C09A1
:10158C0019460D223046CDF80090FFF74DFC039B19
:10159C0060064CBFDF1BFF1800230D223046194696
:1015AC00CDF800900397FFF765FC92E72846FFF70C
:1015BC006DFF24022043B0F5004FB2D0002304018C
:1015CC0019463046A2B2FFF711FE0028A9D114F437
:1015DC00004F18BF4FF001087BE7B12852D0B2285A
:1015EC0000F0AC80B3286ED000F0FC03B42B98D084
:1015FC00012300F007021A443046194642F4002237
:10160C00FFF7F4FD00283FF464AF8AE700F0F8031D
:10161C00D02B86D100F00702013205230121304680
:10162C0042F40022FFF7E2FD00283FF452AF78E7C6
:10163C0000F00D030D2B3FF474AF002303AF1946DC
:10164C0000F00F0200973046FFF7EEFB00230D224F
:10165C00304619460097FFF70DFC3AE72846FFF78E
:10166C0015FF04460323220304F00F0402F4702236
:10167C000134304619462243FFF7B8FD00283FF4E9
:10168C0028AF4EE72846FFF701FF431EDBB20E2BB7
:10169C0002467FF63FAF44E7B8F1000F3ED0002082
:1016AC0040E72846FFF7F2FE431EDBB20E2B024644
:1016BC003FF637AF002304213046FFF797FD002893
:1016CC003FF407AF2DE72846FFF7E0FE0123044661
:1016DC001946304642E7032300F00F020132304630
:1016EC00194642F42022FFF781FD00283FF4F1AEA9
:1016FC0017E72846FFF7CAFE0246012102F0F00464
:10170C0002F00F0210340A440523304642EA043238
:10171C00FFF76CFD00283FF4DCAE02E703AC434658
:10172C0041460E2230460094FFF77EFB43460F22C3
:10173C00414630460094FFF79DFBB0E700230DF1C6
:10174C000C090D2219463046CDF80090FFF76CFBC2
:10175C002846FFF79BFE02064FF00207039C0BD5B1
:10176C0000F07F00B840044428460394FFF78EFE37
:10177C00030607F10707F3D4002300FA07F204F578
:10178C0001742244039230460D221946CDF8009084
:10179C00FFF770FB9DE600BF024B13B1024800F04F
:1017AC0045B87047000000000918000870B50F4BD1
:1017BC000F4DAB42A3EB050607D00024B61055F82D
:1017CC00043B01349847A642F9D800F079F8094D4A
:1017DC00094B5E1BAB424FEAA60606D0002455F817
:1017EC00043B01349847A642F9D870BDA0190008F3
:1017FC00A0190008A0190008A819000838B5074D51
:10180C00074C2C1BA41005D0013C55F8043D9847FF
:10181C00002CF9D1BDE8384000F058B8AC190008DC
:10182C00A8190008704700BF704700BF002301468D
:10183C001A46184600F000B82DE9F047DFF874A0FE
:10184C000646DAF8000098460F469146FFF7EAFF85
:10185C00194B1C6824B365681F2D24DC5EB96B1C06
:10186C000235DAF80000636044F82570FFF7DCFFFE
:10187C000020BDE8F087012304EB8501C1F88890B6
:10188C00D4F88821AB401A43022EC4F88821C1F841
:10189C000881E4D1D4F88C211A43C4F88C21DEE7FA
:1018AC00064C1C60D7E7DAF80000FFF7BDFF4FF0DD
:1018BC00FF30DEE7080000202C0000203400002060
:1018CC00F8B500BFF8BC08BC9E467047F8B500BF21
:0818DC00F8BC08BC9E467047F1
:1018E4006675636B0000000000000000000000004B
:0818F4000102030406070809C4
:0C18FC0007970181B0B0088400000000D4
:1019080028EBFF7F010000007CEFFF7FE8FFFF7FEF
:10191800DCEFFF7F0100000024F2FF7FB0A9028006
:10192800B0F2FF7FB0B0A88000F3FF7F0100000095
:1019380008F3FF7FB0B0AA803CF3FF7FAE71B2809E
:1019480014F4FF7FAB3F388074F4FF7F0100000080
:1019580084F4FF7FB0B0AA80BCF4FF7F01000000D0
:1019680060F5FF7FAA0DB280D8F5FF7FB0AF088081
:1019780068F8FF7F0100000078F8FF7FAD3F028024
:1019880010FBFF7F0100000040FBFF7FB0AD04802B
:081998000CFEFF7F01000000BE
:0819A000A51700080D04000862
:0419A800E50300084B
:0C19AC000024F4000100000030000020C6
:0400000508000A598C
:00000001FF
