:020000040800F2
:100000000050002051120008ED100008F310000805
:10001000F9100008FF10000805110008000000009A
:100020000000000000000000000000000B110008AC
:100030001711000800000000231100082F1100080C
:1000400099120008991200089912000899120008E4
:1000500099120008991200089912000899120008D4
:1000600099120008991200089912000899120008C4
:1000700099120008991200089912000899120008B4
:1000800099120008991200089912000899120008A4
:100090009912000899120008991200089912000894
:1000A0009912000899120008991200089912000884
:1000B0009912000899120008991200089912000874
:1000C0009912000899120008991200089912000864
:1000D0009912000899120008991200089912000854
:1000E00099120008991200089912000800000000F7
:1000F0000000000000000000000000000000000000
:0C01000000000000000000005FF808F1A3
:1001100000F1340191E838009C46A6464CF8045D95
:1001200090E8FF0FE54600BD90EC210B704700BF43
:1001300080EC210B704700BF90EC200B704700BF94
:1001400080EC200B704700BFD0EC200B704700BF45
:10015000C0EC200B704700BFF0EC0201F0EC021184
:10016000F0EC0221F0EC0231F0EC0241F0EC025133
:10017000F0EC0261F0EC0271F0EC0281F0EC029123
:10018000F0EC02A1F0EC02B1F0EC02C1F0EC02D113
:10019000F0EC02E1F0EC02F1704700BFE0EC02018C
:1001A000E0EC0211E0EC0221E0EC0231E0EC024173
:1001B000E0EC0251E0EC0261E0EC0271E0EC028163
:1001C000E0EC0291E0EC02A1E0EC02B1E0EC02C153
:1001D000E0EC02D1E0EC02E1E0EC02F1704700BF9C
:1001E000B0FC0181B0FC0191B0FC01A1B0FC01B1F7
:1001F000704700BFA0FC0181A0FC0191A0FC01A1FF
:10020000A0FC01B1704700BFEC4600B52DE90050DD
:100210002DE9FF1F4FF000032DE90C0001A901F0AB
:1002200099F9DDF840E012B0704700BFEC4600B528
:100230002DE900502DE9FF1F4FF000032DE90C00C0
:1002400001A901F0C7F9DDF840E012B0704700BF26
:10025000EC4600B52DE900502DE9FF1F4FF00003DB
:100260002DE90C0001A901F0D5F9DDF840E012B04C
:10027000704700BFEC4600B52DE900502DE9FF1F87
:100280004FF000032DE90C0001AB01F097F9DDF808
:1002900040E012B0704700BFEC4600B52DE90050B9
:1002A0002DE9FF1F4FF000032DE90C0001AA01F01A
:1002B00007FADDF840E012B0704700BF844641EA1B
:1002C000000313F0030349D1403A23D30B680360C2
:1002D0004B6843608B688360CB68C3600B690361C4
:1002E0004B6943618B698361CB69C3610B6A0362AC
:1002F0004B6A43628B6A8362CB6AC3620B6B036394
:100300004B6B43638B6B8363CB6BC3634030403178
:10031000403ADBD230320BD30B6803604B6843604A
:100320008B688360CB68C36010301031103AF3D211
:100330000C3205D351F8043B40F8043B043AF9D29F
:10034000043208D0D2071CBF11F8013B00F8013B72
:1003500001D30B8803806046704700BF082A13D37F
:100360008B07B1D010F00303AED0C3F10403D21A4F
:10037000DB071CBF11F8013B00F8013BA4D331F8A7
:10038000023B20F8023B9FE7043AD9D3013A11F827
:10039000013B00F8013BF9D20B7803704B784370B6
:1003A0008B7883706046704781F0004102E000BFA7
:1003B00083F0004330B54FEA41044FEA430594EA25
:1003C000050F08BF90EA020F1FBF54EA000C55EA60
:1003D000020C7FEA645C7FEA655C00F0E2804FEA31
:1003E0005454D4EB5555B8BF6D420CDD2C4480EA13
:1003F000020281EA030382EA000083EA010180EA43
:10040000020281EA0303362D88BF30BD11F0004F90
:100410004FEA01314FF4801C4CEA113102D04042C6
:1004200061EB410113F0004F4FEA03334CEA133301
:1004300002D0524263EB430394EA050F00F0A78019
:10044000A4F10104D5F1200E0DDB02FA0EFC22FA14
:1004500005F2801841F1000103FA0EF2801843FA08
:1004600005F359410EE0A5F120050EF1200E012AF9
:1004700003FA0EFC28BF4CF0020C43FA05F3C01837
:1004800051EBE37101F0004507D54FF0000EDCF1B0
:10049000000C7EEB00006EEB0101B1F5801F1BD359
:1004A000B1F5001F0CD349085FEA30004FEA3C0C5D
:1004B00004F101044FEA445212F5800F80F09A8053
:1004C000BCF1004F08BF5FEA500C50F1000041EB57
:1004D000045141EA050130BD5FEA4C0C404141EB5B
:1004E0000101013C28BFB1F5801FE9D291F0000F56
:1004F00004BF01460020B1FA81F308BF2033A3F105
:100500000B03B3F120020CDA0C3208DD02F1140CFB
:10051000C2F10C0201FA0CF021FA02F10CE002F136
:100520001402D8BFC2F1200C01FA02F120FA0CFC2F
:10053000DCBF41EA0C019040E41AA2BF01EB045178
:10054000294330BD6FEA04041F3C1CDA0C340EDC76
:1005500004F11404C4F1200220FA04F001FA02F3B9
:1005600040EA030021FA04F345EA030130BDC4F177
:100570000C04C4F1200220FA02F001FA04F340EA6C
:100580000300294630BD21FA04F0294630BD94F01D
:10059000000F83F4801306BF81F480110134013D04
:1005A0004EE77FEA645C18BF7FEA655C29D094EA75
:1005B000050F08BF90EA020F05D054EA000C04BFF3
:1005C0001946104630BD91EA030F1EBF00210020DE
:1005D00030BD5FEA545C05D14000494128BF41F07D
:1005E000004130BD14F580043CBF01F5801130BDE1
:1005F00001F0004545F0FE4141F470014FF000006C
:1006000030BD7FEA645C1ABF194610467FEA655C1C
:100610001CBF0B46024650EA013406BF52EA0335BE
:1006200091EA030F41F4002130BD00BF90F0000FAC
:1006300004BF0021704730B54FF4806404F13204E8
:100640004FF000054FF0000150E700BF90F0000FA1
:1006500004BF0021704730B54FF4806404F13204C8
:1006600010F0004548BF40424FF000013EE700BF98
:1006700042004FEAE2014FEA31014FEA02701FBF28
:1006800012F07F4393F07F4F81F06051704732F05A
:100690007F4208BF704793F07F4F04BF41F40021B1
:1006A000704730B54FF4607401F0004521F000410F
:1006B0001CE700BF50EA010208BF704730B54FF099
:1006C00000050AE050EA010208BF704730B511F09A
:1006D000004502D5404261EB41014FF4806404F1D2
:1006E00032045FEA915C3FF4D8AE4FF003025FEA58
:1006F000DC0C18BF03325FEADC0C18BF033202EBDC
:10070000DC02C2F1200300FA03FC20FA02F001FA35
:1007100003FE40EA0E0021FA02F11444BDE600BFD8
:1007200070B54FF0FF0C4CF4E06C1CEA11541DBF87
:100730001CEA135594EA0C0F95EA0C0F00F0DEF852
:100740002C4481EA030621EA4C5123EA4C5350EA37
:10075000013518BF52EA033541F4801143F4801388
:1007600038D0A0FB02CE4FF00005E1FB02E506F019
:100770000042E0FB03E54FF00006E1FB03569CF06E
:10078000000F18BF4EF0010EA4F1FF04B6F5007F74
:1007900064F5407404D25FEA4E0E6D4146EB0606E6
:1007A00042EAC62141EA55514FEAC52040EA5E506F
:1007B0004FEACE2EB4F1FD0C88BFBCF5E06F1ED819
:1007C000BEF1004F08BF5FEA500E50F1000041EB50
:1007D000045170BD06F0004646EA010140EA0200FD
:1007E00081EA0301B4EB5C04C2BFD4EB0C0541EA1F
:1007F000045170BD41F480114FF0000E013C00F334
:10080000AB8014F1360FDEBF002001F0004170BD57
:10081000C4F10004203C35DA0C341BDC04F1140470
:10082000C4F1200500FA05F320FA04F001FA05F2FC
:1008300040EA020001F0004221F0004110EBD370C9
:1008400021FA04F642EB06015EEA430E08BF20EAF5
:10085000D37070BDC4F10C04C4F1200500FA04F398
:1008600020FA05F001FA04F240EA020001F000412A
:1008700010EBD37041F100015EEA430E08BF20EA9D
:10088000D37070BDC4F1200500FA05F24EEA020EE5
:1008900020FA04F301FA05F243EA020321FA04F014
:1008A00001F0004121FA04F220EA020000EBD370CB
:1008B0005EEA430E08BF20EAD37070BD94F0000FCB
:1008C0000FD101F00046400041EB010111F4801FFF
:1008D00008BF013CF7D041EA060195F0000F18BFB0
:1008E000704703F00046520043EB030313F4801FEC
:1008F00008BF013DF7D043EA0603704794EA0C0FA6
:100900000CEA135518BF95EA0C0F0CD050EA4106BB
:1009100018BF52EA4306D1D181EA030101F0004138
:100920004FF0000070BD50EA410606BF1046194660
:1009300052EA430619D094EA0C0F02D150EA01366C
:1009400013D195EA0C0F05D152EA03361CBF1046AD
:1009500019460AD181EA030101F0004141F0FE414C
:1009600041F470014FF0000070BD41F0FE4141F4D0
:10097000780170BD70B54FF0FF0C4CF4E06C1CEAD0
:1009800011541DBF1CEA135594EA0C0F95EA0C0F85
:1009900000F0A7F8A4EB050481EA030E52EA033540
:1009A0004FEA013100F088804FEA03334FF0805561
:1009B00045EA131343EA12634FEA022245EA11158E
:1009C00045EA10654FEA00260EF000419D4208BF3F
:1009D000964244F1FD0404F5407402D25B084FEAEC
:1009E0003202B61A65EB03055B084FEA32024FF498
:1009F00080104FF4002CB6EB020E75EB030E22BFF5
:100A0000B61A754640EA0C005B084FEA3202B6EBB4
:100A1000020E75EB030E22BFB61A754640EA5C0063
:100A20005B084FEA3202B6EB020E75EB030E22BFF3
:100A3000B61A754640EA9C005B084FEA3202B6EBF4
:100A4000020E75EB030E22BFB61A754640EADC00B3
:100A500055EA060E18D04FEA051545EA16754FEA15
:100A600006164FEAC30343EA52734FEAC2025FEA33
:100A70001C1CC0D111F4801F0BD141EA00014FF0C2
:100A800000004FF0004CB6E711F4801F04BF014393
:100A90000020B4F1FD0C88BFBCF5E06F3FF6AFAEAF
:100AA000B5EB030C04BFB6EB020C5FEA500C50F13F
:100AB000000041EB045170BD0EF0004E4EEA1131C2
:100AC00014EB5C04C2BFD4EB0C0541EA045170BDC9
:100AD00041F480114FF0000E013C90E645EA060E0D
:100AE0008DE60CEA135594EA0C0F08BF95EA0C0F3B
:100AF0003FF43BAF94EA0C0F0AD150EA01347FF483
:100B000034AF95EA0C0F7FF425AF104619462CE759
:100B100095EA0C0F06D152EA03353FF4FDAE1046BC
:100B2000194622E750EA410618BF52EA43067FF40D
:100B3000C5AE50EA41047FF40DAF52EA43057FF49D
:100B4000EBAE12E74FF0FF3C06E000BF4FF0010CA8
:100B500002E000BF4FF0010C4DF804CD4FEA410C0C
:100B60007FEA6C5C4FEA430C18BF7FEA6C5C1BD0D9
:100B700001B050EA410C0CBF52EA430C91EA030F5A
:100B800002BF90EA020F0020704710F1000F91EAB7
:100B9000030F58BF994208BF90422CBFD8176FEA85
:100BA000E37040F0010070474FEA410C7FEA6C5C53
:100BB00002D150EA013C07D14FEA430C7FEA6C5C5A
:100BC000D6D152EA033CD3D05DF8040B704700BF86
:100BD0008446104662468C461946634600E000BFD4
:100BE00001B5FFF7B7FF002848BF10F1000F01BDA6
:100BF0004DF808EDFFF7F4FF0CBF012000205DF871
:100C000008FB00BF4DF808EDFFF7EAFF34BF0120F5
:100C100000205DF808FB00BF4DF808EDFFF7E0FF8E
:100C200094BF012000205DF808FB00BF4DF808EDDF
:100C3000FFF7CEFF94BF012000205DF808FB00BF46
:100C40004DF808EDFFF7C4FF34BF012000205DF828
:100C500008FB00BF4FEA410C7FEA6C5C02D150EA0E
:100C6000013C0AD14FEA430C7FEA6C5C02D152EAA4
:100C7000033C02D14FF0000070474FF00100704775
:100C80004FEA410212F5001215D211D56FF47873B4
:100C9000B3EB625212D94FEAC12343F0004343EA57
:100CA000505311F0004F23FA02F018BF4042704732
:100CB0004FF00000704750EA013005D111F00040BC
:100CC00008BF6FF0004070474FF00000704700BF52
:100CD0000348044B834202D0034B03B118477047CB
:100CE000BC060020BC060020000000000548064BA2
:100CF0001B1AD90F01EBA301491002D0034B03B11A
:100D000018477047BC060020BC0600200000000009
:100D100010B5064C237843B9FFF7DAFF044B13B143
:100D20000448AFF300800123237010BDBC060020EF
:100D3000000000000486000808B5054B1BB10549FA
:100D40000548AFF30080BDE80840FFF7CFBF00BF04
:100D500000000000C00600200486000880B485B0B2
:100D600000AF78600023FB73234B1B6803F0020382
:100D7000002B14BF01230023DBB2002B06D1FB7B29
:100D8000FF2B30D0FB7B0133FB73EDE700BF1A4B29
:100D90005B68194A43F4E0135360174B5B68164ACB
:100DA00043F002035360144B1B68134A43F08073F3
:100DB00013600023BB73104B1B6803F00073002B00
:100DC00014BF01230023DBB2002B0ED1BB7BFF2B12
:100DD00005D1094B1B68084A23F080731360BB7B65
:100DE0000133BB73E7E700BF00E000BF7B68184634
:100DF0001437BD4680BC70470010024080B582B0F9
:100E000000AF78600C4B9B690B4A43F01003936171
:100E10000A4B5B68094A43F440135360074B5B6815
:100E2000064A23F440035360786800F01BF87B689F
:100E300018460837BD4680BD001002400010014032
:100E400080B483B000AF7860054BDB68044A23F4BC
:100E50000053D36000BF0C37BD4680BC704700BF55
:100E60000010014080B483B000AF7860054BDB68B0
:100E7000044A43F40053D36000BF0C37BD4680BC26
:100E8000704700BF0010014080B489B000AF7860A7
:100E9000574BDB69564A43F00073D361544B9B694F
:100EA000534A43F00403936100233B6140F24643FD
:100EB000BB6000237B610223BB614E4B5B684D4AE4
:100EC00023F4404353604B4BDB684A4A43F40063CE
:100ED000D360484B5B68474A43F400535360454B2B
:100EE0005B68444A23F440235360424B5B68414AA9
:100EF00043F4002353603F4B5B683E4A43F4403366
:100F000053603D4B1B683C4A43F0010313603A4B6E
:100F10001B68394A43F010031360374B1B68364A8D
:100F200043F020031360344BDB69334A23F47F73AF
:100F300023F00303D361304BDB692F4A43F02703CF
:100F4000D3612D4BDB692C4A23F47023D3612A4BE8
:100F5000DB69294A43F43023D361274BDB69264AF6
:100F600023F4E003D361244BDB69234A43F4801369
:100F7000D361214BD3F880311F4A23F00203C2F81A
:100F800080311D4BD3F880311B4A23F00403C2F893
:100F90008031194BD3F88031174AC3F31403C2F8D8
:100FA0008031154BD3F88031134A43F0C24343F4E8
:100FB0000013C2F88031104BD3F884310E4A23F06D
:100FC0000F03C2F884310C4BD3F884310A4A43F042
:100FD0000803C2F88431084B1B68074A23F0010359
:100FE00013607B6818462437BD4680BC704700BF3D
:100FF00000100240000801400064004080B586B047
:1010000000AFF860B9601346FB7100BF1B4B9B68D3
:1010100003F08063002B0CBF01230023DBB2002B05
:10102000F4D1164B40F2EB32C3F88821134B40F257
:101030004D42C3F88C21114BD3F880310F4A43F055
:101040000103C2F8803100BF0C4B9B6803F0806342
:10105000002B0CBF01230023DBB2002BF4D1074B84
:101060009B68DBB203F00203FB75054801F03CF816
:1010700000BF18461837BD4680BD00BF0064004061
:101080002086000880B588B000AF07F11C03184621
:10109000FFF764FE07F118031846FFF7AFFE07F1EC
:1010A00018031846FFF7CCFE00F04EF80D4B1B68F6
:1010B0007B6107F110031846FFF7E6FE0023FB777C
:1010C000094A3B1D07CA83E8070000237B80391DBE
:1010D00007F110030C221846FFF790FF0346BB7779
:1010E000F5E700BF000000202C86000880B400AFA8
:1010F000FEE780B400AFFEE780B400AFFEE780B447
:1011000000AFFEE780B400AFFEE780B400AF00BFE1
:10111000BD4680BC704780B400AF00BFBD4680BCF8
:10112000704780B400AF00BFBD4680BC704780B53B
:1011300000AF00F07BF800BF80BD80B400AF00BFFF
:10114000BD4680BC7047000080B485B000AF00236E
:10115000FB600023BB6000237B602F4B5B6803F0C8
:101160000C03FB60FB68082B11D0FB68082B3AD8F6
:10117000FB68002B03D0FB68042B04D033E0274B23
:10118000274A1A6033E0254B254A1A602FE0224B8C
:101190005B6803F47013BB601F4B5B6803F4803320
:1011A0007B60BB689B0C0233BB607B68002B06D165
:1011B000BB681C4A02FB03F3184A136017E0164B86
:1011C0005B6803F40033002B06D0BB68154A02FBB2
:1011D00003F3124A13600AE0BB68114A02FB03F3EF
:1011E0000E4A136003E00D4B0D4A1A6000BF0A4B14
:1011F0005B681B0903F00F030B4AD35CFB60074BD2
:101200001A68FB6822FA03F3044A136000BF14371C
:10121000BD4680BC704700BF0010024000000020A7
:1012200000127A0000093D003886000880B400AF43
:10123000054B1B781A46054B1B681344034A136081
:1012400000BFBD4680BC704704000020D8060020C7
:10125000FFF773FF0B480C490C4A002302E0D458F7
:10126000C4500433C4188C42F9D3094A094C0023F2
:1012700001E013600432A242FBD300F0F1FEFFF75D
:1012800001FF704700000020BC060020F48A00081F
:10129000BC060020F4090020FEE7000003685A00A5
:1012A0004CBF43F0004323F000431844704700BF95
:1012B0002DE9F84341B301F1FF380546164647468C
:1012C0000024E11901EBD171491005EBC109484631
:1012D000FFF7E4FF884503464FEAC1020ED002F152
:1012E0000800B34228440BD8FFF7D8FF0138B042BA
:1012F00001F10104E5D34846BDE8F883B042FAD9CC
:101300008C4201D04F1EDCE74FF000094846BDE893
:10131000F88300BF012807D0022807D0044B00281B
:101320000CBF1846002070470248704702487047BB
:10133000D9190008E1190008E919000830B5214B56
:10134000044683B08D1E13B3284601A9AFF3008075
:1013500088B301992A46FFF7ABFF014658B3FFF760
:101360009DFF4B68A064012B28D0002B20DB081DBB
:10137000FFF794FF002323650368E064002B0DDB77
:10138000FFF78CFF03460020236103B030BD0E4BF6
:101390000E491846C91AC9100191DBE7C3F303606F
:1013A000FFF7B8FF034630B10020236103B030BD22
:1013B0000123081DDFE700230920E5E700230520BE
:1013C000E2E700BF00000000488A0008E88A000841
:1013D000036810B5DA07044606D49B0700F14800FD
:1013E00009D5FEF7A9FE2368590709D51A070ED5B6
:1013F000DB0613D510BDFEF797FE23685907F5D419
:1014000004F1D000FEF7A0FE23681A07F0D404F51B
:10141000A870FEF7A1FE2368DB06EBD404F5E870A4
:10142000BDE81040FEF7DCBE0346006800B118447A
:10143000704700BF704700BF70B504460E46204697
:10144000316CFFF77BFF054698B9D6F840C03246AD
:10145000214601202369C4F814C098470828EED01B
:10146000072806D12846316CFFF7E4FF301DFEF750
:101470004FFEFFDE2DE9F0474FF0000AADF5727D1B
:101480000DF10C0E01F1040CC768D0F81880064667
:101490001446BCE80F00AEE80F00BCE80F00AEE851
:1014A0000F00BCE80F00AEE80F009CE80F0002AD93
:1014B0008EE80F00C5F800A021E02B6C4FF4F0720D
:1014C000294673617AA8FEF7F9FE31465046336922
:1014D0007AAA9847889C82466C64334632464946CD
:1014E0000120CDE90058B847044630BB4FF4F072F4
:1014F00028467AA9FEF7E2FEBAF1080F1AD1304663
:10150000296CFFF71BFF04F109095FFA89FA044609
:101510000028D2D0A96B3346696432460120CDE958
:1015200000584AF01001B84738B920460DF5727DD1
:10153000BDE8F087BAF1070F05D0092420460DF564
:10154000727DBDE8F0872046296CFFF773FF03A882
:10155000FEF7DEFDF0B54FF0FF37CB6BF9B00B6453
:1015600001AC01F1040C0E460546BCE80F000FC4A7
:10157000BCE80F000FC4BCE80F000FC49CE80F00CC
:1015800084E80F00009706E06A4629462B699847D1
:101590000828044608D128461099FFF7CFFE0028F6
:1015A000F2D0092079B0F0BD6846FFF711FF062C94
:1015B000F7D131462846FFF73FFF00BF10B414466D
:1015C0008461DC6BC16000221C64194610BCFFF70B
:1015D00051BF00BF70B54369C6680B64AEB90A4617
:1015E000036904460D46014602209847072805D0A6
:1015F00008280ED129462046FFF71EFF3046296CE9
:10160000FFF718FF281DFEF783FD0122FFF732FFC9
:10161000FFDEFFDEC26832B1D1F83CC00022C1F863
:1016200040C0FFF727BFFFF795BF00BF012910D0CB
:1016300009D883B90F2A0ED800EB820252681846E7
:10164000009B1A607047033901298CBF02200120DA
:101650007047084670470220704700BF002300B55E
:1016600085B00A4603A900911946FFF7DFFF0398EA
:1016700005B05DF804FB00BF012910D009D883B97B
:101680000F2A0ED8009900EB8202096818465160B3
:101690007047033901298CBF02200120704708469A
:1016A00070470220704700BF002310B584B003AC20
:1016B000039200940A461946FFF7DEFF04B010BDFE
:1016C00070B54FF0FF36D36BADF50E7D13640DF1A1
:1016D0005C0E02F1040C05460C46BCE80F00AEE8B7
:1016E0000F00BCE80F00AEE80F00BCE80F00AEE84A
:1016F0000F009CE80F008EE80F00169612E00C21F8
:1017000016A86A46FFF7D0FF214616A8A84778B961
:1017100069460820049B16AA98470528064608D063
:10172000092805D068462699FFF708FE0028E6D06C
:10173000092616A8FFF74CFE30460DF50E7D70BD4C
:101740002DE9F04F9346CA6C0D4652F8041B89B040
:1017500000F0030C0692002B79D002240E0C8DF8B9
:101760001D600904F6B2059102EB86022F6DBCF1F3
:10177000020F08BFAA6B17F001078DF81C400CD0B0
:10178000584605A900F0A0FA18B9082009B0BDE82C
:10179000F08F092009B0BDE8F08F1668002EEFD059
:1017A000B14664469A4600F0080101910297BAF1E9
:1017B000020F48D0B2F80090568802F10408AB6CD2
:1017C00026F001020F215846D718FFF747FF87423E
:1017D00037D829F001023A44824294BF0022012204
:1017E000760006F0020309F0010943EA0903012B20
:1017F00047D0022B31D0002BCBD114B1002A40F0BE
:10180000CA8008F10402D2F80090B9F1000FCED1DD
:10181000584605A9029F00F057FA0028B9D1002FB9
:10182000B3D00F215846FFF719FF0E210246584644
:10183000FFF73AFF0F215846664AFFF735FF0720AA
:10184000A8E70022CCE7566802F10808B7E70902CA
:10185000032405918DF81D3088E7D8F8006026F044
:101860000043002C44D122B1019A002A5AD0002B07
:1018700058D0002E01DA08F10408013308EB830286
:10188000C1E7ECB9CAB1D8F80430D8F80020991CE7
:101890004FEAD2723FF47DAF05F158010133049154
:1018A00000F08C8008F10400FFF7BEFD04AB014698
:1018B0002846AFF30080002857D108F10802A2E7BC
:1018C0000D215846FFF7CAFE2B6A8342F5D1AB6A59
:1018D0009845F2D14046FFF7E1FC0F2102465846F9
:1018E000FFF7E2FE2A4600215846FFF7DDFEA6E795
:1018F0000D2158460393FFF7B1FE2A6A039B8242EB
:10190000B7D1AA6A9045B4D100270422C5E90B7269
:101910004244AB626A63D8F80020BA4256DB012227
:101920000292AAE7039400261C4608F1040905F177
:1019300058070DE048460497FFF776FD0022014660
:1019400004AB2846013609F10409AFF30080E8B979
:10195000A642EFD10D215846FFF780FE0346049AB8
:101960000620C5E909282B6214E704460D215846D4
:10197000FFF774FE022CDDF81090286224D12B466C
:1019800043F82C9F0620C5E9093803E72346D8F819
:101990000060039C6DE74046FFF780FC08F10402FD
:1019A0000446AA632846AFF3008000283FF4F1AE56
:1019B00022460F215846FFF777FE40E789465846F2
:1019C0000D21FFF74BFE28624B46DBE7581C08EB66
:1019D000800080E7000000000023FFF7B1BE00BFD9
:1019E0000123FFF7ADBE00BF0223FFF7A9BE00BF72
:1019F0002DE9F043064615461C46C3B0042900F203
:101A0000CD80DFE801F0AC51CB2A0300002C40F080
:101A1000C580102A00F2C2800368DC0600F1E38072
:101A200020AF3846FEF7E6FB012438460023B16BB1
:101A300004FA03F22A4203F1010305D00A4652F8E0
:101A400004CB1146C0F800C0042B00F10400EFD114
:101A50003846B163FEF7C4FB95E0032C40F09E804E
:101A600094B204EB1243102B4FEA124500F2968019
:101A700003681F0700F1BF8020AF3846FEF78EFBDA
:101A8000B26B07EBC50154B10B4601EBC401D01A90
:101A9000E4001D5843F8045B8B42FAD122443846D7
:101AA000B263FEF759FB6EE0012C4FEA124895B283
:101AB0006DD0052C72D108EB0509B9F1200F6DD856
:101AC000B8F10F0F6ED8B9F1100F036800F29B80C8
:101AD000D90708D5304623F0010343F0020340F84C
:101AE000483BFEF72DFB20AF3846FEF729FBB36BD2
:101AF000002D00F0B5806D006A1E002507EBC801BF
:101B00000132043903EB820253F8040B934241F88B
:101B1000040FF9D1002D00F09D804146102938BFF7
:101B200010216F466B001039013B07EBC1010133F7
:101B3000043902EB830352F8040B9A4241F8040F74
:101B4000F9D1012C00F08480B8F10F0FB26302D8F4
:101B500020A8FEF7F1FA3846FEF7F6FA13E0ECB9E2
:101B600023460124816B371D90B204FA03F202422E
:101B70001CBF51F8042B47F823200133102BF4D15C
:101B8000A80400D4B163002043B0BDE8F08308EBA3
:101B90000503102B02D8B8F1100F14D1022043B066
:101BA000BDE8F083002DEED003685A075CD46F4681
:101BB0003846FEF7CDFAB26B6B00A8F11001013B7D
:101BC00007EBC101B3E70368DA0759D420AF384601
:101BD000FEF7AEFAB36B002D8DD104333846B363F4
:101BE000FEF7A2FACFE723F01003036000F5E870D8
:101BF000FEF700FB14E723F00803036000F5A8706C
:101C0000FEF7CCFA38E7D90708D523F0010343F0F3
:101C1000020340F8483BFEF793FA3368580706D5AD
:101C2000304623F0040340F8D03BFEF791FA20AF92
:101C30003846FEF785FA6846FEF78AFAC8F11002C0
:101C40005200B36BA9F11005013A07EBC80157E741
:101C500020AFC2E7012CC0D0B8F10F0FB36392D808
:101C60003846FEF769FA8EE76F4623F0040340F822
:101C7000D03BFEF76DFA3846FEF76AFAB26B9BE787
:101C8000304623F0030340F8483BFEF751FA9DE746
:101C9000027A03467AB9427AA2B14FF0030C416846
:101CA000013A427208680A1D5A60020283F808C0AD
:101CB000000E1A6070470068013A1A7202021A6038
:101CC000000E7047B02070472DE9F0434FF0000838
:101CD00006460D4685B02846FFF7DAFFB0280446D1
:101CE00000F0DC80070647D500F0F003802B5FD0C2
:101CF000B02B74D01BD8902B00F09C80A02B12D15D
:101D0000C3434FF47F6203F007031A41010702F453
:101D10007F6201D542F48042002330461946FFF726
:101D200067FE0028D7D0092005B0BDE8F083C02B9E
:101D30006ED1C62800F09480C72800F0B48000F06F
:101D4000F803C02B00F0C980C82800F0D480C9284F
:101D5000E9D12846FFF79CFF0523044601213046C0
:101D6000220304F00F0402F470220C442243FFF714
:101D70003FFE0028AFD0D6E78300DBB21F1D002353
:101D80000DF10C0919460D223046CDF80090FFF7F1
:101D90004DFC039B60064CBFDF1BFF1800230D2288
:101DA00030461946CDF800900397FFF765FC92E79F
:101DB0002846FFF76DFF24022043B0F5004FB2D054
:101DC0000023040119463046A2B2FFF711FE002895
:101DD000A9D114F4004F18BF4FF001087BE7B128D8
:101DE00052D0B22800F0AC80B3286ED000F0FC03D3
:101DF000B42B98D0012300F007021A44304619464C
:101E000042F40022FFF7F4FD00283FF464AF8AE7B4
:101E100000F0F803D02B86D100F007020132052331
:101E20000121304642F40022FFF7E2FD00283FF492
:101E300052AF78E700F00D030D2B3FF474AF002391
:101E400003AF194600F00F0200973046FFF7EEFB94
:101E500000230D22304619460097FFF70DFC3AE7A4
:101E60002846FFF715FF04460323220304F00F045E
:101E700002F470220134304619462243FFF7B8FDC0
:101E800000283FF428AF4EE72846FFF701FF431E26
:101E9000DBB20E2B02467FF63FAF44E7B8F1000FEE
:101EA0003ED0002040E72846FFF7F2FE431EDBB29B
:101EB0000E2B02463FF637AF002304213046FFF7D2
:101EC00097FD00283FF407AF2DE72846FFF7E0FE17
:101ED000012304461946304642E7032300F00F026F
:101EE00001323046194642F42022FFF781FD0028D6
:101EF0003FF4F1AE17E72846FFF7CAFE024601217C
:101F000002F0F00402F00F0210340A4405233046B8
:101F100042EA0432FFF76CFD00283FF4DCAE02E732
:101F200003AC434641460E2230460094FFF77EFB49
:101F300043460F22414630460094FFF79DFBB0E731
:101F400000230DF10C090D2219463046CDF8009002
:101F5000FFF76CFB2846FFF79BFE02064FF00207D7
:101F6000039C0BD500F07F00B8400444284603943E
:101F7000FFF78EFE030607F10707F3D4002300FAEC
:101F800007F204F501742244039230460D221946EB
:101F9000CDF80090FFF770FB9DE600BF024B13B138
:101FA000024800F0B5B8704700000000B1200008FA
:101FB000062008B500F080F9012006F021FB00BFE3
:101FC00070B5860747D0541E002A3ED00346CAB2D9
:101FD00001E0013C39D303F8012B9D07F9D1032C13
:101FE0002CD9CDB205EB05250F2C1A4605EB05457E
:101FF00034D9A4F1100C2CF00F0603F1100EB644E6
:102000004FEA1C1C156055609560D5601032724512
:10201000F8D10CF1010214F00C0F03EB021204F0E2
:102020000F0C13D0ACF1040323F003030433134467
:1020300042F8045B9A42FBD10CF003042CB1C9B204
:102040001C4403F8011B9C42FBD170BD644613463F
:10205000002CF4D1F9E703461446C0E7A446E1E7B3
:1020600070B50F4B0F4DAB42A3EB050607D0002414
:10207000B61055F8043B01349847A642F9D806F04B
:10208000C1FA094D094B5E1BAB424FEAA60606D0CA
:10209000002455F8043B01349847A642F9D870BD96
:1020A000E88A0008E88A0008E88A0008F08A000840
:1020B00038B5074D074C2C1BA41005D0013C55F832
:1020C000043D9847002CF9D1BDE8384006F0A0BA8D
:1020D000F48A0008F08A0008704700BF704700BF0C
:1020E000704700BF704700BF0FB400B5074A83B008
:1020F00004AB106853F8042B8168019300F09EF93B
:1021000003B05DF804EB04B0704700BF0C00002082
:10211000002301461A46184603F000B9024A034953
:10212000034800F053B900BF300100206D5900088A
:10213000100000200C4B416810B59942044601D0B4
:1021400003F014FCA168094B994202D0204603F029
:102150000DFCE168064B994204D02046BDE81040D2
:1021600003F004BC10BD00BFEC06002054070020A3
:10217000BC0700202DE9F84300250423304C314AE8
:102180003149DFF8C890DFF8C880324F324E116015
:1021900004F15C0029460822C4E90335C4E900556E
:1021A000C4E90555A5606566FFF70AFF04F158000C
:1021B000C4E90749C4E90987E662FFF78DFF274BA9
:1021C0002946082204F1C4006367C4E91A55C4E92A
:1021D0001E552567C4F8CC50C4F88050FFF7F0FEB8
:1021E00004F1680304F1C000C4F88430C4E9229803
:1021F000C4E92476FFF770FF194B294604F5967061
:102200000822C4F8DC30C4E93455C4E93855C4F8B0
:10221000D850C4F83451C4F8E850FFF7D1FE04F1A7
:10222000D003C4E93D87C4F8F09004F59470C4F875
:10223000FC60C4F8EC30BDE8F843FFF74DBF00BFC9
:10224000EC060020240800201D21000811230008AE
:1022500035230008752300089923000809000100B0
:102260001200020010B504460A48FFF739FF636BFD
:1022700023B9094B094A1B68626323B1BDE81040CA
:102280000448FFF72FBFFFF775FFBDE81040014876
:10229000FFF728BFE80600202408002035210008A9
:1022A0000148FFF71DBF00BFE80600200148FFF707
:1022B00019BF00BFE806002038B5144B1F281D6861
:1022C0001ED8D5F81821044662B152F820304BB11F
:1022D000012B05D0591C0FD0002142F8201098473F
:1022E000002038BD284600F06FF8224601462846F7
:1022F000BDE8384000F054B8162301202B6038BDEB
:1023000016234FF0FF302B6038BD00BF0C000020BB
:1023100010B50C46B1F90E1004F0D2FF002803DB13
:10232000236D0344236510BDA38923F48053A38147
:1023300010BD00BF2DE9F0410C46B1F90C101F464D
:10234000CB05054616460BD421F48051A1813B46AE
:1023500032462846B4F90E10BDE8F04100F058B8F6
:10236000B4F90E100223002204F094FFB4F90C100B
:10237000EAE700BF10B50C46B1F90E1004F08AFF71
:10238000B4F90C30421C0EBF23F4805343F4805345
:102390002065A38110BD00BFB1F90E1004F044BC4C
:1023A00070B50026074D0446084611462E6006F01B
:1023B000F9F8431C00D070BD2B68002BFBD02360C4
:1023C00070BD00BFEC09002006F0DCB82DE9F84331
:1023D0004FF0000980460F461646D6E90154013DEC
:1023E00010D4A389013D012B08D9B4F90E30013373
:1023F00004D021464046B84749EA00096B1C04F165
:102400006804EED13668002EE7D14846BDE8F8836F
:1024100038B50C46114600228446074D20462A60F6
:102420001A46644606F0E4F8431C00D038BD2B6819
:10243000002BFBD0236038BDEC0900202DE9F04FC4
:10244000DDB091461C460891834603F08BFA036881
:102450000E941846189304F003FD03460822002149
:102460002CA81793FFF7ACFDBBF1000F04D0DBF8ED
:102470003430002B01F0A680089A536ED80740F143
:102480004D81B2F90C20970407D4089942F4005208
:102490004B6E8A8123F400534B66160740F1C780C8
:1024A000089B1B69002B00F0C28002F01A030A2B64
:1024B00000F0CC80002300249E46CDE93133002378
:1024C00033AA90465D46CDE91434CDE91AEECDE944
:1024D0001CEE3092CDF864E0CDF828E0CDF848E06D
:1024E000CDF81C90079F944B2CAED3F8E44003F03A
:1024F00033FA3A46034628A928460096A047002802
:1025000000F0C380C0F2B980289B252B01D007447E
:10251000E9E7079B0646B7EB030940F0BB800022C2
:102520004FF0FF3A93467B7807F101098DF8972029
:102530000B9209F10109A3F120025A2A00F2FE8050
:10254000DFE812F0B502FC00FC00B002FC00FC0069
:10255000FC008F02FC00FC006A006B02FC004C02D5
:102560007602FC0071025B005B005B005B005B00BD
:102570005B005B005B005B00FC00FC00FC00FC00FF
:10258000FC00FC00FC007F01FC00D6011D037F0164
:102590007F017F01FC00FC00FC00FC001803FC0034
:1025A000FC00C002FC00FC00FC00ED01FC00060386
:1025B000FC00FC002607FC00FC00FC00FC00FC000A
:1025C000FC00FC00FC007F01FC00D60123027F011F
:1025D0007F017F015E022302D101FC005102FC0059
:1025E000440348073303D101FC00ED0172002207C8
:1025F000FC00FC004B07FC0072000021A3F130023C
:1026000019F8013B01EB810102EB4101A3F130021A
:10261000092AF5D90B918EE70E9B53F8042B002A5B
:102620000B920E93C0F2D78199F8003081E7089D94
:102630005846294603F00AFA002841F01C84B5F9EF
:102640000C2002F01A030A2B7FF434AF0899B1F979
:102650000E30002BFFF62EAF4B6ED80702D492053A
:1026600041F12C8223464A465846089901F092FDD2
:102670000A900A985DB0BDE8F08F082200212CA8CE
:10268000FFF79EFC012007442DE7079B0646B7EBAA
:10269000030912D0079BC8E90039329B4B4432939F
:1026A000319B0133072B319311DC08F108080A9B99
:1026B0004B440A93002E7FF432AF329B002B41F043
:1026C000E5810022089B3192B3F90C301AE02846CC
:1026D000089930AA01F0DAFD88B90DF1CC08E6E7D7
:1026E0002846089930AA01F0D1FD002800F09C800E
:1026F000AB460D9B1BB158460D9904F073FC089B2B
:10270000B3F90C30089A526ED00740F1E2805A06B5
:1027100001F1BD830A985DB0BDE8F08F089BB3F965
:102720000C2091053FF5AFAE1D46986DFFF7D8FC24
:10273000B5F90C20A7E600BF500500200F93002B31
:10274000BBD000228DF80C31012343A909930791D6
:102750008DF897200C939246CDE910220D9213929A
:102760001BF0020302D00999023109911BF0840485
:1027700005D10B9909980F1A002F00F3A283329EFE
:1027800082B10122C8F80420319A013601320DF1DC
:102790009701072A32963192C8F8001000F3DF83C0
:1027A00008F108087BB10223C8F80430319B0236D7
:1027B000013326AA072B32963193C8F8002000F384
:1027C000DC8308F10808802C00F091820C9BAAEBB6
:1027D0000307002F00F3CF821BF4807F40F00D82AF
:1027E000079BC8F800300C9B1E44C8F80430319B8E
:1027F00032960133072B319300F33B8308F108082D
:102800001BF0040F05D00B9B099A9C1A002C00F3B7
:10281000C083DDE90A3209998A42ACBF9B185B1874
:102820000A93002E7FF45CAF002331930D9B1BB104
:1028300028460D9904F0D6FB0DF1CC08CDF81C907C
:1028400050E60F930E9B073323F00702F2E80234A1
:10285000CDE91434DDE9146727F000431F931E9679
:102860000E92B84B4FF0FF32DDE91E01FEF7F2F990
:10287000002840F02E85DDE91E014FF0FF32B14BFC
:10288000FEF7CAF9002840F02485002200233046D4
:102890003946FEF7B7F9002841F062819DF897208C
:1028A00000210320A84CA94B2BF0800B0D9109901F
:1028B0000F9E8A46472EC8BF1C46CDE910110794CB
:1028C0000C901391002A3FF44BAF099B01330993FD
:1028D00046E799053FF51BAF089CA06DFFF702FC8A
:1028E000B4F90C3013E799F800304BF0200B20E6D8
:1028F000432B0F9300F0A6851BF0100F40F0A2852C
:1029000001210E9B099153F8042B43AC8DF80C2147
:102910000E930C91002207948DF897201BE70F93DC
:1029200000230E9F8DF8973057F8043B0793002B38
:1029300000F077850F9B532B00F05B861BF0100394
:10294000109340F05686BAF1FF3F00F0F1875246EF
:102950001099079804F038FA0D90002801F08C8344
:102960000D9B079ADDF840A09B1A73220C9323EA73
:10297000E3730F920E979DF897200993CDF84CA022
:10298000CDF844A0CDF834A09CE71BF0200F0F93A6
:1029900000F0FC800E9B073323F0070318465968AC
:1029A00050F8083B0A460E900029C0F26E84BAF136
:1029B000FF3F00F0C48253EA02012BF0800440F094
:1029C000BF82BAF1000F40F0C082A3465CABCDF8E5
:1029D00030A00793A8E00B9B5B420B9399F8003063
:1029E0004BF0040BA5E599F800306C2B03BF99F868
:1029F00001304BF0200B09F101094BF0100B98E569
:102A000099F80030682B03BF99F801304BF4007B34
:102A100009F101094BF0400B8BE52B238DF8973022
:102A200099F8003085E599F800304BF0800B80E58F
:102A3000494611F8013B2A2B01F08383A3F13002B0
:102A4000092A89464FF0000A3FF675AD19F8013B97
:102A50000AEB8A0A02EB4A0AA3F13002092AF5D9E5
:102A600069E5284602F07EFF436818461C9304F08F
:102A7000F7F9034628461C461D9302F073FF83684E
:102A80001A93002C3FF4D0AD1A9B002B3FF4CCAD31
:102A90001A9B1B78002B3FF4C7AD99F800304BF41C
:102AA000806B46E599F800304BF0010B41E59DF84D
:102AB0009730002B7FF4B8AD20238DF8973099F82C
:102AC000003036E50F934BF0100B1BF0200200F0A6
:102AD00088830E9B073323F0070319465A6851F881
:102AE000083B0E9100202BF480640021BAF1FF3FD7
:102AF0008DF8971000F0DE8053EA020124F0800B7D
:102B000040F0D780BAF1000F40F0618500287FF4D3
:102B10005DAF14F001030C9317BF30235CAB8DF84D
:102B20006F310DF26F1307930C9A00235245B8BF13
:102B30005246CDE9103309920D939DF897201393D7
:102B4000C0E600BFFFFFEF7F488600084C86000804
:102B50000F934BF0100414F0200200F04F830E9BF3
:102B60000120073323F0070319465A6851F8083B40
:102B70000E91BAE799F800304BF0080BD9E44BF00E
:102B8000100B1BF0200F0F937FF404AF1BF0100FFE
:102B90000E9A40F072831BF0400F00F06A8332F906
:102BA000043B0E92DA171146FEE647F63003782111
:102BB0000E9AADF898300F9152F8043BB3490E923B
:102BC000022000224BF0020419918EE71BF0200F27
:102BD00040F075831BF0100F40F073851BF0400F21
:102BE00040F096861BF4007F00F06B850E9B0A99DF
:102BF00053F8042B11700E9320E60F9B652B40F3C6
:102C0000F080DDE9140100220023FDF7F1FF002828
:102C100000F0FB810123C8F80430319B9C4A01334A
:102C20000136072B32963193C8F8002000F3D48484
:102C300008F10808279B129A934280F2ED82179BB5
:102C4000189A1E44C8E90023319B32960133072BA2
:102C5000319300F3DA8308F10808129B5C1E002C04
:102C60007FF7CEAD102C41F348828A4932461027B7
:102C70000E46319BDDF820A0169105E008F108080A
:102C8000103C102C40F30E8501331032072BC8E99D
:102C90000067CDE93132F1DD5146284630AA01F016
:102CA000F5FA00287FF424ADDDE931320DF1CC08CE
:102CB000E6E75C46012800F04381022800F0EC8042
:102CC0005CAE03F00701DB0843EA4273D2083031FF
:102CD00053EA0207304606F8011DF2D1E7070796CE
:102CE00000F117825CAB9B1BA3460C931CE70B9B6C
:102CF000099A9F1A002F7FF769AD102F41F31781B2
:102D000064484246314610240646319BDDF8208057
:102D1000169004E0103F102F02F1080215DD013378
:102D20001031072BC2E90064CDE93131F2DD4146B3
:102D3000284630AA01F0AAFA00287FF4D9ACDDE9D0
:102D40003131103F102F33AAE9DC90460E46013393
:102D5000169A3E44072BCDE93136C8F80020C8F852
:102D6000047000F345830C9B08F10808AAEB0307E5
:102D7000002F7FF731AD102F40F30185454B4FF009
:102D8000100A1693089C319B04E0103F102F08F1A5
:102D9000080817DD01333F4A1036072BC8E9002A1F
:102DA000CDE93136F1DD2146284630AA01F06EFA30
:102DB00000287FF49DACDDE93136103F102F0DF176
:102DC000CC08E7DC0133169A3E44072BCDE93136B7
:102DD000C8F80020C8F8047000F3F68108F108086C
:102DE000FAE4129B012B40F3A281079B319FC8F8A4
:102DF000003001231F440136072F3296C8F80430F3
:102E0000319700F3538308F10808179B0137189A8C
:102E10001E44072FC8E90023CDE9317600F339833A
:102E200008F108080022DDE914010023FDF7E0FEA7
:102E3000002840F09B81129B079C0137013B013425
:102E40001E44072FC8F800403197C8F80430329666
:102E500000F37F8108F108081B9B01371E44C8F866
:102E60000430072F2AABCDE93176C8F800307FF760
:102E7000C5AC2846089930AA01F008FA00287FF46A
:102E800037AC329E0DF1CC08BAE400BF588600087A
:102E9000888600088C860008199E5CA903F00F0044
:102EA000305C1B0943EA0273120901F8010D53EA71
:102EB0000200F3D10A465CAB9B1AA34607920C931F
:102EC00032E6102F40F36B87DDE93121DFF8F0C2E5
:102ED00040461026A046CDF858C06446229304E030
:102EE000103F102F00F1080015DD01321031072AC4
:102EF000C0E90046CDE93121F2DD2846089930AA23
:102F000001F0C4F900287FF4F3ABDDE93121103F73
:102F1000102F33A8E9DC44468046229B01321698E4
:102F2000CE19072ACDE93126C8F80000C8F8047088
:102F300000F337839DF8972008F1080820E45C46E9
:102F40000A2B72F1000180F0CF8230338DF86F319F
:102F500001230C930DF26F13A3460793E4E5284673
:102F6000089930AA169301F091F900287FF4C0ABBC
:102F7000329E169B0DF1CC0814E42846089930AA1D
:102F800001F084F900287FF4B3AB329E0DF1CC0838
:102F900019E4102C40F3A787DFF824B21027319BE7
:102FA000DDF820A0CDF858B004E0103C102C08F15A
:102FB000080816DD01331036072BC8E900B7CDE944
:102FC0003136F2DD5146284630AA01F05FF900287B
:102FD0007FF48EABDDE93136103C102C0DF1CC08BE
:102FE000E8DC0133169A2644072BC8E90024CDE912
:102FF00031367FF70EAC2846089930AA01F046F921
:1030000000287FF475AB329E03E42799002940F332
:103010000881109C129A079B9442A8BF14469A18E4
:10302000002C0C920BDDC8E90034319B264401339F
:10303000072B3296319300F3978608F10808109F0A
:10304000002CA8BF3F1B002F00F34383DDF81CA01A
:10305000109B1BF4806F9A4440F0B685279C129B0E
:103060009C4203DB1BF0010F00F03484179B189A7D
:103070001E44C8E90023319B32960133072B31935C
:1030800000F37F8608F10808129B1C1B0C9BA3EB26
:103090000A07A742A8BF2746002F0DDD319B3E44FB
:1030A0000133072BC8F800A0C8F80470329631939A
:1030B00000F3C68608F10808002FA8BFE41B002C07
:1030C0007FF79EAB102C41F318803E493246102703
:1030D0000E46319BDDF820A0169105E008F10808A6
:1030E000103C102C40F3DE8201331032072BC8E96C
:1030F0000067CDE93132F1DD5146284630AA01F0B2
:10310000C5F800287FF4F4AADDE931320DF1CC08CE
:10311000E6E7302900F065813023079A023802F88B
:10312000013C5CAB1B1AA3460C930790FCE41BF01C
:10313000010F7FF45AAE079B319FC8F8003001237E
:103140001F440136072F3296C8F8043031977FF7B5
:1031500081AE2846089930AA01F098F800287FF43B
:10316000C7AADDE931760DF1CC0875E6129B5C1E2D
:10317000002C7FF771AE102C40F3EE87114B3246D6
:103180004FF0100A1E46169305E008F10808103C9F
:10319000102C40F3E68201371032072FC8E9006A8D
:1031A000CDE93172F1DD2846089930AA01F06EF8B8
:1031B00000287FF49DAADDE931720DF1CC08E6E725
:1031C0009C8600088C8600082846089930AA01F0E1
:1031D0005DF800287FF48CAA329E0DF1CC08FFF731
:1031E000FBBA1BF010030E9965D11BF040005ED0B6
:1031F0001A4651F8043B0E919BB273E414F010038D
:103200000E994FD114F0400048D01A4651F8043BB3
:1032100001200E919BB268E41BF0010F3FF4F0AA6D
:103220000DE50123C8F80430319BAB4A0133013668
:10323000072B32963193C8F8002000F36C8508F113
:103240000808002940F06C82129A0BF00103134326
:103250003FF4D6AA179B18999A19C8E90013319B15
:1032600032920133072B319300F31A8408F10808D6
:1032700067E21BF4007F40F0378352F8043B0E9264
:10328000DA1711460029BFF692AB5B425C464FF05D
:103290002D014FF0010062EB420227E414F40072AA
:1032A00040F03E8351F8043B01200E911DE41BF4D5
:1032B000007240F0208351F8043B0E9112E40E9B03
:1032C0000A9853F8041BC217C1E900020E93FFF7D6
:1032D000B5BADDE9140102460B46FDF7BBFC002838
:1032E00040F0B5860F9B612B00F03C85412B00F030
:1032F0003583BAF1FF3F00F07C860F9B23F020035B
:10330000472B04D1BAF1000F08BF4FF0010ADDE9E5
:1033100014124BF48070002A4FF000031690CDF881
:1033200024B0C0F2EE84CDE9201222930D930F9BBE
:10333000413B252B00F22C82DFE813F0CC032A025C
:103340002A022A02C503C9032A022A022A022A02E1
:103350002A022A022A022A022A022A022A022A020D
:103360002A022A022A022A022A022A022A022A02FD
:103370002A022A022A022A022A022A022A022A02ED
:103380002A022A02C503C9035C460F93FFF7E3BB79
:103390000F93524B19931BF020026DD00E9B0733F5
:1033A00023F0070319465A6851F8083B0E911BF0A9
:1033B000010F0AD053EA020107D00F994BF0020B1C
:1033C0008DF8991030218DF8981002202BF480642C
:1033D000FFF78BBB0F93FFF778BB0F93404B19930D
:1033E000D9E7079A5CAB9B1AA3460C93FFF79CBBEB
:1033F0002846089930AA00F049FF00287FF478A9F0
:10340000329E0DF1CC08FFF7E1B92846089930AAA1
:1034100000F03CFF00287FF46BA9329E0DF1CC0830
:103420001BE45346062B28BF0623079A2D499246D4
:10343000CDE9102209930E970D9207910C931392E8
:10344000FFF740BA0E9E082200212EA843ACFEF7DB
:10345000B7FD2EAB2146284656F8042B02F056FA4B
:10346000034601330C9000F0B2850C9B0E9623EAC4
:10347000E3730993FFF74EBA1BF010030E9926D1A0
:103480001BF040001FD01A4651F8043B0E919BB22E
:103490008DE72846089930AA00F0F8FE00287FF44E
:1034A00027A9DDE931760DF1CC08BBE4284608995F
:1034B00030AA00F0EBFE00287FF41AA9DDE931768E
:1034C0000DF1CC08A1E41BF4007240F01B8251F80E
:1034D000043B0E916BE700BF888600086C860008ED
:1034E000588600088086000804F48061CDE90CA8A5
:1034F00010954FF0000E4FF0050B0D46A24FDDF872
:1035000068800DF5B87CCDF81C90099406E00A2B74
:1035100072F1000237D34B462246B446991841F166
:103520000001A7FB010424F0030000EB94004FF01E
:10353000CC34091A581A04FB00F462F1000AA0FB0B
:10354000079007FB0A4409F0010A0444AAFB0B0A8E
:1035500040184FEA5909303049EAC4790EF1010E9A
:103560000CF1FF360CF8010C6408002DCFD098F850
:1035700000108E45CBD1BEF1FF0FC8D00A2B72F1DF
:10358000000280F00183CDF868803246DDF81C909F
:10359000099CDDF830A0DDF83480109DCDF848E0BE
:1035A00089E42846089930AA169300F06FFE002897
:1035B0007FF49EA89DF89720329E169B0DF1CC08B3
:1035C000FFF7DEB85846FEF74DFEFEF755BF01285F
:1035D0005C467FF472ABB8E42846089930AA00F044
:1035E00055FE00287FF484A8329E0DF1CC08FFF729
:1035F00021BB079B2EAC0822002120462993FEF711
:10360000DFFCBAF1FF3F00F0B0820026CDF8249035
:10361000B1460DE02346284643A902F077F9431C42
:10362000484400F0D484504507DC00F0EB84814628
:10363000299B9A590436002AECD1CDF83090DDF858
:1036400024900C9B002B00F07483632B40F32484A4
:103650002846591C01F0A6FE0790002800F0B78408
:10366000079B0D93082200212046FEF7A9FC009439
:103670000C9C28462346079929AA02F0C1FA8442E5
:1036800040F0728500230C9A9A4622EAE271099171
:103690000799CDE910338B549DF897200E9713931B
:1036A000FFF710B91646169A01332644072BC8F8BF
:1036B0000020C8F80440CDE931367FF79FA8FFF716
:1036C000D8BB0E9B0A9953F8042B11600E93FFF799
:1036D000B5B8102F40F344852C4932464FF0100AFC
:1036E0000E46319B089C169105E008F10808103F32
:1036F000102F40F3588201331032072BC8E9006ABB
:10370000CDE93132F1DD2146284630AA00F0BEFD78
:1037100000287EF4EDAFDDE931320DF1CC08E6E7AB
:10372000179B18989A19C8E90003319B329201330C
:10373000072B319300F3B48108F108080029C0F287
:10374000B18307990133C8F800101299072B01EBD8
:103750000206CDE93136C8F804107FF74FA8FFF70D
:1037600088BB16460137169B2644072FCDE93176D4
:10377000C8F80030C8F804407FF76CABE9E4034AAE
:10378000319B1692FFF71EBBCDCCCCCC8C860008AB
:1037900057460223CDE900372EAB049329AB0393A0
:1037A00027AB02932846DDE9202302F0D5FA0F9BD0
:1037B0000790672B00F022830F9B472B00F0BC8300
:1037C0000F9B23F02004079B462C03EB070605D133
:1037D0001B78302B00F02D84279F3E440022DDE92A
:1037E00020010023FDF704FA002800F0AD813346E4
:1037F000079A9B1A1293472C00F08681462C00F002
:103800000483279B0F9A1093612A03F1FF332793B8
:1038100000F09084412A40F0828150220121002B47
:103820008DF8A820B6BF2D222B22109B8DF8A92041
:10383000B8BFC3F10103092B40F3AE830DF1BF07FD
:103840003A46DFF8F0C219461046ACFB0342D208F4
:1038500002EB8204A3EB440303F130046329134613
:1038600000F8014C00F1FF32EDDC303302F8013C8E
:10387000831EBB4280F061840DF1A90213F8011B85
:10388000BB4202F8011FF9D15CAB181AA0F1AD03DD
:103890001B93129B1B9A012B1A440C9240F3AD838D
:1038A0000C9B179A13440C93099B0C9A23F4806386
:1038B00043F4807B0023CDE9103322EAE2721393B4
:1038C0000992229B002B40F02E819A469DF897206A
:1038D000FEF7F8BF0C9BA3EB0A07129B1C1BA74229
:1038E000A8BF2746FFF7E8BB12F9043B0E92DA1790
:1038F0001146FFF759B851F8043B02460E91DBB26E
:10390000FFF7F0B851F8043B02460E91DBB24EE5EA
:103910000E9B0A9953F8042B11800E93FEF78EBF6D
:1039200051F8043B02460E910120DBB2FFF7DDB8EF
:1039300007980E9703F094FA7323DDF840A00F93D5
:1039400020EAE0739DF897200C90CDF84CA0CDF8BC
:1039500044A0CDF834A00993FEF7B4BF58238DF8E6
:1039600099303023BAF1630F8DF898304BF0020391
:10397000099300F3E98200230D9343AB07934BF4C3
:1039800081731693159B002BC0F2BC8100232293F8
:10399000DDE91434CDE920340F9B612B7FF4C7ACF3
:1039A000DDE9200127AA03F089FA00224FF07F53B6
:1039B000FCF7B6FE0022002306460F46FDF718F975
:1039C000002840F00C835C4B0C930AF1FF33CDE9E7
:1039D00011A92395DDF81CB01D46DDF830A0CDF807
:1039E0004C8005E000220023FDF702F9F0B94546BE
:1039F0000022524B30463946FCF792FE0F460646EF
:103A0000FDF73EF90446FCF721FE0B460246394617
:103A10003046FCF7CDFC1AF80430D9460BF8013BD0
:103A20006B1C06460F4605F1FF38DBD100223046FD
:103A30003946434BDDF844A01095CDF84490DDF8AD
:103A40004C80DDF84890239DFDF7FAF8002840F0FF
:103A50008682304639460022394BFDF7C9F810B14D
:103A6000E60700F17C82109B002BC0F2938230228B
:103A7000109B01335B440BF8012B5B45FBD1079A8C
:103A80009B1A12930F9B23F02004B4E62846089952
:103A900030AA00F0FBFB00283EF413AEFEF72FBE69
:103AA0002846089930AA00F0F1FB00287EF420AEE9
:103AB000DDE9313227990DF1CC083FE6886DFEF73C
:103AC00011FBFEF7CFBD02230AF1010762E657465C
:103AD00003235FE627AADDE9200103F0EFF90022C6
:103AE0004FF07F53FCF71CFE0022002306460F46D2
:103AF000FDF77EF8002840F07282124B0C9364E7C9
:103B00002E9B079A9B1A1293279B1093033380F2E4
:103B10004C810F9B023B0F93109B013B279300218D
:103B20009DF83C207BE62D224FF0000A8DF897206F
:103B3000FEF7CBBECDCCCCCC588600080000304080
:103B40000000E03F6C8600082E9BB342BFF450AEED
:103B500030215A1C2E9219702E9B9E42F9D847E6AE
:103B60002D228DF89720FEF79BBE0023284619468C
:103B7000009429AA02F044F8034601330C9000F0A7
:103B80002682079B29935CE51D9B1C99F61A1A4611
:103B9000304603F023FB98F801300BB108F101081F
:103BA0004FF0000EB7E416460133169A3E44072B39
:103BB000CDE93136C8F80020C8F8047000F3FA8166
:103BC00008F10808FFF742BA2B4655469A46119B62
:103BD00042463146CDF81C90CDF83CB0DDF86890F7
:103BE000DDF87480139EDDF820B063B3002E74D02E
:103BF000013E31981C9B013041440728C2E900383E
:103C00003291319060DC08320C9B99F800005F1B08
:103C10008742A8BF0746002F0BDD31983944013099
:103C20000728C2E90057329131905CDC99F8000016
:103C30000832002FB4BF0446C41B002C16DC054418
:103C4000119B002BD2D1002ED2D15346AA461D463D
:103C50000C9BCDF868909A4590460E4628BF9A4630
:103C6000DDF83CB0DDF81C90FFF7F8B9102C40F3FC
:103C700049829F4F319804E0103C102C02F1080259
:103C800015DD9B4B01301360102310310728CDE95F
:103C900031015360F0DD5946504630AA00F0F6FA83
:103CA00060BBDDE93101103C102C33AAE9DC0130A6
:103CB00021440728CDE931011760546045DC99F8AB
:103CC000000008320544BBE75946504630AA00F0D0
:103CD000DDFA98B9329933AA96E7119B09F1FF39B9
:103CE000013B119385E75946504630AA00F0CEFAC1
:103CF00020B999F80000329933AA9AE7D346FEF723
:103D0000F8BC0D932D22DDE91434209304F1004317
:103D10002292219340E62846089930AA00F0B6FA8C
:103D200000287EF4E5AC2799329E0DF1CC08FFF710
:103D300088BA0C9B9DF897209A46CDE910330E97D0
:103D4000099313930D93FEF7BDBD5946504630AA13
:103D500000F09CFA0028D1D199F80000329933AADA
:103D600005446DE77823FAE52846089930AA00F063
:103D70008DFA00287EF4BCAC329E0DF1CC08FFF722
:103D80005EB92846089930AA00F080FA00287EF42F
:103D9000AFAC279C329E0DF1CC08FFF775B95548A2
:103DA000DDE931211690FFF7B9B8109B9A4505DA85
:103DB0000F9A013B023A0F922793B0E6129B109A9A
:103DC00093424DDC099B13F0010F109B00F02F81F3
:103DD000179A13440C93099B5A0503D5109B002B8B
:103DE00000F3588167230F930C9BDDF858B023EA4A
:103DF000E373099300231393119362E5099BDC0796
:103E00007FF57EAE4724C619E8E4279A099B002A6D
:103E1000109203F0010340F3788153EA0A0340F063
:103E20006381109B0C9366230F93099B5B0500F144
:103E300033810C9BDDF858B023EAE3730993D9E78B
:103E40002846089930AA00F021FA00287EF450ACE8
:103E5000279C129B329E0DF1CC081C1BFFF72CB93E
:103E6000129B179A9A18109B0C92002B40F3D38048
:103E700067230F93D9E7089B5B6EDD0707D4089B88
:103E80009B899C0503D4089B986DFEF72BF94FF096
:103E9000FF330A93FEF73EBC00230D9343AB079319
:103EA000FFF7E0BB4F42103126DA114C1026169472
:103EB00004E008F10808103F102F1FDD0133103215
:103EC000072BC8E90046CDE93132F2DD28460899D2
:103ED00030AA00F0DBF900287EF40AACDDE93132CB
:103EE0000DF1CC08E7E7034A319B1692FFF779B84A
:103EF0008C8600089C860008A1491691013316990A
:103F00003A44072BCDE93132C8F80010C8F80470E4
:103F10007FF7ACA92846089930AA00F0B7F9002825
:103F20007EF4E6ABDDE931320DF1CC0809E4944AC8
:103F3000319B1692FEF70BBF099BD8077FF5E0ADCA
:103F4000079B0F9CDE1949E428460AF1010101F0A4
:103F500029FA079000283AD0079B0D930FE5119B93
:103F60002E930C9B1BF8012CD97B5B468A4209D10E
:103F7000302003F8010C2E9B5A1E2E9213F8012CB0
:103F80009142F6D0392A0BBF0C9A0132927AD2B202
:103F900003F8012C5B4672E5002939D130228DF8F7
:103FA000AA200DF1AB02303302F8013B2AABD31A41
:103FB0001B936EE42846089930AA00F067F90028A0
:103FC0007EF496AB329E0DF1CC08FFF73FB8089A0D
:103FD000B2F90C3043F040039381FEF793BB012309
:103FE000684A0F992793684B612918BF1A460C92AB
:103FF000EBE44FF0060AFFF78AB9099BD9077FF572
:1040000053AC4DE4DDF82490CDF830A0FFF719BB98
:104010000DF1AA02C7E7C3F101031A4467230F9306
:1040200022EAE273DDF858B00C920993E2E60C93B1
:10403000D1E60022DDE920010023FCF7D9FD0028AC
:104040007FF4CAABC7F101072797FFF7C6BB159BE3
:104050000021002BB8BF2D224FF00300A8BF9DF810
:1040600097204A4C4A4BB8BF8DF897202BF0800B15
:104070000D910990FEF71CBC7323CDF824A0CDF858
:1040800030A09DF8972082460E970F9313901190C1
:10409000FEF718BC67230F931A990B78FF2B6BD090
:1040A0000024109A204603E001300131FF2B08D094
:1040B000934206DAD21A4B78002BF5D10B780134F3
:1040C000F4E7CDE910201A911394119A139B1D99CE
:1040D00013440C9ADDF858B001FB03230C9323EA38
:1040E000E3730993FFF7EDBB179B02EB030B0BEB9D
:1040F0000A030C9366230F9397E6214A319B16928D
:10410000FFF7D1BA31981E4FD1E553EA0A03DDF823
:1041100058B005D10123662209930F920C9369E6EA
:104120006622179B0F92013353440C9323EAE373E7
:1041300009935FE67022FFF771BB02231B93FFF721
:10414000A8BB0E9A99F80130894652F8041B0E92CA
:1041500041EAE17AFEF7EDB9094B1693FFF702BB8E
:10416000074A319B16921FE5089AAB46938943F0A4
:1041700040039381FEF7BDBA002313931193A4E784
:104180008C860008588600086C8600085086000857
:1041900054860008F0B50026ADF26C4D1AAD4FF410
:1041A00080641F46009504950696154606468B8941
:1041B00016A823F00203ADF80C304B6E059419934A
:1041C000CB890294ADF80E30CB690C4607934B6A4D
:1041D0000993FDF781FF2A463B4669463046FEF7C4
:1041E0002DF9051E07DB6946304602F0C3FD0028A5
:1041F00018BF4FF0FF35BDF80C305B0603D5A3891F
:1042000043F04003A3811698FDF768FF28460DF29E
:104210006C4DF0BD2DE9F84F4B6E90469C042ED5A9
:10422000936812684BB30D46064602F1080959E936
:10423000022A5FEA9A0716D00024A2F1040B01E0DB
:10424000A7420ED02A4630465BF8041F03F08CF8D4
:10425000431C04F10104F3D10023C8E90133BDE894
:10426000F88FD8F808302AF0030AA3EB0A03C8F83D
:10427000083009F10809002BD9D10020ECE703F040
:10428000C5F80023C8E90133BDE8F88F10B494687D
:1042900014B110BCFFF7BEBF2046546010BC70477D
:1042A0002DE9F04F81460E461546C7B016AF0822DD
:1042B000002138461C46049606950A93FDF780FEB9
:1042C000B9F1000F04D0D9F83430002B00F0C786C4
:1042D000049A536EDE0740F15785B2F90C20900422
:1042E00007D4049942F400524B6E8A8123F40053A0
:1042F0004B66110740F1BE80049B1B69002B00F048
:10430000B98002F01A030A2B00F0C38000231DAA13
:104310009246CDE91B33CDE90F33DFF848B21A924C
:104320000D9307930E93069DDBF8E44001F014FB18
:104330002A46034614A948460097A047002800F0E3
:10434000C780C0F2BD80149B252B01D00544EBE74C
:10435000069B0446EE1A40F0BF804FF0FF32002368
:1043600005926A786C1C8DF84B30089302930134E7
:10437000A2F120035A2B00F2F780DFE813F042038A
:10438000F500F5003C03F500F500F500F402F5003A
:10439000F5006B003703F50009021E02F500180254
:1043A0005B005B005B005B005B005B005B005B0035
:1043B0005B00F500F500F500F500F500F500F500EF
:1043C000F500F500BD018802F500F500F500F500E7
:1043D000F500F500F500F500F500F5003802F500F0
:1043E000F500F5009501F500A002F500F500960531
:1043F000F500F500F500F500F500F500F500F50015
:10440000F500F500BD01E001F500F500F5000F0233
:10441000E0017500F5002E03F50016039305D202A6
:104420007500F500950173009005F500F500BB05DA
:10443000F5007300A2F130030022114614F8012B9D
:1044400001EB810103EB4101A2F13003092BF5D906
:1044500008918DE70A9B53F8042B002A08920A93CF
:10446000C0F29381227882E7029B227843F02003F6
:1044700002937CE7049D4846294601F0E7FA0028AC
:1044800040F0DA86B5F90C2002F01A030A2B7FF40B
:104490003DAF0499B1F90E30002BFFF637AF4B6EEC
:1044A000DE0702D4950540F18D8623464846069ADC
:1044B000049900F0F3FE0790079847B0BDE8F08F2D
:1044C000082200213846FDF77BFD012005442BE73B
:1044D000069B0446EE1A12D0069B1C9ACAE90036C7
:1044E0001B9B32440133072B1C921B9311DC0AF1F6
:1044F000080A079B33440793002C7FF42EAF1C9BC4
:10450000002B40F082860022049B1B92B3F90C30F2
:104510001CE0002A00F05784484604991AAAFFF7C5
:1045200079FE80B90DF1740AE3E7484604991AAAA6
:10453000FFF770FE002800F0A2800B9B1BB14846DD
:104540000B9902F04FFD049BB3F90C30049A526EA4
:10455000D10740F19F805B0600F17A86079847B04B
:10456000BDE8F08F500500200694002AC7D0002334
:104570008DF84B3001238DF8B42003932DAC0993B3
:1045800000230B930593029B13F0020302D0039ABE
:1045900002320392029A12F084020C9205D1089A18
:1045A0000399551A002D00F34D83DDE91B12481CB9
:1045B0009DF84B5085B101210132CAF8041007283B
:1045C0000DF14B01CDE91B02CAF8001000F3FD828A
:1045D00001460AF1080A0130D3B102230232CAF8B7
:1045E0000430072813ABCDE91B02CAF8003040F3B2
:1045F0000783002A00F00484484604991AAAFFF7AA
:1046000009FE002899D1DDE91B120DF1740A481C3E
:104610000C9B802B00F03482059B099D5D1B002DB7
:1046200000F38882099B07281A44CDE91B02CAF8C7
:104630000040CAF8043040F32082002A00F04B8387
:10464000484604991AAAFFF7E5FD00287FF475AFE4
:104650001C9A0DF1740A029B580705D5089B039913
:104660005C1A002C00F34283DDE907310398814294
:10467000ACBF5B181B180793002A7FF456AF0023CA
:104680001B930B9B1BB11946484602F0ABFC0DF186
:10469000740A48E69A053FF55EAF049CA06DFDF7ED
:1046A00021FDB4F90C3056E700230A9E069456F813
:1046B000044B8DF84B30002C00F0EC84532A00F0B2
:1046C0003E84029B13F0100540F03984059B5A1C70
:1046D00000F084851A462946204602F075FB0B90AF
:1046E000002800F07485031BCDE9093623EAE37343
:1046F000059503930B95AFE1432A069403D0029BE3
:10470000DC0640F1FB830A9D0822002118A82DAC8D
:10471000FDF756FC18AB2146484655F8042B01F02E
:10472000F5F803460133099000F07E85099B0A9550
:1047300023EAE373039300238DF84B3020E7029BB9
:104740000694980640F1AC800A9B073323F00703D8
:1047500018465A6850F8083B11460A90002AC0F2E1
:104760005A81059A013200F06381029A22F0800298
:10477000029253EA010240F05B81059B002B40F05E
:1047800042850393099346AC64E1089B5B4208931E
:10479000029B227843F004030293E8E52278029B0F
:1047A000682A00F0618443F040030293DFE5029B36
:1047B000227843F080030293D9E5214611F8012BBA
:1047C0002A2A00F05985A2F13003092B0C4600F289
:1047D00016850022114614F8012B01EB810103EB31
:1047E0004101A2F13003092BF5D90591C0E5029BE7
:1047F000069443F0100212F0200100F0F4820A9BAC
:10480000073323F007031846596850F8083B0A900D
:10481000002022F480640294059C8DF84B00013442
:1048200012D022F4906453EA010240F06183059BA8
:10483000029A0294002B65D0012800F0E484002342
:104840000228194600F0E78146AC03F00702DB08B6
:1048500043EA4173C908303253EA0105204604F89F
:10486000012DF2D1029BDD0740F1E381302A00F0F7
:10487000E0813023059A023804F8013C46AB1B1A4C
:104880009A42B8BF1A46044609930392E2E0029B9B
:10489000069443F010030293029B98063FF554AF31
:1048A000029BD90600F1E482029B5A0640F1FC8388
:1048B0000A9A32F9043BD9170A920A464EE7029B3C
:1048C000069443F0100212F0200100F07F820A9B50
:1048D000073323F007031846596850F8083B0A903D
:1048E00000208DF84B000598013000F0B68322F0CF
:1048F0008000029053EA010040F09A800120059B5D
:10490000002B99D1002840F0948212F00102099204
:1049100000F09482302303928DF817310DF21714B2
:1049200098E0029B002143F00203029347F6300314
:104930000A9AADF84C3052F8043B06940A92B34AF6
:104940000E9200228DF84B20059A013200F063810F
:10495000029C53EA010224F0800040F05B81029047
:1049600022460220CBE7484600F0FCFF4368184689
:10497000109302F075FA034648461D460F9300F067
:10498000F1FF83680D93002D3FF46CAD0D9B002B60
:104990003FF468AD0D9B1B78002B3FF463AD029B89
:1049A000227843F480630293E1E4029B06949E061E
:1049B00000F16582029BDD0600F16483029B5C06C8
:1049C00000F1F483029B980540F15C830A9B0799F0
:1049D00053F8042B11700A93A5E42278029B6C2AE9
:1049E00000F0498343F010030293C0E42B232278A4
:1049F0008DF84B30BBE4029B227843F00103029315
:104A0000B5E49DF84B30002B7FF42CAD20232278A9
:104A10008DF84B30ABE42D228DF84B20059A5B428C
:104A200061EB4101013203D0029A22F0800202922E
:104A30000A2B71F1000280F0B1823033DBB28DF8C5
:104A40001731059B0DF21714012BB8BF01230393F7
:104A50000123099300230B939DF84B30002B3FF467
:104A600092AD039B013303938DE50123099A1D94B5
:104A70001B931E921C920DF1740A0AF1080AEAE5D2
:104A8000089B039D5D1B002D7FF7C6AD102D40F3E5
:104A9000E483DFF87C81D44643461026A046DDF847
:104AA00010A01C4606E0881C19460CF1080C103DAD
:104AB000102D1ADD4B1C1032072BCCE90046CDE936
:104AC0001B32F0DD002A7BD0514648461AAAFFF778
:104AD000A1FB00287FF431ADDDE91B12103D102D44
:104AE0000DF1740C01F10100E4DC2346E24644467A
:104AF00098462A440728CDE91B02CAF80080CAF864
:104B0000045040F39F81002A00F032834846049904
:104B10001AAAFFF77FFB00287FF40FADDDE91B1217
:104B2000059B099D0DF1740A5D1B002D01F101002B
:104B30007FF778AD102DDFF8D8802EDDD446102613
:104B4000AA462546049C08E0881C19460CF1080C6E
:104B5000AAF1100ABAF1100F1CDD4B1C2C481032C0
:104B6000072BCCE90006CDE91B32EDDD1AB3214657
:104B700048461AAAFFF74EFB00287FF4DEACDDE9B9
:104B80001B12AAF1100ABAF1100F0DF1740C01F109
:104B90000100E2DC2C465546E2462A440728CDE9CE
:104BA0001B02CAF80080CAF8045000F3FB800AF127
:104BB000080A013036E5012011460DF1740CC7E7F3
:104BC000012011460DF1740C71E77AB14846049941
:104BD0001AAA1193FFF71EFB00287FF4AEACDDE9A3
:104BE0001B12119B0DF1740A481CF5E4002B00F018
:104BF00050810222012013AB1D930DF1740A1E9205
:104C000001460AF1080A013002E500BF5886000893
:104C1000AC86000802900E9846AC03F00F02825C4E
:104C20001B0943EA0173090904F8012D53EA010243
:104C3000F3D1059A46AB1B1B9A42B8BF1A4609939B
:104C4000039207E7102D40F3D482DDE91BC2DFF8A1
:104C5000C482D6461026A24661464446984607E0DE
:104C600001F1020C01460EF1080E103D102D19DD68
:104C7000481C10320728CEE90046CDE91B02EFDDC3
:104C80001AB3484604991AAAFFF7C4FA00287FF419
:104C900054ACDDE91B12103D102D0DF1740E01F125
:104CA000010CE5DC43466146A0465446F2462A44E0
:104CB0000729CDE91B12CAF80080CAF8045000F396
:104CC000A4800AF1080A481C72E411464FF0010C56
:104CD0000DF1740EC9E7029B1B925C074BD5089B34
:104CE00003995C1A002C46DD0DF1740A102C40F378
:104CF0009682DFF82082102546461B99DDF8108049
:104D000006E0881C19460AF1080A103C102C19DD2F
:104D10004B1C1032072BCAE90065CDE91B32F0DDD0
:104D200022B3414648461AAAFFF774FA00287FF4D6
:104D300004ACDDE91B12103C102C0DF1740A01F1DA
:104D40000100E5DCB04622440728CAE90084CDE929
:104D50001B027FF789AC72B1484604991AAAFFF783
:104D600059FA00287FF4E9AB1C9A7DE40120114632
:104D70000DF1740AC9E70399DDE907328A42ACBF35
:104D80009B185B1807937AE4049BB3F90C209505F4
:104D90003FF5A5AA1D46986DFDF7A2F9B5F90C20BF
:104DA000FFF79DBA002A3FF460AE484604991AAA5C
:104DB000FFF730FA00287FF4C0AB1B981C9A0DF166
:104DC000740A01302EE41B92FFF7ACBB12F0100303
:104DD0000A9841D112F040043AD0194650F8043BE9
:104DE0000A909BB27CE512F010030A983CD112F0B5
:104DF000400435D0194650F8043B0A909BB207E5B1
:104E0000012011460DF1740A02E4002A00F08880A6
:104E1000484604991AAA1193FFF7FCF900287FF479
:104E20008CABDDE91B12119B0DF1740A481CFFF7D6
:104E3000BFBB059B46AC039309930BE6059B46ACB1
:104E4000039307E601460AF1080A0130FFF7E4BBC5
:104E500012F4007140F0968150F8043B0A903FE54F
:104E600012F4007140F0958150F8043B0A90CFE4B1
:104E70000A9A52F8043BD9170A920A466EE40A9B32
:104E8000079853F8041BC217C1E900020A93FFF701
:104E90004ABA114601200DF1740AFFF7B9BB029A14
:104EA000069410E5029A0694A5E41B4B06940E9313
:104EB000029B13F0200168D00A9B073323F00703FD
:104EC0001846596850F8083B0A90029CE6070AD534
:104ED00053EA010007D08DF84D2044F002020292FF
:104EE00030228DF84C20029A22F48062029228E54A
:104EF0000294A9E4094B06940E93D9E701210A9B79
:104F0000039153F8042B2DACCDE909138DF8B4208F
:104F100011E400BFBC8600086C86000858860008B3
:104F20009DF84B10002900F03B8101200DF14B0250
:104F30001D920DF1740A02461E90FFF749BB08222C
:104F4000002118A81594FDF73BF8DDF81480B8F19E
:104F5000FF3F00F0D380002503942C460DE02DA9DF
:104F6000484618AB00F0D2FC411C204400F05C81A4
:104F7000404507DC00F074810446159B5A590435FE
:104F8000002AECD10994039CC6E0029B13F01003A5
:104F900058D00A9850F8043B0A9096E7029A98462F
:104FA00002F480624FF0000C1346AF4D0DF58C7E7D
:104FB000CDF80CA0CDF8249007E0B8F10A0F71F1FC
:104FC00000013AD3C8463146A64618EB010242F129
:104FD0000002A5FB020626F0030000EB96004FF04E
:104FE000CC36121AB8EB020006FB00F661F1000A9B
:104FF000A0FB059005FB0A660644052009F0010A9E
:10500000AAFB000A80184FEA5909303049EAC679EC
:105010000CF1010C0EF1FF340EF8010C7608002B98
:10502000CBD00D9A12786245C7D1BCF1FF0FC4D026
:10503000B8F10A0F71F100014ED2DDF80CA0DDF8D5
:105040002490F6E5029911F040043AD00A981946E6
:1050500050F8043B0A909BB237E70292E8E44846D6
:10506000FDF700F9FFF734B943F400736278029357
:105070000134FFF77CB943F02003627802930134D6
:10508000FFF775B90A9B079953F8042B11600A932F
:10509000FFF749B9059B754C062B28BF0623CDE9C0
:1050A00009360393FFF76CBA029B0A9A9B054CBF23
:1050B00012F9043B52F8043BD9170A920A46FFF74B
:1050C0004DBB029B0A9813F4007157D050F8043B73
:1050D00021460A90DBB2F8E60B930F9B1099E41A75
:1050E0001A46204602F07AF80D990B9B4A7812B1C5
:1050F0000A4601320D924FF0000C63E718AB0093A3
:1051000000234846194615AA00F07AFD03460133EC
:10511000099000F089801594099B1BB3632B4DDD2A
:105120004846591C00F03EF9044600287CD00B90FC
:105130000822002118A8FCF743FF099D18AB009333
:1051400021462B46484615AA00F05AFD854240F0FC
:105150009E800023099A0A9622EAE2710391A354E1
:10516000059379E4099B0A96039305930B9373E4E3
:10517000012011460DF1740AFFF74EBA50F8043BB6
:105180000A90A2E650F8043B21460A90DBB2FFF7F2
:10519000A7BB50F8043B21460A90DBB2FFF738BBAF
:1051A000114601200DF1740AFFF716BA0A9B079900
:1051B00053F8042B11800A93FFF7B5B800232DACE8
:1051C0000B93B5E7886DFCF78DFFFFF76EB9059B74
:1051D0000A96039309930B9B05933DE4204605959E
:1051E0000A9601F03DFE20EAE07309900B950393C7
:1051F00032E41B991C9ADFF87880013157E50023CF
:105200000593FFF7B5B8302319E4484604991AAA64
:10521000FFF700F800283FF476A9FFF794B91B9830
:10522000DFF84C8001308EE5049AB2F90C3043F07F
:1052300040039381FFF78AB9049B5B6EDB0707D4B9
:10524000049B9B899F0503D4049B986DFCF74AFF40
:105250004FF0FF330793FFF781B9DFF8188048E478
:10526000059B039C099357E7CDCCCCCC80860008E6
:10527000BC860008AC8600080A9B62780C4653F88E
:10528000041B0A9341EAE1730593FFF770B8049A8F
:10529000938943F040039381FFF74FB9F0B500269F
:1052A000ADF26C4D1AAD4FF480641F460095049525
:1052B0000696154606468B8916A823F00203ADF81C
:1052C0000C304B6E05941993CB890294ADF80E30D7
:1052D000CB690C4607934B6A0993FCF7FDFE2A46FF
:1052E0003B4669463046FEF7DBFF051E07DB694695
:1052F000304601F03FFD002818BF4FF0FF35BDF8E4
:105300000C305B0603D5A38943F04003A3811698B4
:10531000FCF7E4FE28460DF26C4DF0BD2DE9F04798
:10532000DFF874A00646DAF8000098460F4691466A
:10533000FCF7D6FE194B1C6824B365681F2D24DCCE
:105340005EB96B1C0235DAF80000636044F8257022
:10535000FCF7C8FE0020BDE8F087012304EB8501BF
:10536000C1F88890D4F88821AB401A43022EC4F8C3
:105370008821C1F80881E4D1D4F88C211A43C4F8FB
:105380008C21DEE7064C1C60D7E7DAF80000FCF75A
:10539000A9FE4FF0FF30DEE708000020DC06002009
:1053A000280800202DE9F04F01F10B05162D0646C7
:1053B00083B024D8102900F2BA8000F015FC102523
:1053C00018230220B84F3B445C68A3F108029442C2
:1053D00000F028816368E26823F003032344A16896
:1053E0003046CA6091605A6804F1080542F0010233
:1053F0005A6000F0FFFB284603B0BDE8F08F35F09F
:10540000070500F19480A94200F2918000F0ECFBC6
:10541000B5F5FC7FC0F071816B0A00F08C80042B25
:1054200000F22C81AB0903F1390003F1380CC10003
:105430009D4F39444C680839A14206D10CE0002A3E
:1054400080F2ED80E468A14206D0636823F0030394
:105450005A1B0F2AF3DD6046DFF850C23C696445F1
:1054600000F0C980626822F00302531B0F2B00F387
:105470004881002BC7E904CC80F23481B2F5007F6B
:1054800080F0D6804FF0010ED308520973440EFA13
:1054900002FE7A6857F833104EEA020E07EBC30299
:1054A000083AC7F804E0A160E26047F83340CC60F6
:1054B000012283109A40724543D812EA0E0F07D199
:1054C00020F00300520012EA0E0F00F10400F9D0A0
:1054D00007EBC00949468046CC68A14207D1D9E014
:1054E000002B80F2EF80E468A14200F0D380636873
:1054F00023F0030EAEEB05030F2BF1DD621945F02F
:10550000010565603046D4E90261F1608E6043F0C8
:105510000101C7E90422C2F808C0C2F80CC05160FA
:1055200044F80E3000F066FB04F1080563E70C2335
:10553000336000255FE74FF4007140204FF03F0CCF
:1055400076E7BC68636823F00309A94503D3A9EB98
:1055500005030F2B52DC564B08201B6803F1100883
:1055600000F066FA534A04EB09030093136883467C
:105570000133A84405D008F1FF388044434203EAD0
:1055800008084146304601F02FFFB0F1FF3F824648
:10559000484A00F0D28004EB0903834200F2CB803A
:1055A000454B0BF1FF31186840448446186040F0C9
:1055B000F0801AEA010F40F0EC80D7F808A0C84448
:1055C00048F00102CAF8042054463C4B1968814255
:1055D00038BF18603A4B1968814238BF186022F012
:1055E0000308A845A8EB050301D30F2B06DC3046C2
:1055F00000F000FB9DE7D7F804E059E7621943F09B
:10560000010345F0010565603046BA6004F1080504
:10561000536000F0EFFA284603B0BDE8F08FE2686F
:105620002344DCE6DC68A3427FF4D4AE023013E707
:10563000B2F5206F4FEA522377D3142B00F20D817D
:1056400003F15C01C9005B3307EB01087958A8F14D
:105650000808884503D1E4E08968884504D04B6890
:1056600023F003039342F7D8D1F80C80D7F804E075
:10567000C4E90218C8F80840CC6019E7142B5FD9B8
:10568000542B00F2F2802B0B03F16F0003F16E0C30
:10569000C100CDE608F1010818F0030F01F108017F
:1056A0007FF41AAF57E000BF4801002050010020EE
:1056B000E80900203C010020B8090020E40900208E
:1056C000E0090020254604EB0E035A68E16842F029
:1056D00001025A6055F8083F3046D9608B6000F0EF
:1056E00089FA88E622445368304643F00103536048
:1056F00000F080FA04F108057DE6E80805F10803EA
:1057000060E6611945F00105656043F00105C7E9F0
:10571000041130464D60C1F808C0C1F80CC0A35058
:1057200000F068FA04F1080565E6930903F1390110
:10573000C900383388E7BC4223D0BC6862684EE7B2
:1057400003F15C0003F15B0CC10071E659F8083904
:105750004B4540F0D68010F0030F00F1FF30F5D13B
:105760007B6823EA02037B6052009A423FF6E9AE6F
:105770001AB9E6E6520008F104081A42FAD0404687
:10578000A6E6614B0BF1FF31186808EB000CC3F87B
:1057900000C01068013072D004EB0902AAEB0202CB
:1057A00062441A601AF00702CDE9002344D0C2F126
:1057B00008029244D04408EA01005A44121A02EA4C
:1057C000010B5946304601F00FFE421C019B71D07F
:1057D000A0EB0A0000EB0B08186848F001025844DF
:1057E000BC42C7F808A01860CAF804203FF4ECAE29
:1057F000B9F10F0F46D94FF0050C6168A9F10C0201
:1058000022F0070201F00101114361600F2A04EB4D
:105810000201C1F804C0C1F808C053D8DAF8042066
:10582000D2E64FF0010E9B100EFA03FE7B684EEAA3
:10583000030EC7F804E01BE70AEB08020A40ABEBD3
:10584000020202EA010B5946304601F0CDFD431C2D
:10585000019BBDD1DDF800B0BEE7542B16D8130B69
:1058600003F16F01C9006E33EEE6B3F5AA7F16D8D7
:10587000EB0B03F1780003F1770CC100D8E5C2F817
:1058800000A08FE70123CAF80430B0E6B3F5AA7F81
:1058900023D8D30B03F17801C9007733D4E640F263
:1058A0005452934223D8AB0C03F17D0003F17C0CDE
:1058B000C100BDE5009A4FF0000B083A9044A8EBF8
:1058C0000A0889E7304604F10801009301F08AFBD9
:1058D000009BD7F808A01868A0E740F254518B420B
:1058E0000BD8930C03F17D01C9007C33ACE64FF477
:1058F0007E717F204FF07E0C9AE54FF47E717E23FF
:10590000A2E67B6830E700BFB809002070B5054605
:1059100084B05BB11C4669B10E4B2846D3F8E060F9
:105920002346B047431C0FD004B070BD00F582740D
:105930000029F1D1074823460A46D0F8E06001A9C2
:105940002846B047431CEFD100228A2322602B60F7
:1059500004B070BD50050020014B93F8280170473A
:1059600050050020004870474006002070B500290F
:1059700040D006460C4610B1436B002B3DD0636E01
:10598000DD0733D4A38998053AD52146304601F086
:105990005DF9E36A054633B13046E169984700286E
:1059A000B8BF4FF0FF35A3891A063BD4216B41B134
:1059B00004F14003994202D0304601F013FB00236A
:1059C0002363616C21B1304601F00CFB002363645A
:1059D000FCF766FC0022636EA281DB071ED5A06D7A
:1059E000FCF77CFBFCF762FC284670BDB4F90C3078
:1059F000002BCAD10025284670BDFCF733FCBEE75A
:105A0000A06DFCF76DFBB4F90C30002BBDD1636EBB
:105A1000D907EFD4A06DFCF765FBEBE7A06DFCF7B1
:105A200061FBDCE73046216901F0DCFABEE700BF2C
:105A3000082802D14FF48050704708B501F054FE99
:105A4000162203464FF0FF301A6008BD38B52E4BC2
:105A500005461B680C4613B15A6B002A4BD0B4F9AB
:105A60000C3018071CD5226922B313F0010107D0AE
:105A700000206169A0604942A1613AB1002038BDAF
:105A8000980758BF6169A160002AF7D1190658BF6D
:105A90001046F4D543F040034FF0FF30A38138BDEA
:105AA000D9062CD55A0712D4226943F00803A381E2
:105AB000002ADAD103F42071B1F5007FD5D0214658
:105AC000284600F023F8B4F90C302269CDE7216BA9
:105AD00051B104F14002914204D0284601F082FA0B
