:020000040800F2
:10000000005000200D020008DB010008DD0100089F
:10001000DF010008E1010008E30100080000000022
:10002000000000000000000000000000E5010008E2
:10003000E701000800000000E9010008EB010008EA
:100040005502000855020008550200085502000834
:100050005502000855020008550200085502000824
:100060005502000855020008550200085502000814
:100070005502000855020008550200085502000804
:1000800055020008550200085502000855020008F4
:1000900055020008550200085502000855020008E4
:1000A00055020008550200085502000855020008D4
:1000B00055020008550200085502000855020008C4
:1000C00055020008550200085502000855020008B4
:1000D00055020008550200085502000855020008A4
:1000E00055020008550200085502000800000000F3
:1000F0000000000000000000000000000000000000
:0C01000000000000000000005FF808F1A3
:10010C000348044B834202D0034B03B1184770479A
:10011C000800002008000020000000000548064BE5
:10012C001B1AD90F01EBA301491002D0034B03B1E9
:10013C00184770470800002008000020000000004D
:10014C0010B5064C237843B9FFF7DAFF044B13B113
:10015C000448AFF300800123237010BD0800002079
:10016C00000000008003000808B5054B1BB10549D1
:10017C000548AFF30080BDE80840FFF7CFBF00BFD4
:10018C00000000000C00002080030008094A93695D
:10019C0043F010039361084B5A6842F440125A60C2
:1001AC005A6822F440025A60DA6842F40052DA606B
:1001BC00704700BF001002400010014000B583B032
:1001CC0001A8FFF7E3FF002003B05DF804FBFEE796
:1001DC00FEE7FEE7FEE7FEE770477047704708B59D
:1001EC0000F002F808BD7047034A1168034B1B78F6
:1001FC000B441360704700BF240000200000002057
:10020C00FFF7F1FF0B480C490C4A002302E0D458CD
:10021C00C4500433C4188C42F9D3094A094C002346
:10022C0001E013600432A242FBD300F019F8FFF78F
:10023C00C5FF70470000002008000020AC03000838
:10024C0008000020C0010020FEE70000024B13B1A3
:10025C00024800F045B8704700000000BD020008DD
:10026C0070B50F4B0F4DAB42A3EB050607D0002426
:10027C00B61055F8043B01349847A642F9D800F063
:10028C0079F8094D094B5E1BAB424FEAA60606D026
:10029C00002455F8043B01349847A642F9D870BDA8
:1002AC00A0030008A0030008A0030008A80300088E
:1002BC0038B5074D074C2C1BA41005D0013C55F844
:1002CC00043D9847002CF9D1BDE8384000F058B8EF
:1002DC00AC030008A8030008704700BF704700BFBC
:1002EC00002301461A46184600F000B82DE9F047E5
:1002FC00DFF874A00646DAF8000098460F469146DF
:10030C00FFF7EAFF194B1C6824B365681F2D24DC2A
:10031C005EB96B1C0235DAF80000636044F8257096
:10032C00FFF7DCFF0020BDE8F087012304EB85011B
:10033C00C1F88890D4F88821AB401A43022EC4F837
:10034C008821C1F80881E4D1D4F88C211A43C4F86F
:10035C008C21DEE7064C1C60D7E7DAF80000FFF7CB
:10036C00BDFF4FF0FF30DEE7040000202800002026
:10037C0030000020F8B500BFF8BC08BC9E467047A2
:0C038C00F8B500BFF8BC08BC9E467047E6
:0803980000FEFF7F01000000E0
:0803A000590200087501000874
:0403A8004D010008FB
:0803AC00010000002C000020FC
:040000050800020DE0
:00000001FF
